{
  "_format": "hh-sol-artifact-1",
  "contractName": "DAORegistry",
  "sourceName": "@q-dev/gdk-contracts/DAO/DAORegistry.sol",
  "abi": [
    {
      "inputs": [
        {
          "internalType": "string",
          "name": "name",
          "type": "string"
        },
        {
          "internalType": "enum ParameterType",
          "name": "expected",
          "type": "uint8"
        },
        {
          "internalType": "enum ParameterType",
          "name": "actual",
          "type": "uint8"
        }
      ],
      "name": "InvalidParameterType",
      "type": "error"
    },
    {
      "anonymous": false,
      "inputs": [
        {
          "indexed": false,
          "internalType": "string",
          "name": "name",
          "type": "string"
        },
        {
          "indexed": false,
          "internalType": "address",
          "name": "contractAddress",
          "type": "address"
        }
      ],
      "name": "ContractAdded",
      "type": "event"
    },
    {
      "anonymous": false,
      "inputs": [
        {
          "indexed": false,
          "internalType": "string",
          "name": "name",
          "type": "string"
        }
      ],
      "name": "ContractRemoved",
      "type": "event"
    },
    {
      "anonymous": false,
      "inputs": [
        {
          "indexed": false,
          "internalType": "string",
          "name": "daoURI",
          "type": "string"
        }
      ],
      "name": "DAOURIChanged",
      "type": "event"
    },
    {
      "anonymous": false,
      "inputs": [
        {
          "indexed": false,
          "internalType": "uint8",
          "name": "version",
          "type": "uint8"
        }
      ],
      "name": "Initialized",
      "type": "event"
    },
    {
      "anonymous": false,
      "inputs": [],
      "name": "Initialized",
      "type": "event"
    },
    {
      "anonymous": false,
      "inputs": [
        {
          "indexed": false,
          "internalType": "string",
          "name": "panelName",
          "type": "string"
        }
      ],
      "name": "PanelAdded",
      "type": "event"
    },
    {
      "anonymous": false,
      "inputs": [
        {
          "indexed": false,
          "internalType": "string",
          "name": "panelName",
          "type": "string"
        }
      ],
      "name": "PanelRemoved",
      "type": "event"
    },
    {
      "anonymous": false,
      "inputs": [
        {
          "indexed": false,
          "internalType": "string",
          "name": "name",
          "type": "string"
        },
        {
          "indexed": false,
          "internalType": "address",
          "name": "contractAddress",
          "type": "address"
        },
        {
          "indexed": false,
          "internalType": "address",
          "name": "implementation",
          "type": "address"
        }
      ],
      "name": "ProxyContractAdded",
      "type": "event"
    },
    {
      "anonymous": false,
      "inputs": [
        {
          "indexed": false,
          "internalType": "string",
          "name": "name",
          "type": "string"
        },
        {
          "indexed": false,
          "internalType": "address",
          "name": "newImplementation",
          "type": "address"
        }
      ],
      "name": "ProxyContractUpgraded",
      "type": "event"
    },
    {
      "inputs": [],
      "name": "DAO_REGISTRY_RESOURCE",
      "outputs": [
        {
          "internalType": "string",
          "name": "",
          "type": "string"
        }
      ],
      "stateMutability": "view",
      "type": "function"
    },
    {
      "inputs": [
        {
          "internalType": "address",
          "name": "permissionManager_",
          "type": "address"
        },
        {
          "internalType": "address",
          "name": "masterAccess_",
          "type": "address"
        },
        {
          "internalType": "string",
          "name": "panelName_",
          "type": "string"
        },
        {
          "internalType": "string",
          "name": "registryResource_",
          "type": "string"
        },
        {
          "internalType": "string",
          "name": "daoURI_",
          "type": "string"
        }
      ],
      "name": "__DAORegistry_init",
      "outputs": [],
      "stateMutability": "nonpayable",
      "type": "function"
    },
    {
      "inputs": [
        {
          "internalType": "string",
          "name": "name_",
          "type": "string"
        },
        {
          "internalType": "address",
          "name": "contractAddress_",
          "type": "address"
        }
      ],
      "name": "addContract",
      "outputs": [],
      "stateMutability": "nonpayable",
      "type": "function"
    },
    {
      "inputs": [
        {
          "internalType": "string",
          "name": "panelName_",
          "type": "string"
        }
      ],
      "name": "addPanel",
      "outputs": [],
      "stateMutability": "nonpayable",
      "type": "function"
    },
    {
      "inputs": [
        {
          "internalType": "string",
          "name": "name_",
          "type": "string"
        },
        {
          "internalType": "address",
          "name": "contractAddress_",
          "type": "address"
        }
      ],
      "name": "addProxyContract",
      "outputs": [],
      "stateMutability": "nonpayable",
      "type": "function"
    },
    {
      "inputs": [
        {
          "internalType": "address",
          "name": "account_",
          "type": "address"
        },
        {
          "internalType": "string",
          "name": "permission_",
          "type": "string"
        }
      ],
      "name": "checkPermission",
      "outputs": [
        {
          "internalType": "bool",
          "name": "",
          "type": "bool"
        }
      ],
      "stateMutability": "view",
      "type": "function"
    },
    {
      "inputs": [],
      "name": "daoURI",
      "outputs": [
        {
          "internalType": "string",
          "name": "_daoURI",
          "type": "string"
        }
      ],
      "stateMutability": "view",
      "type": "function"
    },
    {
      "inputs": [
        {
          "internalType": "address",
          "name": "account_",
          "type": "address"
        }
      ],
      "name": "getAccountStatuses",
      "outputs": [
        {
          "components": [
            {
              "internalType": "string[]",
              "name": "groups",
              "type": "string[]"
            },
            {
              "internalType": "bool[]",
              "name": "isMember",
              "type": "bool[]"
            }
          ],
          "internalType": "struct IDAORegistry.AccountStatus",
          "name": "status",
          "type": "tuple"
        }
      ],
      "stateMutability": "view",
      "type": "function"
    },
    {
      "inputs": [
        {
          "internalType": "string",
          "name": "panelName_",
          "type": "string"
        }
      ],
      "name": "getConfDAOParameterStorage",
      "outputs": [
        {
          "internalType": "address",
          "name": "",
          "type": "address"
        }
      ],
      "stateMutability": "view",
      "type": "function"
    },
    {
      "inputs": [
        {
          "internalType": "string",
          "name": "name_",
          "type": "string"
        }
      ],
      "name": "getContract",
      "outputs": [
        {
          "internalType": "address",
          "name": "",
          "type": "address"
        }
      ],
      "stateMutability": "view",
      "type": "function"
    },
    {
      "inputs": [
        {
          "internalType": "string",
          "name": "panelName_",
          "type": "string"
        }
      ],
      "name": "getDAOMemberStorage",
      "outputs": [
        {
          "internalType": "address",
          "name": "",
          "type": "address"
        }
      ],
      "stateMutability": "view",
      "type": "function"
    },
    {
      "inputs": [],
      "name": "getDAOVault",
      "outputs": [
        {
          "internalType": "address",
          "name": "",
          "type": "address"
        }
      ],
      "stateMutability": "view",
      "type": "function"
    },
    {
      "inputs": [
        {
          "internalType": "string",
          "name": "panelName_",
          "type": "string"
        }
      ],
      "name": "getExpertsDAOVoting",
      "outputs": [
        {
          "internalType": "address",
          "name": "",
          "type": "address"
        }
      ],
      "stateMutability": "view",
      "type": "function"
    },
    {
      "inputs": [
        {
          "internalType": "string",
          "name": "panelName_",
          "type": "string"
        }
      ],
      "name": "getGeneralDAOVoting",
      "outputs": [
        {
          "internalType": "address",
          "name": "",
          "type": "address"
        }
      ],
      "stateMutability": "view",
      "type": "function"
    },
    {
      "inputs": [
        {
          "internalType": "string",
          "name": "name_",
          "type": "string"
        }
      ],
      "name": "getImplementation",
      "outputs": [
        {
          "internalType": "address",
          "name": "",
          "type": "address"
        }
      ],
      "stateMutability": "view",
      "type": "function"
    },
    {
      "inputs": [],
      "name": "getPanels",
      "outputs": [
        {
          "internalType": "string[]",
          "name": "",
          "type": "string[]"
        }
      ],
      "stateMutability": "view",
      "type": "function"
    },
    {
      "inputs": [],
      "name": "getPermissionManager",
      "outputs": [
        {
          "internalType": "address",
          "name": "",
          "type": "address"
        }
      ],
      "stateMutability": "view",
      "type": "function"
    },
    {
      "inputs": [],
      "name": "getProxyUpgrader",
      "outputs": [
        {
          "internalType": "address",
          "name": "",
          "type": "address"
        }
      ],
      "stateMutability": "view",
      "type": "function"
    },
    {
      "inputs": [
        {
          "internalType": "string",
          "name": "panelName_",
          "type": "string"
        }
      ],
      "name": "getRegDAOParameterStorage",
      "outputs": [
        {
          "internalType": "address",
          "name": "",
          "type": "address"
        }
      ],
      "stateMutability": "view",
      "type": "function"
    },
    {
      "inputs": [],
      "name": "getRegistryContractAddresses",
      "outputs": [
        {
          "components": [
            {
              "internalType": "string",
              "name": "name",
              "type": "string"
            },
            {
              "internalType": "address",
              "name": "address_",
              "type": "address"
            }
          ],
          "internalType": "struct IDAORegistry.RegistryEntry[]",
          "name": "entries_",
          "type": "tuple[]"
        }
      ],
      "stateMutability": "view",
      "type": "function"
    },
    {
      "inputs": [],
      "name": "getResource",
      "outputs": [
        {
          "internalType": "string",
          "name": "",
          "type": "string"
        }
      ],
      "stateMutability": "view",
      "type": "function"
    },
    {
      "inputs": [],
      "name": "getVotingFactory",
      "outputs": [
        {
          "internalType": "address",
          "name": "",
          "type": "address"
        }
      ],
      "stateMutability": "view",
      "type": "function"
    },
    {
      "inputs": [],
      "name": "getVotingRegistry",
      "outputs": [
        {
          "internalType": "address",
          "name": "",
          "type": "address"
        }
      ],
      "stateMutability": "view",
      "type": "function"
    },
    {
      "inputs": [
        {
          "internalType": "string",
          "name": "name_",
          "type": "string"
        }
      ],
      "name": "hasContract",
      "outputs": [
        {
          "internalType": "bool",
          "name": "",
          "type": "bool"
        }
      ],
      "stateMutability": "view",
      "type": "function"
    },
    {
      "inputs": [
        {
          "internalType": "string",
          "name": "name_",
          "type": "string"
        }
      ],
      "name": "injectDependencies",
      "outputs": [],
      "stateMutability": "nonpayable",
      "type": "function"
    },
    {
      "inputs": [],
      "name": "isAbleToAddPanel",
      "outputs": [
        {
          "internalType": "bool",
          "name": "",
          "type": "bool"
        }
      ],
      "stateMutability": "view",
      "type": "function"
    },
    {
      "inputs": [
        {
          "internalType": "string",
          "name": "name_",
          "type": "string"
        },
        {
          "internalType": "address",
          "name": "contractAddress_",
          "type": "address"
        }
      ],
      "name": "justAddProxyContract",
      "outputs": [],
      "stateMutability": "nonpayable",
      "type": "function"
    },
    {
      "inputs": [
        {
          "internalType": "bytes[]",
          "name": "data",
          "type": "bytes[]"
        }
      ],
      "name": "multicall",
      "outputs": [
        {
          "internalType": "bytes[]",
          "name": "results",
          "type": "bytes[]"
        }
      ],
      "stateMutability": "nonpayable",
      "type": "function"
    },
    {
      "inputs": [],
      "name": "permissionManager",
      "outputs": [
        {
          "internalType": "contract PermissionManager",
          "name": "",
          "type": "address"
        }
      ],
      "stateMutability": "view",
      "type": "function"
    },
    {
      "inputs": [
        {
          "internalType": "string",
          "name": "name_",
          "type": "string"
        }
      ],
      "name": "removeContract",
      "outputs": [],
      "stateMutability": "nonpayable",
      "type": "function"
    },
    {
      "inputs": [
        {
          "internalType": "string",
          "name": "panelName_",
          "type": "string"
        }
      ],
      "name": "removePanel",
      "outputs": [],
      "stateMutability": "nonpayable",
      "type": "function"
    },
    {
      "inputs": [
        {
          "internalType": "string",
          "name": "daoURI_",
          "type": "string"
        }
      ],
      "name": "setDAOMetadata",
      "outputs": [],
      "stateMutability": "nonpayable",
      "type": "function"
    },
    {
      "inputs": [
        {
          "internalType": "string",
          "name": "name_",
          "type": "string"
        },
        {
          "internalType": "address",
          "name": "newImplementation_",
          "type": "address"
        }
      ],
      "name": "upgradeContract",
      "outputs": [],
      "stateMutability": "nonpayable",
      "type": "function"
    },
    {
      "inputs": [
        {
          "internalType": "string",
          "name": "name_",
          "type": "string"
        },
        {
          "internalType": "address",
          "name": "newImplementation_",
          "type": "address"
        },
        {
          "internalType": "bytes",
          "name": "data_",
          "type": "bytes"
        }
      ],
      "name": "upgradeContractAndCall",
      "outputs": [],
      "stateMutability": "nonpayable",
      "type": "function"
    }
  ],
  "bytecode": "0x608060405234801561001057600080fd5b50614cb7806100206000396000f3fe60806040523480156200001157600080fd5b5060043610620002315760003560e01c80638133b93a1162000131578063bb65dc8311620000bb578063d10611fc1162000086578063d10611fc14620004c5578063d8ad4e1c14620004d7578063db590a6114620004ee578063e0e084f81462000505578063e4523aef146200051c57600080fd5b8063bb65dc831462000479578063bdda65e91462000483578063bf5b6016146200049a578063cc7a204914620004b157600080fd5b80639a06df5011620000fc5780639a06df50146200041b578063ab22f0eb1462000425578063ac9650d8146200043c578063afb2f2e8146200046257600080fd5b80638133b93a14620003b05780638c22360114620003d657806397623b5814620003ed578063977d1e18146200040457600080fd5b80634c12ce5711620001bf5780636bbe8694116200018a5780636bbe869414620003605780637019d39114620003775780637034731b14620003815780637444a137146200038b5780637d35a62f14620003a657600080fd5b80634c12ce57146200030457806351dad82c146200031b57806365ab609014620003325780636b683896146200034957600080fd5b80631d46d13111620002005780631d46d13114620002a457806334c9e96214620002bd5780633581777314620002d45780633e4beca114620002eb57600080fd5b806301d1290914620002365780631271bd53146200026a5780631adad8cf14620002835780631af6c064146200029a575b600080fd5b6200024d6200024736600462002b10565b62000535565b6040516001600160a01b0390911681526020015b60405180910390f35b620002816200027b36600462002ba9565b62000577565b005b620002816200029436600462002c05565b620005e8565b6200024d62000656565b620002ae62000689565b60405162000261919062002c9e565b62000281620002ce36600462002c05565b620007aa565b6200024d620002e536600462002b10565b620008bd565b620002f56200090d565b60405162000261919062002d21565b6200024d6200031536600462002b10565b620009a3565b620002816200032c36600462002ba9565b620009db565b6200024d6200034336600462002b10565b62000a33565b6200024d6200035a36600462002b10565b62000a7a565b620002816200037136600462002d36565b62000b7d565b6200024d62000c24565b620002f562000c5c565b6200039562000cf6565b604051901515815260200162000261565b6200024d62000df8565b620003c7620003c136600462002dc3565b62000e2f565b60405162000261919062002e39565b62000395620003e736600462002b10565b620011e6565b62000281620003fe36600462002c05565b62001225565b620002816200041536600462002c05565b6200128f565b6200024d62001308565b620002816200043636600462002ea7565b62001343565b620004536200044d36600462002f73565b620015b6565b60405162000261919062002fec565b620002816200047336600462002c05565b620016bd565b620002f5620017c1565b6200024d6200049436600462002b10565b620017d2565b62000281620004ab36600462002ba9565b62001819565b6006546200024d906001600160a01b031681565b6002546001600160a01b03166200024d565b62000395620004e836600462003052565b62001826565b6200024d620004ff36600462002b10565b620018a2565b620002816200051636600462002ba9565b620018da565b62000526620018e7565b604051620002619190620030a7565b600062000571620002e56040518060400160405280601281526020017144414f5f4d454d4245525f53544f5241474560701b81525084620018f5565b92915050565b620005a06040518060400160405280600681526020016555504441544560d01b81525062001923565b620005e383838080601f016020809104026020016040519081016040528093929190818152602001838380828437600092019190915250859250620019bc915050565b505050565b620006116040518060400160405280600681526020016543524541544560d01b81525062001923565b6200065282828080601f016020809104026020016040519081016040528093929190818152602001838380828437600092019190915250620019d892505050565b5050565b60006200068460405180604001604052806009815260200168111053d7d59055531560ba1b815250620008bd565b905090565b60606000620006996009620019f3565b905080516001600160401b03811115620006b757620006b762002a16565b604051908082528060200260200182016040528015620006ff57816020015b604080518082019091526060815260006020820152815260200190600190039081620006d65790505b50915060005b8151811015620007a55760405180604001604052808383815181106200072f576200072f620030bc565b6020026020010151815260200162000763848481518110620007555762000755620030bc565b6020026020010151620008bd565b6001600160a01b0316815250838281518110620007845762000784620030bc565b602002602001018190525080806200079c90620030e8565b91505062000705565b505090565b620007d36040518060400160405280600681526020016543524541544560d01b81525062001923565b6200081882828080601f01602080910402602001604051908101604052809392919081815260200183838082843760009201919091525060079392505062001ada9050565b6200087f5760405162461bcd60e51b815260206004820152602c60248201527f44414f52656769737472793a2070616e656c20616c726561647920657869737460448201526b7320696e207468652044414f60a01b60648201526084015b60405180910390fd5b7e3b4a8fbf1e09fe14725a89179d30ef1821abca15dacbecd26cae2ffba25a098282604051620008b19291906200312d565b60405180910390a15050565b600080600383604051620008d2919062003143565b908152604051908190036020019020546001600160a01b0316905080620005715760405162461bcd60e51b8152600401620008769062003161565b600580546200091c90620031ae565b80601f01602080910402602001604051908101604052809291908181526020018280546200094a90620031ae565b80156200099b5780601f106200096f576101008083540402835291602001916200099b565b820191906000526020600020905b8154815290600101906020018083116200097d57829003601f168201915b505050505081565b600062000571620002e56040518060400160405280600e81526020016d455850455254535f564f54494e4760901b81525084620018f5565b620009e883838362001b45565b62000a2d83838080601f01602080910402602001604051908101604052809392919081815260200183838082843760009201919091525060099392505062001ada9050565b50505050565b600062000571620002e56040518060400160405280601a81526020017f44414f5f434f4e465f504152414d455445525f53544f5241474500000000000081525084620018f5565b60008060038360405162000a8f919062003143565b908152604051908190036020019020546001600160a01b031690508062000aca5760405162461bcd60e51b8152600401620008769062003161565b6001600160a01b03811660009081526004602052604090205460ff1662000b055760405162461bcd60e51b81526004016200087690620031ea565b600254604051630ad6396560e11b81526001600160a01b038381166004830152909116906315ac72ca90602401602060405180830381865afa15801562000b50573d6000803e3d6000fd5b505050506040513d601f19601f8201168201806040525081019062000b76919062003231565b9392505050565b62000ba66040518060400160405280600681526020016555504441544560d01b81525062001923565b62000c1d85858080601f01602080910402602001604051908101604052809392919081815260200183838082843760009201919091525050604080516020601f88018190048102820181019092528681528893509150869086908190840183828082843760009201919091525062001bb192505050565b5050505050565b6000620006846040518060400160405280601381526020017244414f5f564f54494e475f524547495354525960681b815250620008bd565b60606001805462000c6d90620031ae565b80601f016020809104026020016040519081016040528092919081815260200182805462000c9b90620031ae565b801562000cec5780601f1062000cc05761010080835404028352916020019162000cec565b820191906000526020600020905b81548152906001019060200180831162000cce57829003601f168201915b5050505050905090565b60008062000d2c6040518060400160405280601081526020016f2220a7902a37b5b2b7102437b63232b960811b81525062000a33565b604080518082018252601b81527f636f6e737469747574696f6e2e6d617850616e656c50657244414f000000000060208201529051632591ac6b60e21b815291925060009162000de3916001600160a01b03851691639646b1ac9162000d959160040162002d21565b600060405180830381865afa15801562000db3573d6000803e3d6000fd5b505050506040513d6000823e601f3d908101601f1916820160405262000ddd91908101906200329c565b62001ce6565b90508062000df060075490565b109250505090565b6000620006846040518060400160405280601281526020017144414f5f564f54494e475f464143544f525960701b815250620008bd565b6040805180820190915260608082526020820152600062000e516007620019f3565b905060008151600162000e65919062003375565b6001600160401b0381111562000e7f5762000e7f62002a16565b60405190808252806020026020018201604052801562000eb457816020015b606081526020019060019003908162000e9e5790505b50905060008251600162000ec9919062003375565b6001600160401b0381111562000ee35762000ee362002a16565b60405190808252806020026020018201604052801562000f0d578160200160208202803683370190505b5090506040518060400160405280601081526020016f2220a7902a37b5b2b7102437b63232b960811b8152508260008151811062000f4f5762000f4f620030bc565b60209081029190910181019190915260065460408051808201825260088152672b27aa22afa327a960c11b9381019390935251633ca8e36d60e11b81526001600160a01b0390911691637951c6da9162000fb2918991600591906004016200338b565b602060405180830381865afa15801562000fd0573d6000803e3d6000fd5b505050506040513d601f19601f8201168201806040525081019062000ff6919062003443565b816000815181106200100c576200100c620030bc565b9115156020928302919091019091015260005b8351811015620011d75762001050848281518110620010425762001042620030bc565b602002602001015162001d05565b600081518110620010655762001065620030bc565b6020026020010151838260016200107d919062003375565b81518110620010905762001090620030bc565b6020026020010181905250600660009054906101000a90046001600160a01b03166001600160a01b0316637951c6da876200110e6040518060400160405280600e81526020016d455850455254535f564f54494e4760901b815250888681518110620011005762001100620030bc565b6020026020010151620018f5565b6040518060400160405280600681526020016511561411549560d21b8152506040518463ffffffff1660e01b81526004016200114d9392919062003467565b602060405180830381865afa1580156200116b573d6000803e3d6000fd5b505050506040513d601f19601f8201168201806040525081019062001191919062003443565b826200119f83600162003375565b81518110620011b257620011b2620030bc565b9115156020928302919091019091015280620011ce81620030e8565b9150506200101f565b50908352602083015250919050565b6000806001600160a01b031660038360405162001204919062003143565b908152604051908190036020019020546001600160a01b0316141592915050565b6200124e6040518060400160405280600681526020016544454c45544560d01b81525062001923565b6200065282828080601f01602080910402602001604051908101604052809392919081815260200183838082843760009201919091525062001d4192505050565b620012c5604051806040016040528060138152602001724348414e47455f44414f5f4d4554414441544160681b81525062001923565b6001620012d4828483620034f3565b507f8e8c91427e9a9cdace71730e2a332d5bb800a30d3fbe20c2685cc32f28c1f9f98282604051620008b19291906200312d565b600062000684604051806040016040528060168152602001752220a7afa822a926a4a9a9a4a7a72fa6a0a720a3a2a960511b815250620008bd565b600054610100900460ff1615808015620013645750600054600160ff909116105b80620013805750303b15801562001380575060005460ff166001145b620013e55760405162461bcd60e51b815260206004820152602e60248201527f496e697469616c697a61626c653a20636f6e747261637420697320616c72656160448201526d191e481a5b9a5d1a585b1a5e995960921b606482015260840162000876565b6000805460ff19166001179055801562001409576000805461ff0019166101001790555b620014148962001e0f565b6200145583838080601f01602080910402602001604051908101604052809392919081815260200183838082843760009201919091525062001e7d92505050565b6200145f62001308565b600680546001600160a01b0319166001600160a01b039290921691821790556040805180820190915260168152752220a7afa822a926a4a9a9a4a7a72fa6a0a720a3a2a960511b6020820152600091620014ba919062001eb5565b90506005620014cb868883620034f3565b50600654604051631537306d60e31b81526001600160a01b039091169063a9b9836890620015069030908d9086908e908e90600401620035bf565b600060405180830381600087803b1580156200152157600080fd5b505af115801562001536573d6000803e3d6000fd5b50506040517f5daa87a0e9463431830481fd4b6e3403442dfb9a12b9c07597e9f61d50b633c8925060009150a1508015620015ab576000805461ff0019169055604051600181527f7f26b83ff96e1f2b6a682f133852f6798a09c465da95921460cefb38474024989060200160405180910390a15b505050505050505050565b6060816001600160401b03811115620015d357620015d362002a16565b6040519080825280602002602001820160405280156200160857816020015b6060815260200190600190039081620015f25790505b50905060005b82811015620016b6576200168030858584818110620016315762001631620030bc565b90506020028101906200164591906200360e565b8080601f01602080910402602001604051908101604052809392919081815260200183838082843760009201919091525062001ee192505050565b828281518110620016955762001695620030bc565b60200260200101819052508080620016ad90620030e8565b9150506200160e565b5092915050565b620016e66040518060400160405280600681526020016544454c45544560d01b81525062001923565b6200172b82828080601f01602080910402602001604051908101604052809392919081815260200183838082843760009201919091525060079392505062001f099050565b6200178e5760405162461bcd60e51b815260206004820152602c60248201527f44414f52656769737472793a2070616e656c20646f6573206e6f74206578697360448201526b7420696e207468652044414f60a01b606482015260840162000876565b7f9e446cf6b11f8fe66bb176efaebf9567c993e6b580a0dbcb7112893ff0fee3a58282604051620008b19291906200312d565b60606005805462000c6d90620031ae565b600062000571620002e56040518060400160405280601981526020017f44414f5f5245475f504152414d455445525f53544f524147450000000000000081525084620018f5565b620009e8838383620020eb565b600654604051633ca8e36d60e11b81526000916001600160a01b031690637951c6da906200185e90869060059087906004016200338b565b602060405180830381865afa1580156200187c573d6000803e3d6000fd5b505050506040513d601f19601f8201168201806040525081019062000b76919062003443565b600062000571620002e56040518060400160405280600e81526020016d47454e4552414c5f564f54494e4760901b81525084620018f5565b620009e883838362002157565b6060620006846007620019f3565b606082826040516020016200190c92919062003657565b604051602081830303815290604052905092915050565b6200192f338262001826565b620019b95760405162461bcd60e51b815260206004820152604d60248201527f5b5147444b2d3030363030305d2d5468652073656e646572206973206e6f742060448201527f616c6c6f77656420746f20706572666f726d2074686520616374696f6e2c206160648201526c31b1b2b9b9903232b734b2b21760991b608482015260a40162000876565b50565b6200065282826040518060200160405280600081525062001bb1565b620019b98160405180602001604052806000815250620021c3565b606081600001805480602002602001604051908101604052809291908181526020016000905b8282101562001acf57838290600052602060002001805462001a3b90620031ae565b80601f016020809104026020016040519081016040528092919081815260200182805462001a6990620031ae565b801562001aba5780601f1062001a8e5761010080835404028352916020019162001aba565b820191906000526020600020905b81548152906001019060200180831162001a9c57829003601f168201915b50505050508152602001906001019062001a19565b505050509050919050565b600062001ae883836200227e565b62001b3c5782546001810184556000848152602090200162001b0b838262003697565b508254604051600185019062001b2390859062003143565b9081526040519081900360200190205550600162000571565b50600062000571565b62001b6e6040518060400160405280600681526020016543524541544560d01b81525062001923565b620005e383838080601f016020809104026020016040519081016040528093929190818152602001838380828437600092019190915250859250620022ad915050565b600060038460405162001bc5919062003143565b908152604051908190036020019020546001600160a01b031690508062001c005760405162461bcd60e51b8152600401620008769062003161565b6001600160a01b03811660009081526004602052604090205460ff1662001c3b5760405162461bcd60e51b81526004016200087690620031ea565b60025460405163a745e3df60e01b81526001600160a01b039091169063a745e3df9062001c719084908790879060040162003763565b600060405180830381600087803b15801562001c8c57600080fd5b505af115801562001ca1573d6000803e3d6000fd5b505050507f0ade5313c9e16e7e06de9ab0edde476cc9a6fd51b973b8685c6c5026028a39d2848460405162001cd89291906200379a565b60405180910390a150505050565b600062001cf5826002620023cc565b81602001516200057190620037c6565b60606200057160405180602001604052808460405160200162001d299190620037eb565b60405160208183030381529060405281525062002425565b600060038260405162001d55919062003143565b908152604051908190036020019020546001600160a01b031690508062001d905760405162461bcd60e51b8152600401620008769062003161565b6001600160a01b03811660009081526004602052604090819020805460ff191690555160039062001dc390849062003143565b90815260405190819003602001812080546001600160a01b03191690557f0c4eafbc12ea2584eb34031bf52952af5909a5880ef4058cb05c627ae39ffda090620008b190849062002d21565b600054610100900460ff1662001e395760405162461bcd60e51b815260040162000876906200381e565b62001e436200247d565b620019b9604051806040016040528060168152602001752220a7afa822a926a4a9a9a4a7a72fa6a0a720a3a2a960511b81525082620024f5565b600054610100900460ff1662001ea75760405162461bcd60e51b815260040162000876906200381e565b600162000652828262003697565b60608262001ece6001600160a01b038416601462002511565b6040516020016200190c92919062003657565b606062000b76838360405180606001604052806027815260200162004c5b60279139620026ca565b600080836001018360405162001f20919062003143565b908152602001604051809103902054905080600014620020e057600062001f4960018362003869565b855490915060009062001f5f9060019062003869565b90508181146200207957600086600001828154811062001f835762001f83620030bc565b90600052602060002001805462001f9a90620031ae565b80601f016020809104026020016040519081016040528092919081815260200182805462001fc890620031ae565b8015620020195780601f1062001fed5761010080835404028352916020019162002019565b820191906000526020600020905b81548152906001019060200180831162001ffb57829003601f168201915b5050505050905080876000018481548110620020395762002039620030bc565b90600052602060002001908162002051919062003697565b5083876001018260405162002067919062003143565b90815260405190819003602001902055505b85548690806200208d576200208d6200387f565b600190038181906000526020600020016000620020ab9190620029a0565b90558560010185604051620020c1919062003143565b9081526020016040518091039020600090556001935050505062000571565b600091505062000571565b620021146040518060400160405280600681526020016543524541544560d01b81525062001923565b620005e383838080601f01602080910402602001604051908101604052809392919081815260200183838082843760009201919091525085925062002748915050565b620021806040518060400160405280600681526020016543524541544560d01b81525062001923565b620005e383838080601f016020809104026020016040519081016040528093929190818152602001838380828437600092019190915250859250620024f5915050565b6000600383604051620021d7919062003143565b908152604051908190036020019020546001600160a01b0316905080620022125760405162461bcd60e51b8152600401620008769062003161565b604051636913045160e01b815281906001600160a01b0382169063691304519062002244903090879060040162003895565b600060405180830381600087803b1580156200225f57600080fd5b505af115801562002274573d6000803e3d6000fd5b5050505050505050565b6000826001018260405162002294919062003143565b9081526040519081900360200190205415159392505050565b6001600160a01b038116620022d65760405162461bcd60e51b81526004016200087690620038bb565b80600383604051620022e9919062003143565b908152604080516020928190038301812080546001600160a01b0319166001600160a01b03958616179055848416600081815260049485905292909220805460ff19166001179055600254630ad6396560e11b8252928101919091527f10e75df11debcdd8425769babc76babb1b082c13be22ba626bfc8e6de393c4c592859285929116906315ac72ca90602401602060405180830381865afa15801562002395573d6000803e3d6000fd5b505050506040513d601f19601f82011682018060405250810190620023bb919062003231565b604051620008b19392919062003907565b806005811115620023e157620023e16200393c565b82604001516005811115620023fa57620023fa6200393c565b1462000652578151604080840151905163381af4c560e11b8152620008769291849160040162003975565b604080516001808252818301909252606091816020015b60608152602001906001900390816200243c575050825181519192509082906000906200246d576200246d620030bc565b6020026020010181905250919050565b600054610100900460ff16620024a75760405162461bcd60e51b815260040162000876906200381e565b604051620024b590620029df565b604051809103906000f080158015620024d2573d6000803e3d6000fd5b50600280546001600160a01b0319166001600160a01b0392909216919091179055565b62000652828260405180602001604052806000815250620027e5565b6060600062002522836002620039aa565b6200252f90600262003375565b6001600160401b0381111562002549576200254962002a16565b6040519080825280601f01601f19166020018201604052801562002574576020820181803683370190505b509050600360fc1b81600081518110620025925762002592620030bc565b60200101906001600160f81b031916908160001a905350600f60fb1b81600181518110620025c457620025c4620030bc565b60200101906001600160f81b031916908160001a9053506000620025ea846002620039aa565b620025f790600162003375565b90505b600181111562002679576f181899199a1a9b1b9c1cb0b131b232b360811b85600f16601081106200262f576200262f620030bc565b1a60f81b828281518110620026485762002648620030bc565b60200101906001600160f81b031916908160001a90535060049490941c936200267181620039c4565b9050620025fa565b50831562000b765760405162461bcd60e51b815260206004820181905260248201527f537472696e67733a20686578206c656e67746820696e73756666696369656e74604482015260640162000876565b6060600080856001600160a01b031685604051620026e9919062003143565b600060405180830381855af49150503d806000811462002726576040519150601f19603f3d011682016040523d82523d6000602084013e6200272b565b606091505b50915091506200273e86838387620028eb565b9695505050505050565b6001600160a01b038116620027715760405162461bcd60e51b81526004016200087690620038bb565b8060038360405162002784919062003143565b90815260405190819003602001812080546001600160a01b03939093166001600160a01b0319909316929092179091557f8b4ef7d4e5bc8f098e6f637ac0acf4aee47b3f027efea6307264b06b4bc9d29890620008b190849084906200379a565b6001600160a01b0382166200280e5760405162461bcd60e51b81526004016200087690620038bb565b60025460405160009184916001600160a01b039091169084906200283290620029ed565b620028409392919062003763565b604051809103906000f0801580156200285d573d6000803e3d6000fd5b5090508060038560405162002873919062003143565b908152604080516020928190038301812080546001600160a01b0319166001600160a01b03958616179055928416600090815260049092529020805460ff191660011790557f10e75df11debcdd8425769babc76babb1b082c13be22ba626bfc8e6de393c4c59062001cd89086908490879062003907565b606083156200295f57825160000362002957576001600160a01b0385163b620029575760405162461bcd60e51b815260206004820152601d60248201527f416464726573733a2063616c6c20746f206e6f6e2d636f6e7472616374000000604482015260640162000876565b50816200296b565b6200296b838362002973565b949350505050565b815115620029845781518083602001fd5b8060405162461bcd60e51b815260040162000876919062002d21565b508054620029ae90620031ae565b6000825580601f10620029bf575050565b601f016020900490600052602060002090810190620019b99190620029fb565b61044280620039df83390190565b610e3a8062003e2183390190565b5b8082111562002a125760008155600101620029fc565b5090565b634e487b7160e01b600052604160045260246000fd5b604051606081016001600160401b038111828210171562002a515762002a5162002a16565b60405290565b604051601f8201601f191681016001600160401b038111828210171562002a825762002a8262002a16565b604052919050565b60006001600160401b0382111562002aa65762002aa662002a16565b50601f01601f191660200190565b600082601f83011262002ac657600080fd5b813562002add62002ad78262002a8a565b62002a57565b81815284602083860101111562002af357600080fd5b816020850160208301376000918101602001919091529392505050565b60006020828403121562002b2357600080fd5b81356001600160401b0381111562002b3a57600080fd5b6200296b8482850162002ab4565b60008083601f84011262002b5b57600080fd5b5081356001600160401b0381111562002b7357600080fd5b60208301915083602082850101111562002b8c57600080fd5b9250929050565b6001600160a01b0381168114620019b957600080fd5b60008060006040848603121562002bbf57600080fd5b83356001600160401b0381111562002bd657600080fd5b62002be48682870162002b48565b909450925050602084013562002bfa8162002b93565b809150509250925092565b6000806020838503121562002c1957600080fd5b82356001600160401b0381111562002c3057600080fd5b62002c3e8582860162002b48565b90969095509350505050565b60005b8381101562002c6757818101518382015260200162002c4d565b50506000910152565b6000815180845262002c8a81602086016020860162002c4a565b601f01601f19169290920160200192915050565b60006020808301818452808551808352604092508286019150828160051b87010184880160005b8381101562002d1357888303603f190185528151805187855262002cec8886018262002c70565b918901516001600160a01b0316948901949094529487019492509086019060010162002cc5565b509098975050505050505050565b60208152600062000b76602083018462002c70565b60008060008060006060868803121562002d4f57600080fd5b85356001600160401b038082111562002d6757600080fd5b62002d7589838a0162002b48565b90975095506020880135915062002d8c8262002b93565b9093506040870135908082111562002da357600080fd5b5062002db28882890162002b48565b969995985093965092949392505050565b60006020828403121562002dd657600080fd5b813562000b768162002b93565b6000815180845260208085019450848260051b860182860160005b8581101562002e2c57838303895262002e1983835162002c70565b9885019892509084019060010162002dfe565b5090979650505050505050565b60006020808352835160408285015262002e57606085018262002de3565b85830151858203601f19016040870152805180835290840192506000918401905b8083101562002e9c5783511515825292840192600192909201919084019062002e78565b509695505050505050565b60008060008060008060008060a0898b03121562002ec457600080fd5b883562002ed18162002b93565b9750602089013562002ee38162002b93565b965060408901356001600160401b038082111562002f0057600080fd5b62002f0e8c838d0162002b48565b909850965060608b013591508082111562002f2857600080fd5b62002f368c838d0162002b48565b909650945060808b013591508082111562002f5057600080fd5b5062002f5f8b828c0162002b48565b999c989b5096995094979396929594505050565b6000806020838503121562002f8757600080fd5b82356001600160401b038082111562002f9f57600080fd5b818501915085601f83011262002fb457600080fd5b81358181111562002fc457600080fd5b8660208260051b850101111562002fda57600080fd5b60209290920196919550909350505050565b6000602080830181845280855180835260408601915060408160051b870101925083870160005b828110156200304557603f198886030184526200303285835162002c70565b9450928501929085019060010162003013565b5092979650505050505050565b600080604083850312156200306657600080fd5b8235620030738162002b93565b915060208301356001600160401b038111156200308f57600080fd5b6200309d8582860162002ab4565b9150509250929050565b60208152600062000b76602083018462002de3565b634e487b7160e01b600052603260045260246000fd5b634e487b7160e01b600052601160045260246000fd5b600060018201620030fd57620030fd620030d2565b5060010190565b81835281816020850137506000828201602090810191909152601f909101601f19169091010190565b6020815260006200296b60208301848662003104565b600082516200315781846020870162002c4a565b9190910192915050565b6020808252602d908201527f436f6e74726163747352656769737472793a2074686973206d617070696e672060408201526c191bd95cdb89dd08195e1a5cdd609a1b606082015260800190565b600181811c90821680620031c357607f821691505b602082108103620031e457634e487b7160e01b600052602260045260246000fd5b50919050565b60208082526027908201527f436f6e74726163747352656769737472793a206e6f7420612070726f787920636040820152661bdb9d1c9858dd60ca1b606082015260800190565b6000602082840312156200324457600080fd5b815162000b768162002b93565b60006200326262002ad78462002a8a565b90508281528383830111156200327757600080fd5b62000b7683602083018462002c4a565b8051600681106200329757600080fd5b919050565b600060208284031215620032af57600080fd5b81516001600160401b0380821115620032c757600080fd5b9083019060608286031215620032dc57600080fd5b620032e662002a2c565b825182811115620032f657600080fd5b8301601f810187136200330857600080fd5b620033198782516020840162003251565b8252506020830151828111156200332f57600080fd5b83019150601f820186136200334357600080fd5b620033548683516020850162003251565b6020820152620033676040840162003287565b604082015295945050505050565b80820180821115620005715762000571620030d2565b60018060a01b03841681526000602060608184015260008554620033af81620031ae565b8060608701526080600180841660008114620033d45760018114620033ef576200341f565b60ff1985168984015283151560051b8901830195506200341f565b8a6000528660002060005b85811015620034175781548b8201860152908301908801620033fa565b8a0184019650505b5050505050838103604085015262003438818662002c70565b979650505050505050565b6000602082840312156200345657600080fd5b8151801515811462000b7657600080fd5b6001600160a01b03841681526060602082018190526000906200348d9083018562002c70565b82810360408401526200273e818562002c70565b601f821115620005e357600081815260208120601f850160051c81016020861015620034ca5750805b601f850160051c820191505b81811015620034eb57828155600101620034d6565b505050505050565b6001600160401b038311156200350d576200350d62002a16565b62003525836200351e8354620031ae565b83620034a1565b6000601f8411600181146200355c5760008515620035435750838201355b600019600387901b1c1916600186901b17835562000c1d565b600083815260209020601f19861690835b828110156200358f57868501358255602094850194600190920191016200356d565b5086821015620035ad5760001960f88860031b161c19848701351681555b505060018560011b0183555050505050565b6001600160a01b03868116825285166020820152608060408201819052600090620035ed9083018662002c70565b82810360608401526200360281858762003104565b98975050505050505050565b6000808335601e198436030181126200362657600080fd5b8301803591506001600160401b038211156200364157600080fd5b60200191503681900382131562002b8c57600080fd5b600083516200366b81846020880162002c4a565b601d60f91b90830190815283516200368b81600184016020880162002c4a565b01600101949350505050565b81516001600160401b03811115620036b357620036b362002a16565b620036cb81620036c48454620031ae565b84620034a1565b602080601f831160018114620037035760008415620036ea5750858301515b600019600386901b1c1916600185901b178555620034eb565b600085815260208120601f198616915b82811015620037345788860151825594840194600190910190840162003713565b5085821015620037535787850151600019600388901b60f8161c191681555b5050505050600190811b01905550565b6001600160a01b03848116825283166020820152606060408201819052600090620037919083018462002c70565b95945050505050565b604081526000620037af604083018562002c70565b905060018060a01b03831660208301529392505050565b80516020808301519190811015620031e45760001960209190910360031b1b16919050565b682220a7a3b937bab81d60b91b8152600082516200381181600985016020870162002c4a565b9190910160090192915050565b6020808252602b908201527f496e697469616c697a61626c653a20636f6e7472616374206973206e6f74206960408201526a6e697469616c697a696e6760a81b606082015260800190565b81810381811115620005715762000571620030d2565b634e487b7160e01b600052603160045260246000fd5b6001600160a01b03831681526040602082018190526000906200296b9083018462002c70565b6020808252602c908201527f436f6e74726163747352656769737472793a207a65726f20616464726573732060408201526b34b9903337b93134b23232b760a11b606082015260800190565b6060815260006200391c606083018662002c70565b6001600160a01b0394851660208401529290931660409091015292915050565b634e487b7160e01b600052602160045260246000fd5b600681106200397157634e487b7160e01b600052602160045260246000fd5b9052565b6060815260006200398a606083018662002c70565b90506200399b602083018562003952565b6200296b604083018462003952565b8082028115828204841417620005715762000571620030d2565b600081620039d657620039d6620030d2565b50600019019056fe60a060405234801561001057600080fd5b5033608052608051610412610030600039600061023901526104126000f3fe608060405234801561001057600080fd5b50600436106100365760003560e01c806315ac72ca1461003b578063a745e3df1461006a575b600080fd5b61004e6100493660046102c9565b61007f565b6040516001600160a01b03909116815260200160405180910390f35b61007d6100783660046102ed565b610160565b005b6000610089610237565b600080836001600160a01b03166040516100ad90635c60da1b60e01b815260040190565b600060405180830381855afa9150503d80600081146100e8576040519150601f19603f3d011682016040523d82523d6000602084013e6100ed565b606091505b5091509150816101445760405162461bcd60e51b815260206004820152601a60248201527f50726f787955706772616465723a206e6f7420612070726f787900000000000060448201526064015b60405180910390fd5b80806020019051810190610158919061037f565b949350505050565b610168610237565b80156101d55760405163278f794360e11b81526001600160a01b03851690634f1ef2869061019e9086908690869060040161039c565b600060405180830381600087803b1580156101b857600080fd5b505af11580156101cc573d6000803e3d6000fd5b50505050610231565b604051631b2ce7f360e11b81526001600160a01b038481166004830152851690633659cfe690602401600060405180830381600087803b15801561021857600080fd5b505af115801561022c573d6000803e3d6000fd5b505050505b50505050565b7f00000000000000000000000000000000000000000000000000000000000000006001600160a01b031633146102af5760405162461bcd60e51b815260206004820152601b60248201527f50726f787955706772616465723a206e6f7420616e206f776e65720000000000604482015260640161013b565b565b6001600160a01b03811681146102c657600080fd5b50565b6000602082840312156102db57600080fd5b81356102e6816102b1565b9392505050565b6000806000806060858703121561030357600080fd5b843561030e816102b1565b9350602085013561031e816102b1565b9250604085013567ffffffffffffffff8082111561033b57600080fd5b818701915087601f83011261034f57600080fd5b81358181111561035e57600080fd5b88602082850101111561037057600080fd5b95989497505060200194505050565b60006020828403121561039157600080fd5b81516102e6816102b1565b6001600160a01b03841681526040602082018190528101829052818360608301376000818301606090810191909152601f909201601f191601019291505056fea2646970667358221220ee928ae699c47e2df6aa1d5983e68527bce5ba3500418675389c1e32f3aa140e64736f6c63430008130033608060405260405162000e3a38038062000e3a833981016040819052620000269162000424565b828162000036828260006200004d565b50620000449050826200007f565b50505062000557565b6200005883620000f1565b600082511180620000665750805b156200007a5762000078838362000133565b505b505050565b7f7e644d79422f17c01e4894b5f4f588d331ebfa28653d42ae832dc59e38c9798f620000c160008051602062000df3833981519152546001600160a01b031690565b604080516001600160a01b03928316815291841660208301520160405180910390a1620000ee8162000162565b50565b620000fc8162000200565b6040516001600160a01b038216907fbc7cd75a20ee27fd9adebab32041f755214dbc6bffa90cc0225b39da2e5c2d3b90600090a250565b60606200015b838360405180606001604052806027815260200162000e136027913962000297565b9392505050565b6001600160a01b038116620001cd5760405162461bcd60e51b815260206004820152602660248201527f455243313936373a206e65772061646d696e20697320746865207a65726f206160448201526564647265737360d01b60648201526084015b60405180910390fd5b8060008051602062000df38339815191525b80546001600160a01b0319166001600160a01b039290921691909117905550565b6001600160a01b0381163b6200026f5760405162461bcd60e51b815260206004820152602d60248201527f455243313936373a206e657720696d706c656d656e746174696f6e206973206e60448201526c1bdd08184818dbdb9d1c9858dd609a1b6064820152608401620001c4565b807f360894a13ba1a3210667c828492db98dca3e2076cc3735a920a3ca505d382bbc620001df565b6060600080856001600160a01b031685604051620002b6919062000504565b600060405180830381855af49150503d8060008114620002f3576040519150601f19603f3d011682016040523d82523d6000602084013e620002f8565b606091505b5090925090506200030c8683838762000316565b9695505050505050565b606083156200038a57825160000362000382576001600160a01b0385163b620003825760405162461bcd60e51b815260206004820152601d60248201527f416464726573733a2063616c6c20746f206e6f6e2d636f6e74726163740000006044820152606401620001c4565b508162000396565b6200039683836200039e565b949350505050565b815115620003af5781518083602001fd5b8060405162461bcd60e51b8152600401620001c4919062000522565b80516001600160a01b0381168114620003e357600080fd5b919050565b634e487b7160e01b600052604160045260246000fd5b60005b838110156200041b57818101518382015260200162000401565b50506000910152565b6000806000606084860312156200043a57600080fd5b6200044584620003cb565b92506200045560208501620003cb565b60408501519092506001600160401b03808211156200047357600080fd5b818601915086601f8301126200048857600080fd5b8151818111156200049d576200049d620003e8565b604051601f8201601f19908116603f01168101908382118183101715620004c857620004c8620003e8565b81604052828152896020848701011115620004e257600080fd5b620004f5836020830160208801620003fe565b80955050505050509250925092565b6000825162000518818460208701620003fe565b9190910192915050565b602081526000825180602084015262000543816040850160208701620003fe565b601f01601f19169190910160400192915050565b61088c80620005676000396000f3fe60806040523661001357610011610017565b005b6100115b61001f610169565b6001600160a01b0316330361015f5760606001600160e01b0319600035166364d3180d60e11b810161005a5761005361019c565b9150610157565b63587086bd60e11b6001600160e01b031982160161007a576100536101f3565b63070d7c6960e41b6001600160e01b031982160161009a57610053610239565b621eb96f60e61b6001600160e01b03198216016100b95761005361026a565b63a39f25e560e01b6001600160e01b03198216016100d9576100536102aa565b60405162461bcd60e51b815260206004820152604260248201527f5472616e73706172656e745570677261646561626c6550726f78793a2061646d60448201527f696e2063616e6e6f742066616c6c6261636b20746f2070726f78792074617267606482015261195d60f21b608482015260a4015b60405180910390fd5b815160208301f35b6101676102be565b565b60007fb53127684a568b3173ae13b9f8a6016e243e63b6e8ee1178d6a717850b5d61035b546001600160a01b0316919050565b60606101a66102ce565b60006101b53660048184610683565b8101906101c291906106c9565b90506101df816040518060200160405280600081525060006102d9565b505060408051602081019091526000815290565b60606000806102053660048184610683565b81019061021291906106fa565b91509150610222828260016102d9565b604051806020016040528060008152509250505090565b60606102436102ce565b60006102523660048184610683565b81019061025f91906106c9565b90506101df81610305565b60606102746102ce565b600061027e610169565b604080516001600160a01b03831660208201529192500160405160208183030381529060405291505090565b60606102b46102ce565b600061027e61035c565b6101676102c961035c565b61036b565b341561016757600080fd5b6102e28361038f565b6000825111806102ef5750805b15610300576102fe83836103cf565b505b505050565b7f7e644d79422f17c01e4894b5f4f588d331ebfa28653d42ae832dc59e38c9798f61032e610169565b604080516001600160a01b03928316815291841660208301520160405180910390a1610359816103fb565b50565b60006103666104a4565b905090565b3660008037600080366000845af43d6000803e80801561038a573d6000f35b3d6000fd5b610398816104cc565b6040516001600160a01b038216907fbc7cd75a20ee27fd9adebab32041f755214dbc6bffa90cc0225b39da2e5c2d3b90600090a250565b60606103f4838360405180606001604052806027815260200161083060279139610560565b9392505050565b6001600160a01b0381166104605760405162461bcd60e51b815260206004820152602660248201527f455243313936373a206e65772061646d696e20697320746865207a65726f206160448201526564647265737360d01b606482015260840161014e565b807fb53127684a568b3173ae13b9f8a6016e243e63b6e8ee1178d6a717850b5d61035b80546001600160a01b0319166001600160a01b039290921691909117905550565b60007f360894a13ba1a3210667c828492db98dca3e2076cc3735a920a3ca505d382bbc61018d565b6001600160a01b0381163b6105395760405162461bcd60e51b815260206004820152602d60248201527f455243313936373a206e657720696d706c656d656e746174696f6e206973206e60448201526c1bdd08184818dbdb9d1c9858dd609a1b606482015260840161014e565b807f360894a13ba1a3210667c828492db98dca3e2076cc3735a920a3ca505d382bbc610483565b6060600080856001600160a01b03168560405161057d91906107e0565b600060405180830381855af49150503d80600081146105b8576040519150601f19603f3d011682016040523d82523d6000602084013e6105bd565b606091505b50915091506105ce868383876105d8565b9695505050505050565b60608315610647578251600003610640576001600160a01b0385163b6106405760405162461bcd60e51b815260206004820152601d60248201527f416464726573733a2063616c6c20746f206e6f6e2d636f6e7472616374000000604482015260640161014e565b5081610651565b6106518383610659565b949350505050565b8151156106695781518083602001fd5b8060405162461bcd60e51b815260040161014e91906107fc565b6000808585111561069357600080fd5b838611156106a057600080fd5b5050820193919092039150565b80356001600160a01b03811681146106c457600080fd5b919050565b6000602082840312156106db57600080fd5b6103f4826106ad565b634e487b7160e01b600052604160045260246000fd5b6000806040838503121561070d57600080fd5b610716836106ad565b9150602083013567ffffffffffffffff8082111561073357600080fd5b818501915085601f83011261074757600080fd5b813581811115610759576107596106e4565b604051601f8201601f19908116603f01168101908382118183101715610781576107816106e4565b8160405282815288602084870101111561079a57600080fd5b8260208601602083013760006020848301015280955050505050509250929050565b60005b838110156107d75781810151838201526020016107bf565b50506000910152565b600082516107f28184602087016107bc565b9190910192915050565b602081526000825180602084015261081b8160408501602087016107bc565b601f01601f1916919091016040019291505056fe416464726573733a206c6f772d6c6576656c2064656c65676174652063616c6c206661696c6564a2646970667358221220152c1446ffc2688b7b5eb305e9dfa477d06ebf02e493aa13b2a4f5a7b9d0f4e364736f6c63430008130033b53127684a568b3173ae13b9f8a6016e243e63b6e8ee1178d6a717850b5d6103416464726573733a206c6f772d6c6576656c2064656c65676174652063616c6c206661696c6564416464726573733a206c6f772d6c6576656c2064656c65676174652063616c6c206661696c6564a26469706673582212209716f890cb6d3dc120f13a7fa4c63eae5827a713233df7063bf4d229d30d938a64736f6c63430008130033",
  "linkReferences": {},
  "deployedLinkReferences": {}
}