{
  "_format": "hh-sol-artifact-1",
  "contractName": "DAOMemberStorage",
  "sourceName": "@q-dev/gdk-contracts/DAO/DAOMemberStorage.sol",
  "abi": [
    {
      "anonymous": false,
      "inputs": [
        {
          "indexed": false,
          "internalType": "uint8",
          "name": "version",
          "type": "uint8"
        }
      ],
      "name": "Initialized",
      "type": "event"
    },
    {
      "anonymous": false,
      "inputs": [
        {
          "indexed": true,
          "internalType": "address",
          "name": "member",
          "type": "address"
        },
        {
          "indexed": false,
          "internalType": "string",
          "name": "group",
          "type": "string"
        }
      ],
      "name": "MemberAdded",
      "type": "event"
    },
    {
      "anonymous": false,
      "inputs": [
        {
          "indexed": true,
          "internalType": "address",
          "name": "member",
          "type": "address"
        },
        {
          "indexed": false,
          "internalType": "string",
          "name": "group",
          "type": "string"
        }
      ],
      "name": "MemberRemoved",
      "type": "event"
    },
    {
      "inputs": [],
      "name": "DAO_MEMBER_STORAGE_RESOURCE",
      "outputs": [
        {
          "internalType": "string",
          "name": "",
          "type": "string"
        }
      ],
      "stateMutability": "view",
      "type": "function"
    },
    {
      "inputs": [
        {
          "internalType": "string",
          "name": "targetPanel_",
          "type": "string"
        },
        {
          "internalType": "string",
          "name": "resource_",
          "type": "string"
        },
        {
          "internalType": "address[]",
          "name": "initMembers_",
          "type": "address[]"
        }
      ],
      "name": "__DAOMemberStorage_init",
      "outputs": [],
      "stateMutability": "nonpayable",
      "type": "function"
    },
    {
      "inputs": [
        {
          "internalType": "address",
          "name": "member_",
          "type": "address"
        }
      ],
      "name": "addMember",
      "outputs": [],
      "stateMutability": "nonpayable",
      "type": "function"
    },
    {
      "inputs": [
        {
          "internalType": "address",
          "name": "account_",
          "type": "address"
        },
        {
          "internalType": "string",
          "name": "permission_",
          "type": "string"
        }
      ],
      "name": "checkPermission",
      "outputs": [
        {
          "internalType": "bool",
          "name": "",
          "type": "bool"
        }
      ],
      "stateMutability": "view",
      "type": "function"
    },
    {
      "inputs": [],
      "name": "getGroup",
      "outputs": [
        {
          "internalType": "string[]",
          "name": "",
          "type": "string[]"
        }
      ],
      "stateMutability": "view",
      "type": "function"
    },
    {
      "inputs": [],
      "name": "getInjector",
      "outputs": [
        {
          "internalType": "address",
          "name": "injector_",
          "type": "address"
        }
      ],
      "stateMutability": "view",
      "type": "function"
    },
    {
      "inputs": [],
      "name": "getMembers",
      "outputs": [
        {
          "internalType": "address[]",
          "name": "",
          "type": "address[]"
        }
      ],
      "stateMutability": "view",
      "type": "function"
    },
    {
      "inputs": [],
      "name": "getMembersCount",
      "outputs": [
        {
          "internalType": "uint256",
          "name": "",
          "type": "uint256"
        }
      ],
      "stateMutability": "view",
      "type": "function"
    },
    {
      "inputs": [],
      "name": "getMessage",
      "outputs": [
        {
          "internalType": "string",
          "name": "",
          "type": "string"
        }
      ],
      "stateMutability": "view",
      "type": "function"
    },
    {
      "inputs": [],
      "name": "getMessageHash",
      "outputs": [
        {
          "internalType": "bytes32",
          "name": "",
          "type": "bytes32"
        }
      ],
      "stateMutability": "view",
      "type": "function"
    },
    {
      "inputs": [],
      "name": "getResource",
      "outputs": [
        {
          "internalType": "string",
          "name": "",
          "type": "string"
        }
      ],
      "stateMutability": "view",
      "type": "function"
    },
    {
      "inputs": [
        {
          "internalType": "address",
          "name": "member_",
          "type": "address"
        }
      ],
      "name": "isMember",
      "outputs": [
        {
          "internalType": "bool",
          "name": "",
          "type": "bool"
        }
      ],
      "stateMutability": "view",
      "type": "function"
    },
    {
      "inputs": [],
      "name": "permissionManager",
      "outputs": [
        {
          "internalType": "contract PermissionManager",
          "name": "",
          "type": "address"
        }
      ],
      "stateMutability": "view",
      "type": "function"
    },
    {
      "inputs": [
        {
          "internalType": "address",
          "name": "member_",
          "type": "address"
        }
      ],
      "name": "removeMember",
      "outputs": [],
      "stateMutability": "nonpayable",
      "type": "function"
    },
    {
      "inputs": [
        {
          "internalType": "address[]",
          "name": "members_",
          "type": "address[]"
        }
      ],
      "name": "removeMembers",
      "outputs": [],
      "stateMutability": "nonpayable",
      "type": "function"
    },
    {
      "inputs": [
        {
          "internalType": "address",
          "name": "registryAddress_",
          "type": "address"
        },
        {
          "internalType": "bytes",
          "name": "",
          "type": "bytes"
        }
      ],
      "name": "setDependencies",
      "outputs": [],
      "stateMutability": "nonpayable",
      "type": "function"
    },
    {
      "inputs": [
        {
          "internalType": "address",
          "name": "injector_",
          "type": "address"
        }
      ],
      "name": "setInjector",
      "outputs": [],
      "stateMutability": "nonpayable",
      "type": "function"
    },
    {
      "inputs": [],
      "name": "targetPanel",
      "outputs": [
        {
          "internalType": "string",
          "name": "",
          "type": "string"
        }
      ],
      "stateMutability": "view",
      "type": "function"
    }
  ],
  "bytecode": "0x608060405234801561001057600080fd5b5061167f806100206000396000f3fe608060405234801561001057600080fd5b50600436106101165760003560e01c80639eab5253116100a2578063cc7a204911610071578063cc7a204914610232578063ce6d41de14610245578063d8ad4e1c1461024d578063e9ff965f14610260578063f06879571461026857600080fd5b80639eab5253146101df578063a230c524146101f4578063bb65dc8314610217578063ca6d56dc1461021f57600080fd5b80633e3b5b19116100e95780633e3b5b191461016857806346ee84b0146101915780634b79c074146101a457806369130451146101b95780638cb941cc146101cc57600080fd5b806309772f8f1461011b57806309914cba146101365780630b1ca49a1461014b5780633758b99614610160575b600080fd5b61012361027b565b6040519081526020015b60405180910390f35b61013e61028c565b60405161012d9190610e8d565b61015e610159366004610eb5565b61031a565b005b61012361034d565b60008051602061162a833981519152545b6040516001600160a01b03909116815260200161012d565b61015e61019f366004610ed2565b610382565b6101ac6103fa565b60405161012d9190610f9c565b61015e6101c736600461104e565b61048f565b61015e6101da366004610eb5565b610538565b6101e7610556565b60405161012d91906110b2565b610207610202366004610eb5565b610562565b604051901515815260200161012d565b61013e610575565b61015e61022d366004610eb5565b610607565b600354610179906001600160a01b031681565b61013e610641565b61020761025b36600461104e565b610669565b61013e6106e7565b61015e610276366004611148565b6106f4565b60006102876004610864565b905090565b600280546102999061124d565b80601f01602080910402602001604051908101604052809291908181526020018280546102c59061124d565b80156103125780601f106102e757610100808354040283529160200191610312565b820191906000526020600020905b8154815290600101906020018083116102f557829003601f168201915b505050505081565b6103416040518060400160405280600681526020016544454c45544560d01b81525061086e565b61034a81610900565b50565b6000610357610641565b6040516020016103679190611287565b60405160208183030381529060405280519060200120905090565b6103a96040518060400160405280600681526020016544454c45544560d01b81525061086e565b60005b818110156103f5576103e38383838181106103c9576103c96112a3565b90506020020160208101906103de9190610eb5565b610900565b806103ed816112cf565b9150506103ac565b505050565b60606102876002805461040c9061124d565b80601f01602080910402602001604051908101604052809291908181526020018280546104389061124d565b80156104855780601f1061045a57610100808354040283529160200191610485565b820191906000526020600020905b81548152906001019060200180831161046857829003601f168201915b50505050506109e2565b610497610a1a565b6000829050806001600160a01b0316639a06df506040518163ffffffff1660e01b8152600401602060405180830381865afa1580156104da573d6000803e3d6000fd5b505050506040513d601f19601f820116820180604052508101906104fe91906112e8565b600380546001600160a01b0319166001600160a01b0392909216919091179055503360008051602061162a833981519152555050565b5050565b610540610a1a565b61034a8160008051602061162a83398151915255565b60606102876004610a9e565b600061056f600483610aab565b92915050565b6060600180546105849061124d565b80601f01602080910402602001604051908101604052809291908181526020018280546105b09061124d565b80156105fd5780601f106105d2576101008083540402835291602001916105fd565b820191906000526020600020905b8154815290600101906020018083116105e057829003601f168201915b5050505050905090565b61062e6040518060400160405280600681526020016543524541544560d01b81525061086e565b8061063881610acd565b61053482610b60565b606060026040516020016106559190611305565b604051602081830303815290604052905090565b600354604051633ca8e36d60e11b81526000916001600160a01b031690637951c6da9061069f90869060019087906004016113c0565b602060405180830381865afa1580156106bc573d6000803e3d6000fd5b505050506040513d601f19601f820116820180604052508101906106e0919061146e565b9392505050565b600180546102999061124d565b600054610100900460ff16158080156107145750600054600160ff909116105b8061072e5750303b15801561072e575060005460ff166001145b6107965760405162461bcd60e51b815260206004820152602e60248201527f496e697469616c697a61626c653a20636f6e747261637420697320616c72656160448201526d191e481a5b9a5d1a585b1a5e995960921b60648201526084015b60405180910390fd5b6000805460ff1916600117905580156107b9576000805461ff0019166101001790555b60026107c68688836114d6565b5060016107d48486836114d6565b5060005b8251811015610815576108038382815181106107f6576107f66112a3565b6020026020010151610b60565b8061080d816112cf565b9150506107d8565b50801561085c576000805461ff0019169055604051600181527f7f26b83ff96e1f2b6a682f133852f6798a09c465da95921460cefb38474024989060200160405180910390a15b505050505050565b600061056f825490565b6108783382610669565b61034a5760405162461bcd60e51b815260206004820152604d60248201527f5b5147444b2d3030343030305d2d5468652073656e646572206973206e6f742060448201527f616c6c6f77656420746f20706572666f726d2074686520616374696f6e2c206160648201526c31b1b2b9b9903232b734b2b21760991b608482015260a40161078d565b61090b600482610c21565b50600061091e6002805461040c9061124d565b6003546040516326a6aa3560e21b81529192506001600160a01b031690639a9aa8d4906109519085908590600401611597565b600060405180830381600087803b15801561096b57600080fd5b505af115801561097f573d6000803e3d6000fd5b50505050816001600160a01b03167f969f49cd69e4049f144b7dd012d53b6ef9064eca8bca1f4b30162ab52e04f5c1826000815181106109c1576109c16112a3565b60200260200101516040516109d69190610e8d565b60405180910390a25050565b606061056f604051806020016040528084604051602001610a0391906115c3565b604051602081830303815290604052815250610c36565b6000610a3260008051602061162a8339815191525490565b90506001600160a01b0381161580610a5257506001600160a01b03811633145b61034a5760405162461bcd60e51b815260206004820152601a60248201527f446570656e64616e743a206e6f7420616e20696e6a6563746f72000000000000604482015260640161078d565b606060006106e083610c8a565b6001600160a01b038116600090815260018301602052604081205415156106e0565b6001600160a01b038116321461034a5760405162461bcd60e51b815260206004820152604c60248201527f5b5147444b2d3030343030315d2d5468652063616e6469646174652073686f7560448201527f6c6420626520746865206f6e652077686f20696e69746961746573207468652060648201526b3a3930b739b0b1ba34b7b71760a11b608482015260a40161078d565b610b6b600482610ce6565b506000610b7e6002805461040c9061124d565b600354604051637e6efea560e11b81529192506001600160a01b03169063fcddfd4a90610bb19085908590600401611597565b600060405180830381600087803b158015610bcb57600080fd5b505af1158015610bdf573d6000803e3d6000fd5b50505050816001600160a01b03167f5660dfedd5f2d238aa153a2c488e927eb29ea0e780d70089f0e90c7409a2079c826000815181106109c1576109c16112a3565b60006106e0836001600160a01b038416610cfb565b604080516001808252818301909252606091816020015b6060815260200190600190039081610c4d57505082518151919250908290600090610c7a57610c7a6112a3565b6020026020010181905250919050565b606081600001805480602002602001604051908101604052809291908181526020018280548015610cda57602002820191906000526020600020905b815481526020019060010190808311610cc6575b50505050509050919050565b60006106e0836001600160a01b038416610dee565b60008181526001830160205260408120548015610de4576000610d1f600183611600565b8554909150600090610d3390600190611600565b9050818114610d98576000866000018281548110610d5357610d536112a3565b9060005260206000200154905080876000018481548110610d7657610d766112a3565b6000918252602080832090910192909255918252600188019052604090208390555b8554869080610da957610da9611613565b60019003818190600052602060002001600090559055856001016000868152602001908152602001600020600090556001935050505061056f565b600091505061056f565b6000818152600183016020526040812054610e355750815460018181018455600084815260208082209093018490558454848252828601909352604090209190915561056f565b50600061056f565b60005b83811015610e58578181015183820152602001610e40565b50506000910152565b60008151808452610e79816020860160208601610e3d565b601f01601f19169290920160200192915050565b6020815260006106e06020830184610e61565b6001600160a01b038116811461034a57600080fd5b600060208284031215610ec757600080fd5b81356106e081610ea0565b60008060208385031215610ee557600080fd5b823567ffffffffffffffff80821115610efd57600080fd5b818501915085601f830112610f1157600080fd5b813581811115610f2057600080fd5b8660208260051b8501011115610f3557600080fd5b60209290920196919550909350505050565b600081518084526020808501808196508360051b8101915082860160005b85811015610f8f578284038952610f7d848351610e61565b98850198935090840190600101610f65565b5091979650505050505050565b6020815260006106e06020830184610f47565b634e487b7160e01b600052604160045260246000fd5b604051601f8201601f1916810167ffffffffffffffff81118282101715610fee57610fee610faf565b604052919050565b600067ffffffffffffffff83111561101057611010610faf565b611023601f8401601f1916602001610fc5565b905082815283838301111561103757600080fd5b828260208301376000602084830101529392505050565b6000806040838503121561106157600080fd5b823561106c81610ea0565b9150602083013567ffffffffffffffff81111561108857600080fd5b8301601f8101851361109957600080fd5b6110a885823560208401610ff6565b9150509250929050565b6020808252825182820181905260009190848201906040850190845b818110156110f35783516001600160a01b0316835292840192918401916001016110ce565b50909695505050505050565b60008083601f84011261111157600080fd5b50813567ffffffffffffffff81111561112957600080fd5b60208301915083602082850101111561114157600080fd5b9250929050565b60008060008060006060868803121561116057600080fd5b853567ffffffffffffffff8082111561117857600080fd5b61118489838a016110ff565b909750955060209150878201358181111561119e57600080fd5b6111aa8a828b016110ff565b9096509450506040880135818111156111c257600080fd5b8801601f81018a136111d357600080fd5b8035828111156111e5576111e5610faf565b8060051b92506111f6848401610fc5565b818152928201840192848101908c85111561121057600080fd5b928501925b8484101561123a578335925061122a83610ea0565b8282529285019290850190611215565b8096505050505050509295509295909350565b600181811c9082168061126157607f821691505b60208210810361128157634e487b7160e01b600052602260045260246000fd5b50919050565b60008251611299818460208701610e3d565b9190910192915050565b634e487b7160e01b600052603260045260246000fd5b634e487b7160e01b600052601160045260246000fd5b6000600182016112e1576112e16112b9565b5060010190565b6000602082840312156112fa57600080fd5b81516106e081610ea0565b7f492061636365707420746f206265636f6d652061206d656d626572206f66200081526000601f600084546113398161124d565b60018281168015611351576001811461136a5761139d565b60ff19841688870152821515830288018601945061139d565b8860005260208060002060005b858110156113925781548b82018a0152908401908201611377565b505050858389010194505b50506d1032bc3832b93a103830b732b61760911b83525050600e01949350505050565b60018060a01b038416815260006020606081840152600085546113e28161124d565b8060608701526080600180841660008114611404576001811461141e5761144c565b60ff1985168984015283151560051b89018301955061144c565b8a6000528660002060005b858110156114445781548b8201860152908301908801611429565b8a0184019650505b505050505083810360408501526114638186610e61565b979650505050505050565b60006020828403121561148057600080fd5b815180151581146106e057600080fd5b601f8211156103f557600081815260208120601f850160051c810160208610156114b75750805b601f850160051c820191505b8181101561085c578281556001016114c3565b67ffffffffffffffff8311156114ee576114ee610faf565b611502836114fc835461124d565b83611490565b6000601f841160018114611536576000851561151e5750838201355b600019600387901b1c1916600186901b178355611590565b600083815260209020601f19861690835b828110156115675786850135825560209485019460019092019101611547565b50868210156115845760001960f88860031b161c19848701351681555b505060018560011b0183555b5050505050565b6001600160a01b03831681526040602082018190526000906115bb90830184610f47565b949350505050565b742220a7a2bc3832b93a2b37ba34b733a3b937bab81d60591b8152600082516115f3816015850160208701610e3d565b9190910160150192915050565b8181038181111561056f5761056f6112b9565b634e487b7160e01b600052603160045260246000fdfe3d1f25f1ac447e55e7fec744471c4dab1c6a2b6ffb897825f9ea3d2e8c9be583a264697066735822122090b942bb8b2924a974d0602e017bb3d0fbd03aa4ed0b0b65eaa19dbb5a38c6a564736f6c63430008130033",
  "linkReferences": {},
  "deployedLinkReferences": {}
}