{
  "_format": "hh-sol-artifact-1",
  "contractName": "PermissionManager",
  "sourceName": "@q-dev/gdk-contracts/DAO/PermissionManager.sol",
  "abi": [
    {
      "anonymous": false,
      "inputs": [
        {
          "indexed": false,
          "internalType": "string",
          "name": "role",
          "type": "string"
        },
        {
          "indexed": false,
          "internalType": "string",
          "name": "resource",
          "type": "string"
        },
        {
          "indexed": false,
          "internalType": "string[]",
          "name": "permissionsToAdd",
          "type": "string[]"
        },
        {
          "indexed": false,
          "internalType": "bool",
          "name": "allowed",
          "type": "bool"
        }
      ],
      "name": "AddedPermissions",
      "type": "event"
    },
    {
      "anonymous": false,
      "inputs": [
        {
          "indexed": false,
          "internalType": "address",
          "name": "who",
          "type": "address"
        },
        {
          "indexed": false,
          "internalType": "string[]",
          "name": "groupsToAddTo",
          "type": "string[]"
        }
      ],
      "name": "AddedToGroups",
      "type": "event"
    },
    {
      "anonymous": false,
      "inputs": [
        {
          "indexed": false,
          "internalType": "string",
          "name": "groupTo",
          "type": "string"
        },
        {
          "indexed": false,
          "internalType": "string[]",
          "name": "rolesToGrant",
          "type": "string[]"
        }
      ],
      "name": "GrantedGroupRoles",
      "type": "event"
    },
    {
      "anonymous": false,
      "inputs": [
        {
          "indexed": false,
          "internalType": "address",
          "name": "to",
          "type": "address"
        },
        {
          "indexed": false,
          "internalType": "string[]",
          "name": "rolesToGrant",
          "type": "string[]"
        }
      ],
      "name": "GrantedRoles",
      "type": "event"
    },
    {
      "anonymous": false,
      "inputs": [
        {
          "indexed": false,
          "internalType": "uint8",
          "name": "version",
          "type": "uint8"
        }
      ],
      "name": "Initialized",
      "type": "event"
    },
    {
      "anonymous": false,
      "inputs": [
        {
          "indexed": false,
          "internalType": "address",
          "name": "target",
          "type": "address"
        },
        {
          "indexed": false,
          "internalType": "address",
          "name": "linkedMemberStorage",
          "type": "address"
        }
      ],
      "name": "LinkedStorageToVetoGroup",
      "type": "event"
    },
    {
      "anonymous": false,
      "inputs": [
        {
          "indexed": false,
          "internalType": "address",
          "name": "who",
          "type": "address"
        },
        {
          "indexed": false,
          "internalType": "string[]",
          "name": "groupsToRemoveFrom",
          "type": "string[]"
        }
      ],
      "name": "RemovedFromGroups",
      "type": "event"
    },
    {
      "anonymous": false,
      "inputs": [
        {
          "indexed": false,
          "internalType": "string",
          "name": "role",
          "type": "string"
        },
        {
          "indexed": false,
          "internalType": "string",
          "name": "resource",
          "type": "string"
        },
        {
          "indexed": false,
          "internalType": "string[]",
          "name": "permissionsToRemove",
          "type": "string[]"
        },
        {
          "indexed": false,
          "internalType": "bool",
          "name": "allowed",
          "type": "bool"
        }
      ],
      "name": "RemovedPermissions",
      "type": "event"
    },
    {
      "anonymous": false,
      "inputs": [
        {
          "indexed": false,
          "internalType": "string",
          "name": "groupFrom",
          "type": "string"
        },
        {
          "indexed": false,
          "internalType": "string[]",
          "name": "rolesToRevoke",
          "type": "string[]"
        }
      ],
      "name": "RevokedGroupRoles",
      "type": "event"
    },
    {
      "anonymous": false,
      "inputs": [
        {
          "indexed": false,
          "internalType": "address",
          "name": "from",
          "type": "address"
        },
        {
          "indexed": false,
          "internalType": "string[]",
          "name": "rolesToRevoke",
          "type": "string[]"
        }
      ],
      "name": "RevokedRoles",
      "type": "event"
    },
    {
      "anonymous": false,
      "inputs": [
        {
          "indexed": false,
          "internalType": "bool",
          "name": "defaultGroupEnabled",
          "type": "bool"
        }
      ],
      "name": "ToggledDefaultGroup",
      "type": "event"
    },
    {
      "anonymous": false,
      "inputs": [
        {
          "indexed": false,
          "internalType": "address",
          "name": "target",
          "type": "address"
        },
        {
          "indexed": false,
          "internalType": "address",
          "name": "linkedMemberStorage",
          "type": "address"
        }
      ],
      "name": "VetoGroupAdded",
      "type": "event"
    },
    {
      "anonymous": false,
      "inputs": [
        {
          "indexed": false,
          "internalType": "address",
          "name": "target",
          "type": "address"
        }
      ],
      "name": "VetoGroupRemoved",
      "type": "event"
    },
    {
      "inputs": [],
      "name": "ALL_PERMISSION",
      "outputs": [
        {
          "internalType": "string",
          "name": "",
          "type": "string"
        }
      ],
      "stateMutability": "view",
      "type": "function"
    },
    {
      "inputs": [],
      "name": "ALL_RESOURCE",
      "outputs": [
        {
          "internalType": "string",
          "name": "",
          "type": "string"
        }
      ],
      "stateMutability": "view",
      "type": "function"
    },
    {
      "inputs": [],
      "name": "CREATE_PERMISSION",
      "outputs": [
        {
          "internalType": "string",
          "name": "",
          "type": "string"
        }
      ],
      "stateMutability": "view",
      "type": "function"
    },
    {
      "inputs": [],
      "name": "DELETE_PERMISSION",
      "outputs": [
        {
          "internalType": "string",
          "name": "",
          "type": "string"
        }
      ],
      "stateMutability": "view",
      "type": "function"
    },
    {
      "inputs": [],
      "name": "MASTER_ROLE",
      "outputs": [
        {
          "internalType": "string",
          "name": "",
          "type": "string"
        }
      ],
      "stateMutability": "view",
      "type": "function"
    },
    {
      "inputs": [],
      "name": "PERMISSION_MANAGER_RESOURCE",
      "outputs": [
        {
          "internalType": "string",
          "name": "",
          "type": "string"
        }
      ],
      "stateMutability": "view",
      "type": "function"
    },
    {
      "inputs": [],
      "name": "RBAC_RESOURCE",
      "outputs": [
        {
          "internalType": "string",
          "name": "",
          "type": "string"
        }
      ],
      "stateMutability": "view",
      "type": "function"
    },
    {
      "inputs": [],
      "name": "READ_PERMISSION",
      "outputs": [
        {
          "internalType": "string",
          "name": "",
          "type": "string"
        }
      ],
      "stateMutability": "view",
      "type": "function"
    },
    {
      "inputs": [],
      "name": "UPDATE_PERMISSION",
      "outputs": [
        {
          "internalType": "string",
          "name": "",
          "type": "string"
        }
      ],
      "stateMutability": "view",
      "type": "function"
    },
    {
      "inputs": [
        {
          "internalType": "contract DAORegistry",
          "name": "dao_",
          "type": "address"
        },
        {
          "internalType": "address",
          "name": "master_",
          "type": "address"
        },
        {
          "internalType": "string",
          "name": "resource_",
          "type": "string"
        },
        {
          "internalType": "string",
          "name": "panelName_",
          "type": "string"
        }
      ],
      "name": "__PermissionManager_init",
      "outputs": [],
      "stateMutability": "nonpayable",
      "type": "function"
    },
    {
      "inputs": [
        {
          "internalType": "string",
          "name": "role_",
          "type": "string"
        },
        {
          "components": [
            {
              "internalType": "string",
              "name": "resource",
              "type": "string"
            },
            {
              "internalType": "string[]",
              "name": "permissions",
              "type": "string[]"
            }
          ],
          "internalType": "struct IRBAC.ResourceWithPermissions[]",
          "name": "permissionsToAdd_",
          "type": "tuple[]"
        },
        {
          "internalType": "bool",
          "name": "allowed_",
          "type": "bool"
        }
      ],
      "name": "addPermissionsToRole",
      "outputs": [],
      "stateMutability": "nonpayable",
      "type": "function"
    },
    {
      "inputs": [
        {
          "internalType": "address",
          "name": "who_",
          "type": "address"
        },
        {
          "internalType": "string[]",
          "name": "groupsToAddTo_",
          "type": "string[]"
        }
      ],
      "name": "addUserToGroups",
      "outputs": [],
      "stateMutability": "nonpayable",
      "type": "function"
    },
    {
      "inputs": [
        {
          "internalType": "address",
          "name": "target_",
          "type": "address"
        },
        {
          "internalType": "contract DAOMemberStorage",
          "name": "linkedMemberStorage_",
          "type": "address"
        }
      ],
      "name": "addVetoGroup",
      "outputs": [],
      "stateMutability": "nonpayable",
      "type": "function"
    },
    {
      "inputs": [
        {
          "components": [
            {
              "internalType": "address",
              "name": "target",
              "type": "address"
            },
            {
              "internalType": "contract DAOMemberStorage",
              "name": "linkedMemberStorage",
              "type": "address"
            }
          ],
          "internalType": "struct IPermissionManager.VetoGroup[]",
          "name": "vetoGroups_",
          "type": "tuple[]"
        }
      ],
      "name": "addVetoGroups",
      "outputs": [],
      "stateMutability": "nonpayable",
      "type": "function"
    },
    {
      "inputs": [
        {
          "internalType": "address",
          "name": "account_",
          "type": "address"
        },
        {
          "internalType": "string",
          "name": "permission_",
          "type": "string"
        }
      ],
      "name": "checkPermission",
      "outputs": [
        {
          "internalType": "bool",
          "name": "",
          "type": "bool"
        }
      ],
      "stateMutability": "view",
      "type": "function"
    },
    {
      "inputs": [
        {
          "internalType": "string",
          "name": "votingName_",
          "type": "string"
        },
        {
          "internalType": "string",
          "name": "panelName_",
          "type": "string"
        }
      ],
      "name": "confExpertsGroups",
      "outputs": [],
      "stateMutability": "nonpayable",
      "type": "function"
    },
    {
      "inputs": [
        {
          "internalType": "contract DAORegistry",
          "name": "dao_",
          "type": "address"
        },
        {
          "internalType": "string",
          "name": "moduleName_",
          "type": "string"
        }
      ],
      "name": "confExternalModule",
      "outputs": [],
      "stateMutability": "nonpayable",
      "type": "function"
    },
    {
      "inputs": [
        {
          "internalType": "contract DAORegistry",
          "name": "dao_",
          "type": "address"
        },
        {
          "internalType": "string",
          "name": "votingName_",
          "type": "string"
        },
        {
          "internalType": "string",
          "name": "panelName_",
          "type": "string"
        }
      ],
      "name": "confMemberGroup",
      "outputs": [],
      "stateMutability": "nonpayable",
      "type": "function"
    },
    {
      "inputs": [
        {
          "internalType": "contract DAORegistry",
          "name": "dao_",
          "type": "address"
        },
        {
          "internalType": "string",
          "name": "votingName_",
          "type": "string"
        },
        {
          "internalType": "address",
          "name": "voting_",
          "type": "address"
        },
        {
          "internalType": "string",
          "name": "panelName_",
          "type": "string"
        }
      ],
      "name": "confVotingModule",
      "outputs": [],
      "stateMutability": "nonpayable",
      "type": "function"
    },
    {
      "inputs": [],
      "name": "getDefaultGroupEnabled",
      "outputs": [
        {
          "internalType": "bool",
          "name": "defaultGroupEnabled_",
          "type": "bool"
        }
      ],
      "stateMutability": "view",
      "type": "function"
    },
    {
      "inputs": [],
      "name": "getExistingVetoGroupTargets",
      "outputs": [
        {
          "internalType": "address[]",
          "name": "",
          "type": "address[]"
        }
      ],
      "stateMutability": "view",
      "type": "function"
    },
    {
      "inputs": [
        {
          "internalType": "string",
          "name": "group_",
          "type": "string"
        }
      ],
      "name": "getGroupRoles",
      "outputs": [
        {
          "internalType": "string[]",
          "name": "roles_",
          "type": "string[]"
        }
      ],
      "stateMutability": "view",
      "type": "function"
    },
    {
      "inputs": [],
      "name": "getResource",
      "outputs": [
        {
          "internalType": "string",
          "name": "",
          "type": "string"
        }
      ],
      "stateMutability": "view",
      "type": "function"
    },
    {
      "inputs": [
        {
          "internalType": "string",
          "name": "role_",
          "type": "string"
        }
      ],
      "name": "getRolePermissions",
      "outputs": [
        {
          "components": [
            {
              "internalType": "string",
              "name": "resource",
              "type": "string"
            },
            {
              "internalType": "string[]",
              "name": "permissions",
              "type": "string[]"
            }
          ],
          "internalType": "struct IRBAC.ResourceWithPermissions[]",
          "name": "allowed_",
          "type": "tuple[]"
        },
        {
          "components": [
            {
              "internalType": "string",
              "name": "resource",
              "type": "string"
            },
            {
              "internalType": "string[]",
              "name": "permissions",
              "type": "string[]"
            }
          ],
          "internalType": "struct IRBAC.ResourceWithPermissions[]",
          "name": "disallowed_",
          "type": "tuple[]"
        }
      ],
      "stateMutability": "view",
      "type": "function"
    },
    {
      "inputs": [
        {
          "internalType": "address",
          "name": "who_",
          "type": "address"
        }
      ],
      "name": "getUserGroups",
      "outputs": [
        {
          "internalType": "string[]",
          "name": "groups_",
          "type": "string[]"
        }
      ],
      "stateMutability": "view",
      "type": "function"
    },
    {
      "inputs": [
        {
          "internalType": "address",
          "name": "who_",
          "type": "address"
        }
      ],
      "name": "getUserRoles",
      "outputs": [
        {
          "internalType": "string[]",
          "name": "roles_",
          "type": "string[]"
        }
      ],
      "stateMutability": "view",
      "type": "function"
    },
    {
      "inputs": [
        {
          "internalType": "address",
          "name": "target_",
          "type": "address"
        }
      ],
      "name": "getVetoGroupInfo",
      "outputs": [
        {
          "components": [
            {
              "internalType": "address",
              "name": "target",
              "type": "address"
            },
            {
              "internalType": "contract DAOMemberStorage",
              "name": "linkedMemberStorage",
              "type": "address"
            }
          ],
          "internalType": "struct IPermissionManager.VetoGroup",
          "name": "",
          "type": "tuple"
        }
      ],
      "stateMutability": "view",
      "type": "function"
    },
    {
      "inputs": [
        {
          "internalType": "address",
          "name": "target_",
          "type": "address"
        }
      ],
      "name": "getVetoGroupMembers",
      "outputs": [
        {
          "internalType": "address[]",
          "name": "",
          "type": "address[]"
        }
      ],
      "stateMutability": "view",
      "type": "function"
    },
    {
      "inputs": [
        {
          "internalType": "address",
          "name": "target_",
          "type": "address"
        }
      ],
      "name": "getVetoMembersCount",
      "outputs": [
        {
          "internalType": "uint256",
          "name": "",
          "type": "uint256"
        }
      ],
      "stateMutability": "view",
      "type": "function"
    },
    {
      "inputs": [
        {
          "internalType": "string",
          "name": "groupTo_",
          "type": "string"
        },
        {
          "internalType": "string[]",
          "name": "rolesToGrant_",
          "type": "string[]"
        }
      ],
      "name": "grantGroupRoles",
      "outputs": [],
      "stateMutability": "nonpayable",
      "type": "function"
    },
    {
      "inputs": [
        {
          "internalType": "address",
          "name": "to_",
          "type": "address"
        },
        {
          "internalType": "string[]",
          "name": "rolesToGrant_",
          "type": "string[]"
        }
      ],
      "name": "grantRoles",
      "outputs": [],
      "stateMutability": "nonpayable",
      "type": "function"
    },
    {
      "inputs": [
        {
          "internalType": "address",
          "name": "who_",
          "type": "address"
        },
        {
          "internalType": "string",
          "name": "resource_",
          "type": "string"
        },
        {
          "internalType": "string",
          "name": "permission_",
          "type": "string"
        }
      ],
      "name": "hasPermission",
      "outputs": [
        {
          "internalType": "bool",
          "name": "isAllowed_",
          "type": "bool"
        }
      ],
      "stateMutability": "view",
      "type": "function"
    },
    {
      "inputs": [
        {
          "internalType": "contract DAORegistry",
          "name": "dao_",
          "type": "address"
        },
        {
          "internalType": "address",
          "name": "voting_",
          "type": "address"
        },
        {
          "internalType": "string",
          "name": "votingName_",
          "type": "string"
        },
        {
          "internalType": "string",
          "name": "panelName_",
          "type": "string"
        }
      ],
      "name": "initialConfiguration",
      "outputs": [],
      "stateMutability": "nonpayable",
      "type": "function"
    },
    {
      "inputs": [
        {
          "internalType": "address",
          "name": "target_",
          "type": "address"
        }
      ],
      "name": "isVetoGroupExists",
      "outputs": [
        {
          "internalType": "bool",
          "name": "",
          "type": "bool"
        }
      ],
      "stateMutability": "view",
      "type": "function"
    },
    {
      "inputs": [
        {
          "internalType": "address",
          "name": "target_",
          "type": "address"
        },
        {
          "internalType": "contract DAOMemberStorage",
          "name": "linkedMemberStorage_",
          "type": "address"
        }
      ],
      "name": "linkStorageToVetoGroup",
      "outputs": [],
      "stateMutability": "nonpayable",
      "type": "function"
    },
    {
      "inputs": [
        {
          "internalType": "bytes[]",
          "name": "data",
          "type": "bytes[]"
        }
      ],
      "name": "multicall",
      "outputs": [
        {
          "internalType": "bytes[]",
          "name": "results",
          "type": "bytes[]"
        }
      ],
      "stateMutability": "nonpayable",
      "type": "function"
    },
    {
      "inputs": [
        {
          "internalType": "string",
          "name": "role_",
          "type": "string"
        },
        {
          "components": [
            {
              "internalType": "string",
              "name": "resource",
              "type": "string"
            },
            {
              "internalType": "string[]",
              "name": "permissions",
              "type": "string[]"
            }
          ],
          "internalType": "struct IRBAC.ResourceWithPermissions[]",
          "name": "permissionsToRemove_",
          "type": "tuple[]"
        },
        {
          "internalType": "bool",
          "name": "allowed_",
          "type": "bool"
        }
      ],
      "name": "removePermissionsFromRole",
      "outputs": [],
      "stateMutability": "nonpayable",
      "type": "function"
    },
    {
      "inputs": [
        {
          "internalType": "address",
          "name": "who_",
          "type": "address"
        },
        {
          "internalType": "string[]",
          "name": "groupsToRemoveFrom_",
          "type": "string[]"
        }
      ],
      "name": "removeUserFromGroups",
      "outputs": [],
      "stateMutability": "nonpayable",
      "type": "function"
    },
    {
      "inputs": [
        {
          "internalType": "address",
          "name": "target_",
          "type": "address"
        }
      ],
      "name": "removeVetoGroup",
      "outputs": [],
      "stateMutability": "nonpayable",
      "type": "function"
    },
    {
      "inputs": [
        {
          "internalType": "string",
          "name": "groupFrom_",
          "type": "string"
        },
        {
          "internalType": "string[]",
          "name": "rolesToRevoke_",
          "type": "string[]"
        }
      ],
      "name": "revokeGroupRoles",
      "outputs": [],
      "stateMutability": "nonpayable",
      "type": "function"
    },
    {
      "inputs": [
        {
          "internalType": "address",
          "name": "from_",
          "type": "address"
        },
        {
          "internalType": "string[]",
          "name": "rolesToRevoke_",
          "type": "string[]"
        }
      ],
      "name": "revokeRoles",
      "outputs": [],
      "stateMutability": "nonpayable",
      "type": "function"
    },
    {
      "inputs": [],
      "name": "toggleDefaultGroup",
      "outputs": [],
      "stateMutability": "nonpayable",
      "type": "function"
    }
  ],
  "bytecode": "0x608060405234801561001057600080fd5b5061581080620000216000396000f3fe608060405234801561001057600080fd5b506004361061025d5760003560e01c80637cb9cdfa11610146578063b832a5a2116100c3578063ee2f6ce511610087578063ee2f6ce5146105e5578063f1c7d41b146105f8578063fc981a361461060b578063fcddfd4a1461061e578063ff66e41214610631578063ff846fb9146103a657600080fd5b8063b832a5a214610578578063bb65dc831461059d578063d41de127146105a5578063d8ad4e1c146105ad578063dc224863146105c057600080fd5b80639a9aa8d41161010a5780639a9aa8d4146104fa578063a64eeff91461050d578063a9b9836814610520578063ac9650d814610533578063b3e657fb1461055357600080fd5b80637cb9cdfa1461049957806381c5492b146104ac5780638af745a4146104c15780638e5cc2b7146104d457806396b5f936146104e757600080fd5b806331dbd475116101df5780634f0d84e3116101a35780634f0d84e3146103d9578063524e62b2146103ec5780636cb6f26c1461040d578063733352b31461044757806375e025e7146104735780637951c6da1461048657600080fd5b806331dbd4751461037857806337ff630d146103805780633da04e4a146103935780634a9e12c5146103a65780634d74b439146103c657600080fd5b80630ead6f1e116102265780630ead6f1e14610307578063141c98951461032c5780631f6f16a61461033f57806321a9ec211461035257806330cae1681461036557600080fd5b80622f5bc01461026257806303bc0b3e1461028c5780630423b79f146102bc57806306a36aee146102d15780630b441407146102f1575b600080fd5b610275610270366004614617565b610644565b604051610283929190614758565b60405180910390f35b6102af604051806040016040528060048152602001631491505160e21b81525081565b6040516102839190614786565b6102cf6102ca3660046147ae565b6108fe565b005b6102e46102df3660046147e7565b610936565b6040516102839190614859565b60045415155b6040519015158152602001610283565b6102af6040518060400160405280600681526020016555504441544560d01b81525081565b6102f761033a3660046147e7565b610960565b6102cf61034d36600461486c565b61099c565b6102cf6103603660046147ae565b6109cd565b6102cf61037336600461497c565b610cb7565b6102af610da9565b6102cf61038e3660046149f3565b610e37565b6102e46103a13660046147e7565b610f34565b6102af604051806040016040528060018152602001601560f91b81525081565b6102cf6103d4366004614b30565b610fff565b6102cf6103e7366004614bb8565b611047565b6103ff6103fa3660046147e7565b611127565b604051908152602001610283565b61042061041b3660046147e7565b611139565b6040805182516001600160a01b039081168252602093840151169281019290925201610283565b6102af6040518060400160405280600d81526020016c524241435f5245534f5552434560981b81525081565b6102cf6104813660046149f3565b61119f565b6102f7610494366004614bfd565b611294565b6102cf6104a73660046147e7565b6113dc565b6104b461167e565b6040516102839190614c72565b6102cf6104cf366004614cbf565b61168f565b6102e46104e2366004614617565b6119bb565b6102cf6104f5366004614d04565b6119d0565b6102cf610508366004614bb8565b611a5c565b6102cf61051b366004614bfd565b611b48565b6102cf61052e366004614dc1565b611b7f565b610546610541366004614e7a565b612297565b6040516102839190614eee565b6102af6040518060400160405280600681526020016543524541544560d01b81525081565b6102af6040518060400160405280600681526020016544454c45544560d01b81525081565b6102af61238b565b6102cf61241d565b6102f76105bb366004614cbf565b6124fb565b6102af6040518060400160405280600681526020016526a0a9aa22a960d11b81525081565b6102cf6105f3366004614bb8565b612592565b6102cf61060636600461497c565b612672565b6104b46106193660046147e7565b61275e565b6102cf61062c366004614bb8565b612831565b6102cf61063f366004614f50565b61291d565b60608060006002846040516106599190614fc1565b90815260408051602092819003830181206001600090815293529082209250600290610686908790614fc1565b90815260408051602092819003830181206000808052935290822092506001906106b1908890614fc1565b9081526040805191829003602090810183206001600081815291909252918220935090916106e0908990614fc1565b908152604080516020928190038301902060008080529252902084549091506001600160401b038111156107165761071661450a565b60405190808252806020026020018201604052801561075b57816020015b60408051808201909152606080825260208201528152602001906001900390816107345790505b509550610766835490565b6001600160401b0381111561077d5761077d61450a565b6040519080825280602002602001820160405280156107c257816020015b604080518082019091526060808252602082015281526020019060019003908161079b5790505b50945060005b8651811015610872576107db8582612950565b8782815181106107ed576107ed614fdd565b60200260200101516000018190525061083e8388838151811061081257610812614fdd565b60200260200101516000015160405161082b9190614fc1565b9081526020016040518091039020612a02565b87828151811061085057610850614fdd565b602002602001015160200181905250808061086a90615009565b9150506107c8565b5060005b85518110156108f4576108898482612950565b86828151811061089b5761089b614fdd565b6020026020010151600001819052506108c08287838151811061081257610812614fdd565b8682815181106108d2576108d2614fdd565b60200260200101516020018190525080806108ec90615009565b915050610876565b5050505050915091565b6109286040518060400160405280600981526020016804144445f47524f55560bc1b815250612adf565b6109328282612b74565b5050565b6001600160a01b038116600090815260036020526040902060609061095a90612a02565b92915050565b600080600a61096e84612dc2565b60405161097b9190614fc1565b908152604051908190036020019020546001600160a01b0316141592915050565b6109c36040518060400160405280600681526020016543524541544560d01b815250612adf565b6109328282612eea565b6109fa6040518060400160405280600c81526020016b05550444154455f47524f55560a41b815250612adf565b6000610a0583612dc2565b905060006001600160a01b0316600a82604051610a229190614fc1565b908152604051908190036020019020546001600160a01b031603610ad95760405162461bcd60e51b815260206004820152605860248201527f5b5147444b2d3030383030335d2d546865207665746f2067726f757020646f6560448201527f73206e6f74206578697374732c20696d706f737369626c6520746f206c696e6b60648201527f2069742077697468206d656d6265722073746f726167652e0000000000000000608482015260a4015b60405180910390fd5b6000600a82604051610aeb9190614fc1565b908152604051908190036020019020600101546001600160a01b031690508015610b9b57610b9b816001600160a01b0316634b79c0746040518163ffffffff1660e01b8152600401600060405180830381865afa158015610b50573d6000803e3d6000fd5b505050506040513d6000823e601f3d908101601f19168201604052610b7891908101906150e6565b600081518110610b8a57610b8a614fdd565b602002602001015161037384612f8f565b82600a83604051610bac9190614fc1565b90815260405190819003602001902060010180546001600160a01b039283166001600160a01b0319909116179055831615610c6d57610c6d836001600160a01b0316634b79c0746040518163ffffffff1660e01b8152600401600060405180830381865afa158015610c22573d6000803e3d6000fd5b505050506040513d6000823e601f3d908101601f19168201604052610c4a91908101906150e6565b600081518110610c5c57610c5c614fdd565b602002602001015161060684612f8f565b604080516001600160a01b038087168252851660208201527f2ab590f0b59257764cf60af701cdaf4e4cc93be619db3d27af2f1f969c919c8e91015b60405180910390a150505050565b6040518060400160405280600d81526020016c524241435f5245534f5552434560981b8152506040518060400160405280600681526020016544454c45544560d01b815250610d07338383611294565b8183604051602001610d1a92919061511a565b60405160208183030381529060405290610d475760405162461bcd60e51b8152600401610ad09190614786565b506000835111610d995760405162461bcd60e51b815260206004820152601a60248201527f5242414347726f757061626c653a20656d70747920726f6c65730000000000006044820152606401610ad0565b610da38484612fc7565b50505050565b60078054610db690615187565b80601f0160208091040260200160405190810160405280929190818152602001828054610de290615187565b8015610e2f5780601f10610e0457610100808354040283529160200191610e2f565b820191906000526020600020905b815481529060010190602001808311610e1257829003601f168201915b505050505081565b6040518060400160405280600d81526020016c524241435f5245534f5552434560981b8152506040518060400160405280600681526020016543524541544560d01b815250610e87338383611294565b8183604051602001610e9a92919061511a565b60405160208183030381529060405290610ec75760405162461bcd60e51b8152600401610ad09190614786565b5060005b8451811015610f2c57610f1a86868381518110610eea57610eea614fdd565b602002602001015160000151878481518110610f0857610f08614fdd565b60200260200101516020015187613021565b80610f2481615009565b915050610ecb565b505050505050565b6001600160a01b0381166000908152600560205260408120606091610f57825490565b905060045481610f6791906151c1565b6001600160401b03811115610f7e57610f7e61450a565b604051908082528060200260200182016040528015610fb157816020015b6060815260200190600190039081610f9c5790505b50925060005b81811015610ff757610fc98382612950565b848281518110610fdb57610fdb614fdd565b602002602001018190525080610ff090615009565b9050610fb7565b505050919050565b6110266040518060400160405280600681526020016543524541544560d01b815250612adf565b611032848385846130e5565b61103d8483836132ce565b610da38282612eea565b6040518060400160405280600d81526020016c524241435f5245534f5552434560981b8152506040518060400160405280600681526020016544454c45544560d01b815250611097338383611294565b81836040516020016110aa92919061511a565b604051602081830303815290604052906110d75760405162461bcd60e51b8152600401610ad09190614786565b50600083511161111d5760405162461bcd60e51b8152602060048201526011602482015270524241433a20656d70747920726f6c657360781b6044820152606401610ad0565b610da384846133df565b60006111328261275e565b5192915050565b6040805180820190915260008082526020820152600a61115883612dc2565b6040516111659190614fc1565b90815260408051918290036020908101832083830190925281546001600160a01b0390811684526001909201549091169082015292915050565b6040518060400160405280600d81526020016c524241435f5245534f5552434560981b8152506040518060400160405280600681526020016544454c45544560d01b8152506111ef338383611294565b818360405160200161120292919061511a565b6040516020818303038152906040529061122f5760405162461bcd60e51b8152600401610ad09190614786565b5060005b8451811015610f2c576112828686838151811061125257611252614fdd565b60200260200101516000015187848151811061127057611270614fdd565b60200260200101516020015187613432565b8061128c81615009565b915050611233565b6000806112a085610936565b905060005b81518110156113105760008282815181106112c2576112c2614fdd565b602002602001015190506112d7818787613500565b156112e857600093505050506113d5565b83806112fa57506112fa818787613607565b935050808061130890615009565b9150506112a5565b50600061131c86610f34565b905060005b81518110156113d15761134c82828151811061133f5761133f614fdd565b60200260200101516119bb565b925060005b83518110156113be57600084828151811061136e5761136e614fdd565b60200260200101519050611383818989613500565b15611396576000955050505050506113d5565b85806113a857506113a8818989613607565b95505080806113b690615009565b915050611351565b50806113c981615009565b915050611321565b5050505b9392505050565b6114096040518060400160405280600c81526020016b044454c4554455f47524f55560a41b815250612adf565b600061141482612dc2565b905060006001600160a01b0316600a826040516114319190614fc1565b908152604051908190036020019020546001600160a01b0316036114cc5760405162461bcd60e51b815260206004820152604660248201527f5b5147444b2d3030383030325d2d546865207665746f2067726f757020646f6560448201527f73206e6f74206578697374732c20696d706f737369626c6520746f2072656d6f6064820152653b329034ba1760d11b608482015260a401610ad0565b6000600a826040516114de9190614fc1565b908152604051908190036020019020600101546001600160a01b03169050801561154357611543816001600160a01b0316634b79c0746040518163ffffffff1660e01b8152600401600060405180830381865afa158015610b50573d6000803e3d6000fd5b600a826040516115539190614fc1565b90815260408051918290036020908101832080546001600160a01b031990811682556001909101805490911690556060830182526008908301908152672b22aa27afa327a960c11b9183019190915281526000906115b09061366a565b905061160a6115be84612f8f565b6000815181106115d0576115d0614fdd565b602002602001015161160360405180602001604052806040518060400160405280898152602001878152508152506136c4565b600161119f565b6116396116168461370c565b60008151811061162857611628614fdd565b602002602001015161037385612f8f565b61164460088561372d565b506040516001600160a01b03851681527f6c6a3de918692a79487701ebac9047aba7d0f6cbe7cfdff35f6e3bd0266e733c90602001610ca9565b606061168a6008613742565b905090565b6116bb6040518060400160405280600b81526020016a24a72a22a3a920aa24a7a760a91b815250612adf565b604051638c22360160e01b81526001600160a01b03831690638c223601906116e7908490600401614786565b602060405180830381865afa158015611704573d6000803e3d6000fd5b505050506040513d601f19601f8201168201806040525081019061172891906151d4565b61179a5760405162461bcd60e51b815260206004820152603760248201527f5b5147444b2d3030383030305d2d546865206d6f64756c65206e6f7420666f7560448201527f6e6420696e207468652044414f2052656769737472792e0000000000000000006064820152608401610ad0565b600080836001600160a01b03166335817773846040518263ffffffff1660e01b81526004016117c99190614786565b602060405180830381865afa1580156117e6573d6000803e3d6000fd5b505050506040513d601f19601f8201168201806040525081019061180a91906151f1565b60408051600481526024810182526020810180516001600160e01b031663f13bdd4d60e01b17905290516001600160a01b03929092169161184b9190614fc1565b600060405180830381855afa9150503d8060008114611886576040519150601f19603f3d011682016040523d82523d6000602084013e61188b565b606091505b509150915081801561189e575060008151115b6119215760405162461bcd60e51b815260206004820152604860248201527f5b5147444b2d3030383030315d2d5468652074617267657420636f6e7472616360448201527f74206d75737420666f6c6c6f7720696e746567726174696f6e20646f63756d65606482015267373a30ba34b7b71760c11b608482015260a401610ad0565b600081806020019051810190611937919061520e565b905060005b8151811015610f2c576119a982828151811061195a5761195a614fdd565b60200260200101516000015183838151811061197857611978614fdd565b60200260200101516020015184848151811061199657611996614fdd565b6020026020010151604001516001613021565b806119b381615009565b91505061193c565b606061095a60068360405161082b9190614fc1565b6119fa6040518060400160405280600981526020016804144445f47524f55560bc1b815250612adf565b60005b815181101561093257611a4a828281518110611a1b57611a1b614fdd565b602002602001015160000151838381518110611a3957611a39614fdd565b602002602001015160200151612b74565b80611a5481615009565b9150506119fd565b6040518060400160405280600d81526020016c524241435f5245534f5552434560981b8152506040518060400160405280600681526020016544454c45544560d01b815250611aac338383611294565b8183604051602001611abf92919061511a565b60405160208183030381529060405290611aec5760405162461bcd60e51b8152600401610ad09190614786565b506000835111611b3e5760405162461bcd60e51b815260206004820152601b60248201527f5242414347726f757061626c653a20656d7074792067726f75707300000000006044820152606401610ad0565b610da3848461374f565b611b6f6040518060400160405280600681526020016543524541544560d01b815250612adf565b611b7a8383836132ce565b505050565b600054610100900460ff1615808015611b9f5750600054600160ff909116105b80611bb95750303b158015611bb9575060005460ff166001145b611c1c5760405162461bcd60e51b815260206004820152602e60248201527f496e697469616c697a61626c653a20636f6e747261637420697320616c72656160448201526d191e481a5b9a5d1a585b1a5e995960921b6064820152608401610ad0565b6000805460ff191660011790558015611c3f576000805461ff0019166101001790555b611c476137a2565b611c7785611c726040518060400160405280600681526020016526a0a9aa22a960d11b815250613874565b6138b6565b611ca286611c726040518060400160405280600681526020016526a0a9aa22a960d11b815250613874565b6007611cae8582615386565b506040805161010081018252600960c082019081526804144445f47524f55560bc1b60e0830152815281518083018352600c81526b044454c4554455f47524f55560a41b6020828101919091528083019190915282518084018452600a81526920a2222fa6a2a6a122a960b11b818301528284015282518084018452600d81526c2222a622aa22afa6a2a6a122a960991b81830152606083015282518084018452600b81526a24a72a22a3a920aa24a7a760a91b818301526080830152825180840190935260138352724348414e47455f44414f5f4d4554414441544160681b9083015260a0810191909152600090611da690613909565b9050611ebf611dea85858080601f016020809104026020016040519081016040528093929190818152602001838380828437600092019190915250613a0c92505050565b600081518110611dfc57611dfc614fdd565b6020026020010151611eb86040518060200160405280604051806040016040528060078054611e2a90615187565b80601f0160208091040260200160405190810160405280929190818152602001828054611e5690615187565b8015611ea35780601f10611e7857610100808354040283529160200191611ea3565b820191906000526020600020905b815481529060010190602001808311611e8657829003601f168201915b505050918352505060200187905290526136c4565b6001610e37565b612015611f0185858080601f016020809104026020016040519081016040528093929190818152602001838380828437600092019190915250613a0c92505050565b600081518110611f1357611f13614fdd565b6020026020010151611eb8604051806020016040528060405180604001604052808d6001600160a01b0316633e4beca16040518163ffffffff1660e01b8152600401600060405180830381865afa158015611f72573d6000803e3d6000fd5b505050506040513d6000823e601f3d908101601f19168201604052611f9a9190810190615445565b81526040805160a0810182526006606082018181526543524541544560d01b60808401528252825180840184528181526555504441544560d01b60208281019190915283810191909152835180850185529182526544454c45544560d01b828201529282015291019061200c90613a2d565b905290526136c4565b600061209b60405180606001604052806040518060400160405280600d81526020016c4352454154455f564f54494e4760981b8152508152602001604051806040016040528060088152602001672b27aa22afa327a960c11b815250815260200160405180604001604052806004815260200163564f544560e01b815250815250613a2d565b9050612100886120e087878080601f016020809104026020016040519081016040528093929190818152602001838380828437600092019190915250613abe92505050565b6000815181106120f2576120f2614fdd565b602002602001015183613adf565b600061213760405180602001604052806040518060400160405280600681526020016511561411549560d21b81525081525061366a565b905061217c896120e088888080601f016020809104026020016040519081016040528093929190818152602001838380828437600092019190915250613b9b92505050565b6122466121ed8a6001600160a01b0316633e4beca16040518163ffffffff1660e01b8152600401600060405180830381865afa1580156121c0573d6000803e3d6000fd5b505050506040513d6000823e601f3d908101601f191682016040526121e89190810190615445565b613bbc565b6000815181106121ff576121ff614fdd565b602002602001015161060688888080601f016020809104026020016040519081016040528093929190818152602001838380828437600092019190915250613abe92505050565b5050508015610f2c576000805461ff0019169055604051600181527f7f26b83ff96e1f2b6a682f133852f6798a09c465da95921460cefb3847402498906020015b60405180910390a1505050505050565b6060816001600160401b038111156122b1576122b161450a565b6040519080825280602002602001820160405280156122e457816020015b60608152602001906001900390816122cf5790505b50905060005b82811015612384576123543085858481811061230857612308614fdd565b905060200281019061231a9190615479565b8080601f016020809104026020016040519081016040528093929190818152602001838380828437600092019190915250613bdd92505050565b82828151811061236657612366614fdd565b6020026020010181905250808061237c90615009565b9150506122ea565b5092915050565b60606007805461239a90615187565b80601f01602080910402602001604051908101604052809291908181526020018280546123c690615187565b80156124135780601f106123e857610100808354040283529160200191612413565b820191906000526020600020905b8154815290600101906020018083116123f657829003601f168201915b5050505050905090565b6040518060400160405280600d81526020016c524241435f5245534f5552434560981b8152506040518060400160405280600681526020016555504441544560d01b81525061246d338383611294565b818360405160200161248092919061511a565b604051602081830303815290604052906124ad5760405162461bcd60e51b8152600401610ad09190614786565b506004805460011890557f24fa34c0bf7e6ede131bebfcec90266c50d844496bcf1de81f90746374a5d9626124e3600454151590565b60405190151581526020015b60405180910390a15050565b60006113d5836007805461250e90615187565b80601f016020809104026020016040519081016040528092919081815260200182805461253a90615187565b80156125875780601f1061255c57610100808354040283529160200191612587565b820191906000526020600020905b81548152906001019060200180831161256a57829003601f168201915b505050505084611294565b6040518060400160405280600d81526020016c524241435f5245534f5552434560981b8152506040518060400160405280600681526020016543524541544560d01b8152506125e2338383611294565b81836040516020016125f592919061511a565b604051602081830303815290604052906126225760405162461bcd60e51b8152600401610ad09190614786565b5060008351116126685760405162461bcd60e51b8152602060048201526011602482015270524241433a20656d70747920726f6c657360781b6044820152606401610ad0565b610da384846138b6565b6040518060400160405280600d81526020016c524241435f5245534f5552434560981b8152506040518060400160405280600681526020016543524541544560d01b8152506126c2338383611294565b81836040516020016126d592919061511a565b604051602081830303815290604052906127025760405162461bcd60e51b8152600401610ad09190614786565b5060008351116127545760405162461bcd60e51b815260206004820152601a60248201527f5242414347726f757061626c653a20656d70747920726f6c65730000000000006044820152606401610ad0565b610da38484613c02565b60606000600a61276d84612dc2565b60405161277a9190614fc1565b90815260405190819003602001902060018101549091506001600160a01b03166127b4575050604080516000815260208101909152919050565b8060010160009054906101000a90046001600160a01b03166001600160a01b0316639eab52536040518163ffffffff1660e01b8152600401600060405180830381865afa158015612809573d6000803e3d6000fd5b505050506040513d6000823e601f3d908101601f191682016040526113d591908101906154c6565b6040518060400160405280600d81526020016c524241435f5245534f5552434560981b8152506040518060400160405280600681526020016543524541544560d01b815250612881338383611294565b818360405160200161289492919061511a565b604051602081830303815290604052906128c15760405162461bcd60e51b8152600401610ad09190614786565b5060008351116129135760405162461bcd60e51b815260206004820152601b60248201527f5242414347726f757061626c653a20656d7074792067726f75707300000000006044820152606401610ad0565b610da38484613c5c565b6129446040518060400160405280600681526020016543524541544560d01b815250612adf565b610da3848484846130e5565b606082600001828154811061296757612967614fdd565b90600052602060002001805461297c90615187565b80601f01602080910402602001604051908101604052809291908181526020018280546129a890615187565b80156129f55780601f106129ca576101008083540402835291602001916129f5565b820191906000526020600020905b8154815290600101906020018083116129d857829003601f168201915b5050505050905092915050565b606081600001805480602002602001604051908101604052809291908181526020016000905b82821015612ad4578382906000526020600020018054612a4790615187565b80601f0160208091040260200160405190810160405280929190818152602001828054612a7390615187565b8015612ac05780601f10612a9557610100808354040283529160200191612ac0565b820191906000526020600020905b815481529060010190602001808311612aa357829003601f168201915b505050505081526020019060010190612a28565b505050509050919050565b612ae933826124fb565b612b715760405162461bcd60e51b815260206004820152604d60248201527f5b5147444b2d3030383030365d2d5468652073656e646572206973206e6f742060448201527f616c6c6f77656420746f20706572666f726d2074686520616374696f6e2c206160648201526c31b1b2b9b9903232b734b2b21760991b608482015260a401610ad0565b50565b6000612b7f83612dc2565b905060006001600160a01b0316600a82604051612b9c9190614fc1565b908152604051908190036020019020546001600160a01b031614612c175760405162461bcd60e51b815260206004820152602c60248201527f5b5147444b2d3030383030345d2d546865207665746f2067726f757020616c7260448201526b32b0b23c9032bc34b9ba399760a11b6064820152608401610ad0565b82600a82604051612c289190614fc1565b90815260405190819003602001812080546001600160a01b03939093166001600160a01b0319909316929092179091558290600a90612c68908490614fc1565b908152604080516020928190038301812060010180546001600160a01b0319166001600160a01b0395909516949094179093556060830181526008918301918252672b22aa27afa327a960c11b908301528152600090612cc79061366a565b9050612d1a612cd583612f8f565b600081518110612ce757612ce7614fdd565b6020026020010151611eb860405180602001604052806040518060400160405280888152602001878152508152506136c4565b612d26610c4a8361370c565b6001600160a01b03831615612d7657612d76836001600160a01b0316634b79c0746040518163ffffffff1660e01b8152600401600060405180830381865afa158015610c22573d6000803e3d6000fd5b612d81600885613caf565b50604080516001600160a01b038087168252851660208201527f35cebf43b732687299cb48282f96b415e323e4cd78002458b50dd088812ea57d9101610ca9565b60408051600481526024810182526020810180516001600160e01b031663bb65dc8360e01b17905290516060916000916001600160a01b03851691612e0691614fc1565b600060405180830381855afa9150503d8060008114612e41576040519150601f19603f3d011682016040523d82523d6000602084013e612e46565b606091505b509150506000815111612ed65760405162461bcd60e51b815260206004820152604c60248201527f5b5147444b2d3030383030355d2d5468652074617267657420636f6e7472616360448201527f74206d75737420696d706c656d656e7420746865204944414f5265736f75726360648201526b329034b73a32b93330b1b29760a11b608482015260a401610ad0565b808060200190518101906113d59190615445565b6000612f2160405180602001604052806040518060400160405280600681526020016511561411549560d21b81525081525061366a565b90506000612f30848385613cc4565b9050612f60612f3e84613b9b565b600081518110612f5057612f50614fdd565b6020026020010151826001610e37565b610da3612f6c84613e13565b600081518110612f7e57612f7e614fdd565b602002602001015161060685613b9b565b606061095a604051806020016040528084604051602001612fb09190615554565b60405160208183030381529060405281525061366a565b612ff081600684604051612fdb9190614fc1565b90815260405190819003602001902090613e34565b7f9ba35c12cc0b45bae6e2f4fd0085b072dfa11802727a4dca990ad11a960ab31682826040516124ef92919061558d565b60006002856040516130339190614fc1565b9081526040805160209281900383018120851515600090815293529082209250600190613061908890614fc1565b90815260408051918290036020908101832086151560009081529152209061308a908790614fc1565b90815260405190819003602001902090506130a58185613e7f565b6130af8286613eca565b507f06ea5bb05be257dd30f31cc76f4077a3df230e09f7e33e9b52fb09c40a8f695e8686868660405161228794939291906155b2565b600061316460405180606001604052806040518060400160405280600681526020016543524541544560d01b81525081526020016040518060400160405280600681526020016555504441544560d01b81525081526020016040518060400160405280600681526020016544454c45544560d01b815250815250613a2d565b90506000613173858385613cc4565b9050613181612f3e84613a0c565b6132c161318d84613a0c565b60008151811061319f5761319f614fdd565b6020026020010151611eb8604051806020016040528060405180604001604052808c6001600160a01b0316631af6c0646040518163ffffffff1660e01b8152600401602060405180830381865afa1580156131fe573d6000803e3d6000fd5b505050506040513d601f19601f8201168201806040525081019061322291906151f1565b6001600160a01b03166316b728176040518163ffffffff1660e01b8152600401600060405180830381865afa15801561325f573d6000803e3d6000fd5b505050506040513d6000823e601f3d908101601f191682016040526132879190810190615445565b815260200161200c60405180602001604052806040518060400160405280600681526020016555504441544560d01b81525081525061366a565b610f2c846105f385613a0c565b600061335460405180606001604052806040518060400160405280600d81526020016c4352454154455f564f54494e4760981b8152508152602001604051806040016040528060088152602001672b27aa22afa327a960c11b815250815260200160405180604001604052806004815260200163564f544560e01b815250815250613a2d565b90506000613363848385613cc4565b9050613371612f3e84613abe565b6133d86133b5866001600160a01b0316633e4beca16040518163ffffffff1660e01b8152600401600060405180830381865afa1580156121c0573d6000803e3d6000fd5b6000815181106133c7576133c7614fdd565b602002602001015161060685613abe565b5050505050565b6001600160a01b03821660009081526003602052604090206134019082613e34565b7f037c273ac6ee1105154063d4b014a5afeec9981076c152f47a0899c6e285474082826040516124ef9291906155ff565b60006002856040516134449190614fc1565b9081526040805160209281900383018120851515600090815293529082209250600190613472908890614fc1565b90815260408051918290036020908101832086151560009081529152209061349b908790614fc1565b90815260405190819003602001902090506134b68185613e34565b80546000036134cb576134c98286613f2c565b505b7f27f963dfdedb973db8acb94be0be26fbd4c55498bc54cfd0733b9da9c0ab82968686868660405161228794939291906155b2565b6000806001856040516135139190614fc1565b90815260408051602092819003830181206000808052908452828120828401845260018352601560f91b9483019490945291519293509091839161355691614fc1565b90815260200160405180910390209050600082866040516135779190614fc1565b908152602001604051809103902090506135b3604051806040016040528060018152602001601560f91b815250836140eb90919063ffffffff16565b806135c357506135c382866140eb565b806135ec57506040805180820190915260018152601560f91b60208201526135ec9082906140eb565b806135fc57506135fc81866140eb565b979650505050505050565b60008060018560405161361a9190614fc1565b9081526020016040518091039020600060011515151581526020019081526020016000209050600081604051806040016040528060018152602001601560f91b8152506040516135569190614fc1565b604080516001808252818301909252606091816020015b60608152602001906001900390816136815790505090508160005b6020020151816000815181106136b4576136b4614fdd565b6020026020010181905250919050565b604080516001808252818301909252606091816020015b60408051808201909152606080825260208201528152602001906001900390816136db57905050905081600061369c565b606061095a604051806020016040528084604051602001612fb09190615623565b60006113d5836001600160a01b038416614118565b606060006113d583614201565b6001600160a01b03821660009081526005602052604090206137719082613e34565b7f4a1d3cc865b3d60b500acd482ee43bf242eade7364f8d537b561e923ab64a52882826040516124ef9291906155ff565b600054610100900460ff1661380d5760405162461bcd60e51b815260206004820152602b60248201527f496e697469616c697a61626c653a20636f6e7472616374206973206e6f74206960448201526a6e697469616c697a696e6760a81b6064820152608401610ad0565b6138726040518060400160405280600681526020016526a0a9aa22a960d11b815250604051806040016040528060018152602001601560f91b81525061386b604051806040016040528060018152602001601560f91b815250613874565b6001613021565b565b604080516001808252818301909252606091816020015b606081526020019060019003908161388b57905050905081816000815181106136b4576136b4614fdd565b6001600160a01b03821660009081526003602052604090206138d89082613e7f565b7f44240f5b60cedf44a65c3717503d91c46a899ef33c5348880e4c29131ac8731182826040516124ef9291906155ff565b60408051600680825260e08201909252606091816020015b60608152602001906001900390816139215750508251815191925090829060009061394e5761394e614fdd565b602090810291909101015281600160200201518160018151811061397457613974614fdd565b602090810291909101015281600260200201518160028151811061399a5761399a614fdd565b60209081029190910101528160036020020151816003815181106139c0576139c0614fdd565b60209081029190910101528160046020020151816004815181106139e6576139e6614fdd565b60209081029190910101528160056020020151816005815181106136b4576136b4614fdd565b606061095a604051806020016040528084604051602001612fb09190615658565b60408051600380825260808201909252606091816020015b6060815260200190600190039081613a4557505082518151919250908290600090613a7257613a72614fdd565b6020908102919091010152816001602002015181600181518110613a9857613a98614fdd565b60209081029190910101528160026020020151816002815181106136b4576136b4614fdd565b606061095a604051806020016040528084604051602001612fb0919061568e565b613b0982611eb86040518060200160405280604051806040016040528060078054611e2a90615187565b611b7a82611eb860405180602001604052806040518060400160405280896001600160a01b0316633e4beca16040518163ffffffff1660e01b8152600401600060405180830381865afa158015613b64573d6000803e3d6000fd5b505050506040513d6000823e601f3d908101601f19168201604052613b8c9190810190615445565b815260200187905290526136c4565b606061095a604051806020016040528084604051602001612fb091906156b7565b606061095a604051806020016040528084604051602001612fb091906156e0565b60606113d583836040518060600160405280602781526020016157b46027913961425d565b613c2b81600684604051613c169190614fc1565b90815260405190819003602001902090613e7f565b7f3c78b40ecb23192d0574c551ffadc5ae26920dbcb7a9d2359dfedbd8d381a64982826040516124ef92919061558d565b6001600160a01b0382166000908152600560205260409020613c7e9082613e7f565b7fb9f639551b4b6fd19206b3cdc0df0a37da14896683791aff139509644cb48f8482826040516124ef9291906155ff565b60006113d5836001600160a01b0384166142d5565b60606000613d076040518060400160405280601a81526020017f44414f5f434f4e465f504152414d455445525f53544f524147450000000000008152508461431c565b90506000613d4a6040518060400160405280601981526020017f44414f5f5245475f504152414d455445525f53544f52414745000000000000008152508561431c565b90506000613d826040518060400160405280601281526020017144414f5f4d454d4245525f53544f5241474560701b8152508661431c565b90506000613d90888761431c565b60408051808201825286815260208082018b9052825180840184528781528082018c9052835180850185528781528083018d9052845180860186528681528084018e90528551608081018752858152938401839052948301819052606083018590529495509193919290613e0390614348565b9c9b505050505050505050505050565b606061095a604051806020016040528084604051602001612fb09190615711565b60005b8151811015611b7a57613e6c828281518110613e5557613e55614fdd565b602002602001015184613f2c90919063ffffffff16565b5080613e7781615009565b915050613e37565b60005b8151811015611b7a57613eb7828281518110613ea057613ea0614fdd565b602002602001015184613eca90919063ffffffff16565b5080613ec281615009565b915050613e82565b6000613ed683836140eb565b613f2457825460018101845560008481526020902001613ef68382615386565b5082546040516001850190613f0c908590614fc1565b9081526040519081900360200190205550600161095a565b50600061095a565b6000808360010183604051613f419190614fc1565b9081526020016040518091039020549050806000146140e1576000613f6760018361574e565b8554909150600090613f7b9060019061574e565b9050818114614082576000866000018281548110613f9b57613f9b614fdd565b906000526020600020018054613fb090615187565b80601f0160208091040260200160405190810160405280929190818152602001828054613fdc90615187565b80156140295780601f10613ffe57610100808354040283529160200191614029565b820191906000526020600020905b81548152906001019060200180831161400c57829003601f168201915b505050505090508087600001848154811061404657614046614fdd565b90600052602060002001908161405c9190615386565b508387600101826040516140709190614fc1565b90815260405190819003602001902055505b855486908061409357614093615761565b6001900381819060005260206000200160006140af91906144bc565b905585600101856040516140c39190614fc1565b9081526020016040518091039020600090556001935050505061095a565b600091505061095a565b600082600101826040516140ff9190614fc1565b9081526040519081900360200190205415159392505050565b600081815260018301602052604081205480156140e157600061413c60018361574e565b85549091506000906141509060019061574e565b90508181146141b557600086600001828154811061417057614170614fdd565b906000526020600020015490508087600001848154811061419357614193614fdd565b6000918252602080832090910192909255918252600188019052604090208390555b85548690806141c6576141c6615761565b60019003818190600052602060002001600090559055856001016000868152602001908152602001600020600090556001935050505061095a565b60608160000180548060200260200160405190810160405280929190818152602001828054801561425157602002820191906000526020600020905b81548152602001906001019080831161423d575b50505050509050919050565b6060600080856001600160a01b03168560405161427a9190614fc1565b600060405180830381855af49150503d80600081146142b5576040519150601f19603f3d011682016040523d82523d6000602084013e6142ba565b606091505b50915091506142cb86838387614411565b9695505050505050565b6000818152600183016020526040812054613f245750815460018181018455600084815260208082209093018490558454848252828601909352604090209190915561095a565b60608282604051602001614331929190615777565b604051602081830303815290604052905092915050565b60408051600480825260a08201909252606091816020015b60408051808201909152606080825260208201528152602001906001900390816143605750508251815191925090829060009061439f5761439f614fdd565b60209081029190910101528160016020020151816001815181106143c5576143c5614fdd565b60209081029190910101528160026020020151816002815181106143eb576143eb614fdd565b60209081029190910101528160036020020151816003815181106136b4576136b4614fdd565b60608315614480578251600003614479576001600160a01b0385163b6144795760405162461bcd60e51b815260206004820152601d60248201527f416464726573733a2063616c6c20746f206e6f6e2d636f6e74726163740000006044820152606401610ad0565b508161448a565b61448a8383614492565b949350505050565b8151156144a25781518083602001fd5b8060405162461bcd60e51b8152600401610ad09190614786565b5080546144c890615187565b6000825580601f106144d8575050565b601f016020900490600052602060002090810190612b7191905b8082111561450657600081556001016144f2565b5090565b634e487b7160e01b600052604160045260246000fd5b604080519081016001600160401b03811182821017156145425761454261450a565b60405290565b604051606081016001600160401b03811182821017156145425761454261450a565b604051601f8201601f191681016001600160401b03811182821017156145925761459261450a565b604052919050565b60006001600160401b038211156145b3576145b361450a565b50601f01601f191660200190565b600082601f8301126145d257600080fd5b81356145e56145e08261459a565b61456a565b8181528460208386010111156145fa57600080fd5b816020850160208301376000918101602001919091529392505050565b60006020828403121561462957600080fd5b81356001600160401b0381111561463f57600080fd5b61448a848285016145c1565b60005b8381101561466657818101518382015260200161464e565b50506000910152565b6000815180845261468781602086016020860161464b565b601f01601f19169290920160200192915050565b60008282518085526020808601955060058183821b8501018287016000805b8681101561474957601f1980898603018c528351604081518188526146e18289018261466f565b928a0151888403898c01528051808552908b019392508a83019150808a1b83018b01875b82811015614731578685830301845261471f82875161466f565b958d0195938d01939150600101614705565b509f8b019f98505050948801945050506001016146ba565b50919998505050505050505050565b60408152600061476b604083018561469b565b828103602084015261477d818561469b565b95945050505050565b6020815260006113d5602083018461466f565b6001600160a01b0381168114612b7157600080fd5b600080604083850312156147c157600080fd5b82356147cc81614799565b915060208301356147dc81614799565b809150509250929050565b6000602082840312156147f957600080fd5b81356113d581614799565b600081518084526020808501808196508360051b8101915082860160005b8581101561484c57828403895261483a84835161466f565b98850198935090840190600101614822565b5091979650505050505050565b6020815260006113d56020830184614804565b6000806040838503121561487f57600080fd5b82356001600160401b038082111561489657600080fd5b6148a2868387016145c1565b935060208501359150808211156148b857600080fd5b506148c5858286016145c1565b9150509250929050565b60006001600160401b038211156148e8576148e861450a565b5060051b60200190565b600082601f83011261490357600080fd5b813560206149136145e0836148cf565b82815260059290921b8401810191818101908684111561493257600080fd5b8286015b848110156149715780356001600160401b038111156149555760008081fd5b6149638986838b01016145c1565b845250918301918301614936565b509695505050505050565b6000806040838503121561498f57600080fd5b82356001600160401b03808211156149a657600080fd5b6149b2868387016145c1565b935060208501359150808211156149c857600080fd5b506148c5858286016148f2565b8015158114612b7157600080fd5b80356149ee816149d5565b919050565b600080600060608486031215614a0857600080fd5b83356001600160401b0380821115614a1f57600080fd5b614a2b878388016145c1565b9450602091508186013581811115614a4257600080fd5b8601601f81018813614a5357600080fd5b8035614a616145e0826148cf565b81815260059190911b8201840190848101908a831115614a8057600080fd5b8584015b83811015614b1157803586811115614a9b57600080fd5b85016040818e03601f19011215614ab25760008081fd5b614aba614520565b8882013588811115614acc5760008081fd5b614ada8f8b838601016145c1565b825250604082013588811115614af05760008081fd5b614afe8f8b838601016148f2565b828b015250845250918601918601614a84565b50809750505050505050614b27604085016149e3565b90509250925092565b60008060008060808587031215614b4657600080fd5b8435614b5181614799565b93506020850135614b6181614799565b925060408501356001600160401b0380821115614b7d57600080fd5b614b89888389016145c1565b93506060870135915080821115614b9f57600080fd5b50614bac878288016145c1565b91505092959194509250565b60008060408385031215614bcb57600080fd5b8235614bd681614799565b915060208301356001600160401b03811115614bf157600080fd5b6148c5858286016148f2565b600080600060608486031215614c1257600080fd5b8335614c1d81614799565b925060208401356001600160401b0380821115614c3957600080fd5b614c45878388016145c1565b93506040860135915080821115614c5b57600080fd5b50614c68868287016145c1565b9150509250925092565b6020808252825182820181905260009190848201906040850190845b81811015614cb35783516001600160a01b031683529284019291840191600101614c8e565b50909695505050505050565b60008060408385031215614cd257600080fd5b8235614cdd81614799565b915060208301356001600160401b03811115614cf857600080fd5b6148c5858286016145c1565b60006020808385031215614d1757600080fd5b82356001600160401b03811115614d2d57600080fd5b8301601f81018513614d3e57600080fd5b8035614d4c6145e0826148cf565b81815260069190911b82018301908381019087831115614d6b57600080fd5b928401925b828410156135fc5760408489031215614d895760008081fd5b614d91614520565b8435614d9c81614799565b815284860135614dab81614799565b8187015282526040939093019290840190614d70565b600080600080600060808688031215614dd957600080fd5b8535614de481614799565b94506020860135614df481614799565b935060408601356001600160401b0380821115614e1057600080fd5b614e1c89838a016145c1565b94506060880135915080821115614e3257600080fd5b818801915088601f830112614e4657600080fd5b813581811115614e5557600080fd5b896020828501011115614e6757600080fd5b9699959850939650602001949392505050565b60008060208385031215614e8d57600080fd5b82356001600160401b0380821115614ea457600080fd5b818501915085601f830112614eb857600080fd5b813581811115614ec757600080fd5b8660208260051b8501011115614edc57600080fd5b60209290920196919550909350505050565b6000602080830181845280855180835260408601915060408160051b870101925083870160005b82811015614f4357603f19888603018452614f3185835161466f565b94509285019290850190600101614f15565b5092979650505050505050565b60008060008060808587031215614f6657600080fd5b8435614f7181614799565b935060208501356001600160401b0380821115614f8d57600080fd5b614f99888389016145c1565b945060408701359150614fab82614799565b90925060608601359080821115614b9f57600080fd5b60008251614fd381846020870161464b565b9190910192915050565b634e487b7160e01b600052603260045260246000fd5b634e487b7160e01b600052601160045260246000fd5b60006001820161501b5761501b614ff3565b5060010190565b600082601f83011261503357600080fd5b81516150416145e08261459a565b81815284602083860101111561505657600080fd5b61448a82602083016020870161464b565b600082601f83011261507857600080fd5b815160206150886145e0836148cf565b82815260059290921b840181019181810190868411156150a757600080fd5b8286015b848110156149715780516001600160401b038111156150ca5760008081fd5b6150d88986838b0101615022565b8452509183019183016150ab565b6000602082840312156150f857600080fd5b81516001600160401b0381111561510e57600080fd5b61448a84828501615067565b680292120a19d103737960bd1b81526000835161513e81600985016020880161464b565b7f207065726d697373696f6e20666f72207265736f757263652000000000000000600991840191820152835161517b81602284016020880161464b565b01602201949350505050565b600181811c9082168061519b57607f821691505b6020821081036151bb57634e487b7160e01b600052602260045260246000fd5b50919050565b8082018082111561095a5761095a614ff3565b6000602082840312156151e657600080fd5b81516113d5816149d5565b60006020828403121561520357600080fd5b81516113d581614799565b6000602080838503121561522157600080fd5b82516001600160401b038082111561523857600080fd5b818501915085601f83011261524c57600080fd5b815161525a6145e0826148cf565b81815260059190911b8301840190848101908883111561527957600080fd5b8585015b83811015615333578051858111156152955760008081fd5b86016060818c03601f19018113156152ad5760008081fd5b6152b5614548565b89830151888111156152c75760008081fd5b6152d58e8c83870101615022565b825250604080840151898111156152ec5760008081fd5b6152fa8f8d83880101615022565b838d0152509183015191888311156153125760008081fd5b6153208e8c85870101615067565b908201528552505091860191860161527d565b5098975050505050505050565b601f821115611b7a57600081815260208120601f850160051c810160208610156153675750805b601f850160051c820191505b81811015610f2c57828155600101615373565b81516001600160401b0381111561539f5761539f61450a565b6153b3816153ad8454615187565b84615340565b602080601f8311600181146153e857600084156153d05750858301515b600019600386901b1c1916600185901b178555610f2c565b600085815260208120601f198616915b82811015615417578886015182559484019460019091019084016153f8565b50858210156154355787850151600019600388901b60f8161c191681555b5050505050600190811b01905550565b60006020828403121561545757600080fd5b81516001600160401b0381111561546d57600080fd5b61448a84828501615022565b6000808335601e1984360301811261549057600080fd5b8301803591506001600160401b038211156154aa57600080fd5b6020019150368190038213156154bf57600080fd5b9250929050565b600060208083850312156154d957600080fd5b82516001600160401b038111156154ef57600080fd5b8301601f8101851361550057600080fd5b805161550e6145e0826148cf565b81815260059190911b8201830190838101908783111561552d57600080fd5b928401925b828410156135fc57835161554581614799565b82529284019290840190615532565b702b32ba37a3b937bab82937b632a337b91d60791b81526000825161558081601185016020870161464b565b9190910160110192915050565b6040815260006155a0604083018561466f565b828103602084015261477d8185614804565b6080815260006155c5608083018761466f565b82810360208401526155d7818761466f565b905082810360408401526155eb8186614804565b915050821515606083015295945050505050565b6001600160a01b038316815260406020820181905260009061448a90830184614804565b6c2b32ba37a3b937bab82337b91d60991b81526000825161564b81600d85016020870161464b565b91909101600d0192915050565b6d2220a7ab37ba34b733a937b6329d60911b81526000825161568181600e85016020870161464b565b91909101600e0192915050565b6d2220a7a6b2b6b132b92937b6329d60911b81526000825161568181600e85016020870161464b565b6d2220a7a2bc3832b93a2937b6329d60911b81526000825161568181600e85016020870161464b565b682220a7a3b937bab81d60b91b81526000825161570481600985016020870161464b565b9190910160090192915050565b742220a7a2bc3832b93a2b37ba34b733a3b937bab81d60591b81526000825161574181601585016020870161464b565b9190910160150192915050565b8181038181111561095a5761095a614ff3565b634e487b7160e01b600052603160045260246000fd5b6000835161578981846020880161464b565b601d60f91b90830190815283516157a781600184016020880161464b565b0160010194935050505056fe416464726573733a206c6f772d6c6576656c2064656c65676174652063616c6c206661696c6564a2646970667358221220232c1daffce9cde597d221894a9e2a36a5cefdd5dd4bc3b1422396ac618cc94964736f6c63430008130033",
  "linkReferences": {},
  "deployedLinkReferences": {}
}