{
  "_format": "hh-sol-artifact-1",
  "contractName": "DAOParameterStorage",
  "sourceName": "@q-dev/gdk-contracts/DAO/DAOParameterStorage.sol",
  "abi": [
    {
      "inputs": [
        {
          "internalType": "string",
          "name": "parameterName",
          "type": "string"
        }
      ],
      "name": "DAOParameterStorage__ParameterNotFound",
      "type": "error"
    },
    {
      "anonymous": false,
      "inputs": [
        {
          "indexed": false,
          "internalType": "uint8",
          "name": "version",
          "type": "uint8"
        }
      ],
      "name": "Initialized",
      "type": "event"
    },
    {
      "anonymous": false,
      "inputs": [
        {
          "components": [
            {
              "internalType": "string",
              "name": "name",
              "type": "string"
            },
            {
              "internalType": "bytes",
              "name": "value",
              "type": "bytes"
            },
            {
              "internalType": "enum ParameterType",
              "name": "solidityType",
              "type": "uint8"
            }
          ],
          "indexed": false,
          "internalType": "struct Parameter",
          "name": "parameter",
          "type": "tuple"
        }
      ],
      "name": "ParameterAdded",
      "type": "event"
    },
    {
      "anonymous": false,
      "inputs": [
        {
          "components": [
            {
              "internalType": "string",
              "name": "name",
              "type": "string"
            },
            {
              "internalType": "bytes",
              "name": "value",
              "type": "bytes"
            },
            {
              "internalType": "enum ParameterType",
              "name": "solidityType",
              "type": "uint8"
            }
          ],
          "indexed": false,
          "internalType": "struct Parameter",
          "name": "parameter",
          "type": "tuple"
        }
      ],
      "name": "ParameterChanged",
      "type": "event"
    },
    {
      "anonymous": false,
      "inputs": [
        {
          "indexed": false,
          "internalType": "string",
          "name": "parameterName",
          "type": "string"
        }
      ],
      "name": "ParameterRemoved",
      "type": "event"
    },
    {
      "inputs": [],
      "name": "DAO_PARAMETER_STORAGE_RESOURCE",
      "outputs": [
        {
          "internalType": "string",
          "name": "",
          "type": "string"
        }
      ],
      "stateMutability": "view",
      "type": "function"
    },
    {
      "inputs": [
        {
          "internalType": "string",
          "name": "resource_",
          "type": "string"
        }
      ],
      "name": "__DAOParameterStorage_init",
      "outputs": [],
      "stateMutability": "nonpayable",
      "type": "function"
    },
    {
      "inputs": [
        {
          "internalType": "address",
          "name": "member_",
          "type": "address"
        },
        {
          "internalType": "string",
          "name": "permission_",
          "type": "string"
        }
      ],
      "name": "checkPermission",
      "outputs": [
        {
          "internalType": "bool",
          "name": "",
          "type": "bool"
        }
      ],
      "stateMutability": "view",
      "type": "function"
    },
    {
      "inputs": [
        {
          "internalType": "string",
          "name": "parameterName_",
          "type": "string"
        }
      ],
      "name": "getDAOParameter",
      "outputs": [
        {
          "components": [
            {
              "internalType": "string",
              "name": "name",
              "type": "string"
            },
            {
              "internalType": "bytes",
              "name": "value",
              "type": "bytes"
            },
            {
              "internalType": "enum ParameterType",
              "name": "solidityType",
              "type": "uint8"
            }
          ],
          "internalType": "struct Parameter",
          "name": "",
          "type": "tuple"
        }
      ],
      "stateMutability": "view",
      "type": "function"
    },
    {
      "inputs": [],
      "name": "getDAOParameters",
      "outputs": [
        {
          "components": [
            {
              "internalType": "string",
              "name": "name",
              "type": "string"
            },
            {
              "internalType": "bytes",
              "name": "value",
              "type": "bytes"
            },
            {
              "internalType": "enum ParameterType",
              "name": "solidityType",
              "type": "uint8"
            }
          ],
          "internalType": "struct Parameter[]",
          "name": "",
          "type": "tuple[]"
        }
      ],
      "stateMutability": "view",
      "type": "function"
    },
    {
      "inputs": [],
      "name": "getInjector",
      "outputs": [
        {
          "internalType": "address",
          "name": "injector_",
          "type": "address"
        }
      ],
      "stateMutability": "view",
      "type": "function"
    },
    {
      "inputs": [],
      "name": "getResource",
      "outputs": [
        {
          "internalType": "string",
          "name": "",
          "type": "string"
        }
      ],
      "stateMutability": "view",
      "type": "function"
    },
    {
      "inputs": [],
      "name": "permissionManager",
      "outputs": [
        {
          "internalType": "contract PermissionManager",
          "name": "",
          "type": "address"
        }
      ],
      "stateMutability": "view",
      "type": "function"
    },
    {
      "inputs": [
        {
          "internalType": "string",
          "name": "parameterName_",
          "type": "string"
        }
      ],
      "name": "removeDAOParameter",
      "outputs": [],
      "stateMutability": "nonpayable",
      "type": "function"
    },
    {
      "inputs": [
        {
          "internalType": "string[]",
          "name": "parameterNames_",
          "type": "string[]"
        }
      ],
      "name": "removeDAOParameters",
      "outputs": [],
      "stateMutability": "nonpayable",
      "type": "function"
    },
    {
      "inputs": [
        {
          "components": [
            {
              "internalType": "string",
              "name": "name",
              "type": "string"
            },
            {
              "internalType": "bytes",
              "name": "value",
              "type": "bytes"
            },
            {
              "internalType": "enum ParameterType",
              "name": "solidityType",
              "type": "uint8"
            }
          ],
          "internalType": "struct Parameter",
          "name": "parameter_",
          "type": "tuple"
        }
      ],
      "name": "setDAOParameter",
      "outputs": [],
      "stateMutability": "nonpayable",
      "type": "function"
    },
    {
      "inputs": [
        {
          "components": [
            {
              "internalType": "string",
              "name": "name",
              "type": "string"
            },
            {
              "internalType": "bytes",
              "name": "value",
              "type": "bytes"
            },
            {
              "internalType": "enum ParameterType",
              "name": "solidityType",
              "type": "uint8"
            }
          ],
          "internalType": "struct Parameter[]",
          "name": "parameters_",
          "type": "tuple[]"
        }
      ],
      "name": "setDAOParameters",
      "outputs": [],
      "stateMutability": "nonpayable",
      "type": "function"
    },
    {
      "inputs": [
        {
          "internalType": "address",
          "name": "registryAddress_",
          "type": "address"
        },
        {
          "internalType": "bytes",
          "name": "",
          "type": "bytes"
        }
      ],
      "name": "setDependencies",
      "outputs": [],
      "stateMutability": "nonpayable",
      "type": "function"
    },
    {
      "inputs": [
        {
          "internalType": "address",
          "name": "injector_",
          "type": "address"
        }
      ],
      "name": "setInjector",
      "outputs": [],
      "stateMutability": "nonpayable",
      "type": "function"
    },
    {
      "inputs": [],
      "name": "votingType",
      "outputs": [
        {
          "internalType": "enum VotingType",
          "name": "",
          "type": "uint8"
        }
      ],
      "stateMutability": "view",
      "type": "function"
    }
  ],
  "bytecode": "0x608060405234801561001057600080fd5b50611e25806100206000396000f3fe608060405234801561001057600080fd5b50600436106100f55760003560e01c8063a9aa6a9b11610097578063cc7a204911610066578063cc7a2049146101f3578063d8ad4e1c1461020b578063d90925851461022e578063fcae0a441461024357600080fd5b8063a9aa6a9b146101a9578063ae71109c146101c3578063bb65dc83146101d8578063cabc429d146101e057600080fd5b806369130451116100d357806369130451146101505780637760fe67146101635780638cb941cc146101765780639646b1ac1461018957600080fd5b806314529092146100fa5780632b1c312e1461010f5780633e3b5b1914610122575b600080fd5b61010d6101083660046113e3565b610256565b005b61010d61011d3660046113e3565b6102c0565b600080516020611dd0833981519152545b6040516001600160a01b0390911681526020015b60405180910390f35b61010d61015e3660046114f6565b6103de565b61010d61017136600461155a565b61048a565b61010d61018436600461159c565b6104bd565b61019c6101973660046113e3565b6104db565b604051610147919061167e565b6002546101b69060ff1681565b6040516101479190611691565b6101cb610586565b60405161014791906116ab565b6101cb610614565b61010d6101ee36600461170a565b6106a6565b6002546101339061010090046001600160a01b031681565b61021e6102193660046114f6565b610716565b6040519015158152602001610147565b610236610792565b604051610147919061174c565b61010d61025136600461170a565b6107a3565b61027d6040518060400160405280600681526020016544454c45544560d01b815250610848565b6102bc82828080601f0160208091040260200160405190810160405280939291908181526020018383808284376000920191909152506108da92505050565b5050565b600054610100900460ff16158080156102e05750600054600160ff909116105b806102fa5750303b1580156102fa575060005460ff166001145b6103625760405162461bcd60e51b815260206004820152602e60248201527f496e697469616c697a61626c653a20636f6e747261637420697320616c72656160448201526d191e481a5b9a5d1a585b1a5e995960921b60648201526084015b60405180910390fd5b6000805460ff191660011790558015610385576000805461ff0019166101001790555b600161039283858361184b565b5080156103d9576000805461ff0019169055604051600181527f7f26b83ff96e1f2b6a682f133852f6798a09c465da95921460cefb38474024989060200160405180910390a15b505050565b6103e6610929565b6000829050806001600160a01b0316639a06df506040518163ffffffff1660e01b8152600401602060405180830381865afa158015610429573d6000803e3d6000fd5b505050506040513d601f19601f8201168201806040525081019061044d9190611906565b600260016101000a8154816001600160a01b0302191690836001600160a01b03160217905550506102bc33600080516020611dd083398151915255565b6104b16040518060400160405280600681526020016555504441544560d01b815250610848565b6104ba816109ad565b50565b6104c5610929565b6104ba81600080516020611dd083398151915255565b6104fb604080516060808201835280825260208201529081016000905290565b61053a83838080601f016020809104026020016040519081016040528093929190818152602001838380828437600092019190915250610a7392505050565b61057d83838080601f016020809104026020016040519081016040528093929190818152602001838380828437600092019190915250600393925050610a9d9050565b90505b92915050565b60018054610593906117ae565b80601f01602080910402602001604051908101604052809291908181526020018280546105bf906117ae565b801561060c5780601f106105e15761010080835404028352916020019161060c565b820191906000526020600020905b8154815290600101906020018083116105ef57829003601f168201915b505050505081565b606060018054610623906117ae565b80601f016020809104026020016040519081016040528092919081815260200182805461064f906117ae565b801561069c5780601f106106715761010080835404028352916020019161069c565b820191906000526020600020905b81548152906001019060200180831161067f57829003601f168201915b5050505050905090565b6106cd6040518060400160405280600681526020016555504441544560d01b815250610848565b60005b818110156103d9576107048383838181106106ed576106ed611923565b90506020028101906106ff9190611939565b6109ad565b8061070e8161196f565b9150506106d0565b600254604051633ca8e36d60e11b815260009161010090046001600160a01b031690637951c6da906107519086906001908790600401611988565b602060405180830381865afa15801561076e573d6000803e3d6000fd5b505050506040513d601f19601f8201168201806040525081019061057d9190611a36565b606061079e6003610c74565b905090565b6107ca6040518060400160405280600681526020016544454c45544560d01b815250610848565b60005b818110156103d9576108368383838181106107ea576107ea611923565b90506020028101906107fc9190611a58565b8080601f0160208091040260200160405190810160405280939291908181526020018383808284376000920191909152506108da92505050565b806108408161196f565b9150506107cd565b6108523382610716565b6104ba5760405162461bcd60e51b815260206004820152604d60248201527f5b5147444b2d3030353030305d2d5468652073656e646572206973206e6f742060448201527f616c6c6f77656420746f20706572666f726d2074686520616374696f6e2c206160648201526c31b1b2b9b9903232b734b2b21760991b608482015260a401610359565b6108e381610a73565b6108ee600382610e2e565b507f49ba54ccfa6d8676195170aa09aabbb0a33d4259f9f708f42517826c2ea7139b8160405161091e91906116ab565b60405180910390a150565b6000610941600080516020611dd08339815191525490565b90506001600160a01b038116158061096157506001600160a01b03811633145b6104ba5760405162461bcd60e51b815260206004820152601a60248201527f446570656e64616e743a206e6f7420616e20696e6a6563746f720000000000006044820152606401610359565b6109f86109ba8280611a58565b8080601f0160208091040260200160405190810160405280939291908181526020018383808284376000920191909152506003939250506111339050565b15610a3857610a08600382611160565b507ff7eb206277eeecfc5dc3d67bdafb1828efb1e4419b602e08ae49f9ffb0721b4b8160405161091e9190611b1b565b610a43600382611225565b507f9acff1bc36c03db9beac2f4d372ca4e51d0c816a61ab2c9062f360c5328164088160405161091e9190611b1b565b610a7e600382611133565b6104ba57806040516375b29ba760e01b815260040161035991906116ab565b610abd604080516060808201835280825260208201529081016000905290565b8260000160018460010184604051610ad59190611b86565b908152602001604051809103902054610aee9190611b98565b81548110610afe57610afe611923565b9060005260206000209060030201604051806060016040529081600082018054610b27906117ae565b80601f0160208091040260200160405190810160405280929190818152602001828054610b53906117ae565b8015610ba05780601f10610b7557610100808354040283529160200191610ba0565b820191906000526020600020905b815481529060010190602001808311610b8357829003601f168201915b50505050508152602001600182018054610bb9906117ae565b80601f0160208091040260200160405190810160405280929190818152602001828054610be5906117ae565b8015610c325780601f10610c0757610100808354040283529160200191610c32565b820191906000526020600020905b815481529060010190602001808311610c1557829003601f168201915b5050509183525050600282015460209091019060ff166005811115610c5957610c59611609565b6005811115610c6a57610c6a611609565b9052509392505050565b606081600001805480602002602001604051908101604052809291908181526020016000905b82821015610e235783829060005260206000209060030201604051806060016040529081600082018054610ccd906117ae565b80601f0160208091040260200160405190810160405280929190818152602001828054610cf9906117ae565b8015610d465780601f10610d1b57610100808354040283529160200191610d46565b820191906000526020600020905b815481529060010190602001808311610d2957829003601f168201915b50505050508152602001600182018054610d5f906117ae565b80601f0160208091040260200160405190810160405280929190818152602001828054610d8b906117ae565b8015610dd85780601f10610dad57610100808354040283529160200191610dd8565b820191906000526020600020905b815481529060010190602001808311610dbb57829003601f168201915b5050509183525050600282015460209091019060ff166005811115610dff57610dff611609565b6005811115610e1057610e10611609565b8152505081526020019060010190610c9a565b505050509050919050565b6000808360010183604051610e439190611b86565b908152602001604051809103902054905080600014611129576000610e69600183611b98565b8554909150600090610e7d90600190611b98565b90508181146110ab576000866000018281548110610e9d57610e9d611923565b9060005260206000209060030201604051806060016040529081600082018054610ec6906117ae565b80601f0160208091040260200160405190810160405280929190818152602001828054610ef2906117ae565b8015610f3f5780601f10610f1457610100808354040283529160200191610f3f565b820191906000526020600020905b815481529060010190602001808311610f2257829003601f168201915b50505050508152602001600182018054610f58906117ae565b80601f0160208091040260200160405190810160405280929190818152602001828054610f84906117ae565b8015610fd15780601f10610fa657610100808354040283529160200191610fd1565b820191906000526020600020905b815481529060010190602001808311610fb457829003601f168201915b5050509183525050600282015460209091019060ff166005811115610ff857610ff8611609565b600581111561100957611009611609565b8152505090508087600001848154811061102557611025611923565b6000918252602090912082516003909202019081906110449082611bab565b50602082015160018201906110599082611bab565b50604082015160028201805460ff1916600183600581111561107d5761107d611609565b021790555050815160405186925060018a019161109991611b86565b90815260405190819003602001902055505b85548690806110bc576110bc611c65565b600082815260208120600019909201916003830201906110dc8282611395565b6110ea600183016000611395565b50600201805460ff191690559055604051600187019061110b908790611b86565b90815260200160405180910390206000905560019350505050610580565b6000915050610580565b600082600101826040516111479190611b86565b9081526040519081900360200190205415159392505050565b60006111aa836111708480611a58565b8080601f01602080910402602001604051908101604052809392919081815260200183838082843760009201919091525061113392505050565b1561121d57818360018082016111c08480611a58565b6040516111ce929190611c7b565b9081526020016040518091039020546111e79190611b98565b815481106111f7576111f7611923565b906000526020600020906003020181816112119190611cbb565b90505060019050610580565b506000610580565b6000611235836111708480611a58565b61121d5760408051606081019091528390806112518580611a58565b8080601f01602080910402602001604051908101604052809392919081815260200183838082843760009201919091525050509082525060209081019061129a90860186611a58565b8080601f0160208091040260200160405190810160405280939291908181526020018383808284376000920191909152505050908252506020016112e46060860160408701611db2565b60058111156112f5576112f5611609565b9052815460018101835560009283526020909220815191926003020190819061131e9082611bab565b50602082015160018201906113339082611bab565b50604082015160028201805460ff1916600183600581111561135757611357611609565b021790555050835490506001840161136f8480611a58565b60405161137d929190611c7b565b90815260405190819003602001902055506001610580565b5080546113a1906117ae565b6000825580601f106113b1575050565b601f0160209004906000526020600020908101906104ba91905b808211156113df57600081556001016113cb565b5090565b600080602083850312156113f657600080fd5b823567ffffffffffffffff8082111561140e57600080fd5b818501915085601f83011261142257600080fd5b81358181111561143157600080fd5b86602082850101111561144357600080fd5b60209290920196919550909350505050565b6001600160a01b03811681146104ba57600080fd5b634e487b7160e01b600052604160045260246000fd5b600067ffffffffffffffff8084111561149b5761149b61146a565b604051601f8501601f19908116603f011681019082821181831017156114c3576114c361146a565b816040528093508581528686860111156114dc57600080fd5b858560208301376000602087830101525050509392505050565b6000806040838503121561150957600080fd5b823561151481611455565b9150602083013567ffffffffffffffff81111561153057600080fd5b8301601f8101851361154157600080fd5b61155085823560208401611480565b9150509250929050565b60006020828403121561156c57600080fd5b813567ffffffffffffffff81111561158357600080fd5b82016060818503121561159557600080fd5b9392505050565b6000602082840312156115ae57600080fd5b813561159581611455565b60005b838110156115d45781810151838201526020016115bc565b50506000910152565b600081518084526115f58160208601602086016115b9565b601f01601f19169290920160200192915050565b634e487b7160e01b600052602160045260246000fd5b6006811061162f5761162f611609565b9052565b600081516060845261164860608501826115dd565b90506020830151848203602086015261166182826115dd565b9150506040830151611676604086018261161f565b509392505050565b60208152600061057d6020830184611633565b60208101600383106116a5576116a5611609565b91905290565b60208152600061057d60208301846115dd565b60008083601f8401126116d057600080fd5b50813567ffffffffffffffff8111156116e857600080fd5b6020830191508360208260051b850101111561170357600080fd5b9250929050565b6000806020838503121561171d57600080fd5b823567ffffffffffffffff81111561173457600080fd5b611740858286016116be565b90969095509350505050565b6000602080830181845280855180835260408601915060408160051b870101925083870160005b828110156117a157603f1988860301845261178f858351611633565b94509285019290850190600101611773565b5092979650505050505050565b600181811c908216806117c257607f821691505b6020821081036117e257634e487b7160e01b600052602260045260246000fd5b50919050565b601f8211156103d957600081815260208120601f850160051c8101602086101561180f5750805b601f850160051c820191505b8181101561182e5782815560010161181b565b505050505050565b600019600383901b1c191660019190911b1790565b67ffffffffffffffff8311156118635761186361146a565b6118778361187183546117ae565b836117e8565b6000601f8411600181146118a557600085156118935750838201355b61189d8682611836565b8455506118ff565b600083815260209020601f19861690835b828110156118d657868501358255602094850194600190920191016118b6565b50868210156118f35760001960f88860031b161c19848701351681555b505060018560011b0183555b5050505050565b60006020828403121561191857600080fd5b815161159581611455565b634e487b7160e01b600052603260045260246000fd5b60008235605e1983360301811261194f57600080fd5b9190910192915050565b634e487b7160e01b600052601160045260246000fd5b60006001820161198157611981611959565b5060010190565b60018060a01b038416815260006020606081840152600085546119aa816117ae565b80606087015260806001808416600081146119cc57600181146119e657611a14565b60ff1985168984015283151560051b890183019550611a14565b8a6000528660002060005b85811015611a0c5781548b82018601529083019088016119f1565b8a0184019650505b50505050508381036040850152611a2b81866115dd565b979650505050505050565b600060208284031215611a4857600080fd5b8151801515811461159557600080fd5b6000808335601e19843603018112611a6f57600080fd5b83018035915067ffffffffffffffff821115611a8a57600080fd5b60200191503681900382131561170357600080fd5b6000808335601e19843603018112611ab657600080fd5b830160208101925035905067ffffffffffffffff811115611ad657600080fd5b80360382131561170357600080fd5b81835281816020850137506000828201602090810191909152601f909101601f19169091010190565b600681106104ba57600080fd5b602081526000611b2b8384611a9f565b60606020850152611b40608085018284611ae5565b915050611b506020850185611a9f565b848303601f19016040860152611b67838284611ae5565b925050506040840135611b7981611b0e565b611676606085018261161f565b6000825161194f8184602087016115b9565b8181038181111561058057610580611959565b815167ffffffffffffffff811115611bc557611bc561146a565b611bd981611bd384546117ae565b846117e8565b602080601f831160018114611c085760008415611bf65750858301515b611c008582611836565b86555061182e565b600085815260208120601f198616915b82811015611c3757888601518255948401946001909101908401611c18565b5085821015611c555787850151600019600388901b60f8161c191681555b5050505050600190811b01905550565b634e487b7160e01b600052603160045260246000fd5b8183823760009101908152919050565b6000813561058081611b0e565b60068210611ca857611ca8611609565b60ff1981541660ff831681178255505050565b611cc58283611a58565b67ffffffffffffffff811115611cdd57611cdd61146a565b611cf181611ceb85546117ae565b856117e8565b6000601f821160018114611d1f5760008315611d0d5750838201355b611d178482611836565b865550611d79565b600085815260209020601f19841690835b82811015611d505786850135825560209485019460019092019101611d30565b5084821015611d6d5760001960f88660031b161c19848701351681555b505060018360011b0185555b50505050611d8a6020830183611a58565b611d9881836001860161184b565b50506102bc611da960408401611c8b565b60028301611c98565b600060208284031215611dc457600080fd5b813561159581611b0e56fe3d1f25f1ac447e55e7fec744471c4dab1c6a2b6ffb897825f9ea3d2e8c9be583a264697066735822122009489600d781e64fdd637178b9d099fe731d9d10c852751296188db24cd5a83864736f6c63430008130033",
  "linkReferences": {},
  "deployedLinkReferences": {}
}