{
  "_format": "hh-sol-artifact-1",
  "contractName": "DAOVault",
  "sourceName": "@q-dev/gdk-contracts/DAO/DAOVault.sol",
  "abi": [
    {
      "inputs": [
        {
          "internalType": "string",
          "name": "name",
          "type": "string"
        },
        {
          "internalType": "enum ParameterType",
          "name": "expected",
          "type": "uint8"
        },
        {
          "internalType": "enum ParameterType",
          "name": "actual",
          "type": "uint8"
        }
      ],
      "name": "InvalidParameterType",
      "type": "error"
    },
    {
      "anonymous": false,
      "inputs": [
        {
          "indexed": true,
          "internalType": "address",
          "name": "tokenAddress",
          "type": "address"
        },
        {
          "indexed": true,
          "internalType": "address",
          "name": "sender",
          "type": "address"
        }
      ],
      "name": "AuthenticatedBySBT",
      "type": "event"
    },
    {
      "anonymous": false,
      "inputs": [
        {
          "indexed": true,
          "internalType": "address",
          "name": "tokenAddress",
          "type": "address"
        },
        {
          "indexed": true,
          "internalType": "address",
          "name": "sender",
          "type": "address"
        }
      ],
      "name": "AuthorizedBySBT",
      "type": "event"
    },
    {
      "anonymous": false,
      "inputs": [
        {
          "indexed": true,
          "internalType": "address",
          "name": "user",
          "type": "address"
        }
      ],
      "name": "ConstitutionSigned",
      "type": "event"
    },
    {
      "anonymous": false,
      "inputs": [
        {
          "indexed": false,
          "internalType": "uint8",
          "name": "version",
          "type": "uint8"
        }
      ],
      "name": "Initialized",
      "type": "event"
    },
    {
      "anonymous": false,
      "inputs": [
        {
          "indexed": true,
          "internalType": "address",
          "name": "tokenAddress",
          "type": "address"
        },
        {
          "indexed": true,
          "internalType": "address",
          "name": "sender",
          "type": "address"
        },
        {
          "indexed": false,
          "internalType": "uint256",
          "name": "tokenId",
          "type": "uint256"
        }
      ],
      "name": "NFTDeposited",
      "type": "event"
    },
    {
      "anonymous": false,
      "inputs": [
        {
          "indexed": true,
          "internalType": "address",
          "name": "tokenAddress",
          "type": "address"
        },
        {
          "indexed": true,
          "internalType": "address",
          "name": "sender",
          "type": "address"
        },
        {
          "indexed": false,
          "internalType": "uint256",
          "name": "tokenId",
          "type": "uint256"
        },
        {
          "indexed": false,
          "internalType": "uint256",
          "name": "unlockTime",
          "type": "uint256"
        }
      ],
      "name": "NFTLocked",
      "type": "event"
    },
    {
      "anonymous": false,
      "inputs": [
        {
          "indexed": true,
          "internalType": "address",
          "name": "tokenAddress",
          "type": "address"
        },
        {
          "indexed": true,
          "internalType": "address",
          "name": "sender",
          "type": "address"
        },
        {
          "indexed": false,
          "internalType": "uint256",
          "name": "tokenId",
          "type": "uint256"
        }
      ],
      "name": "NFTWithdrew",
      "type": "event"
    },
    {
      "anonymous": false,
      "inputs": [
        {
          "indexed": true,
          "internalType": "address",
          "name": "tokenAddress",
          "type": "address"
        },
        {
          "indexed": true,
          "internalType": "address",
          "name": "sender",
          "type": "address"
        }
      ],
      "name": "SBTAuthorizationRevoked",
      "type": "event"
    },
    {
      "anonymous": false,
      "inputs": [
        {
          "indexed": true,
          "internalType": "address",
          "name": "tokenAddress",
          "type": "address"
        },
        {
          "indexed": true,
          "internalType": "address",
          "name": "sender",
          "type": "address"
        },
        {
          "indexed": false,
          "internalType": "uint256",
          "name": "amount",
          "type": "uint256"
        }
      ],
      "name": "TokensDeposited",
      "type": "event"
    },
    {
      "anonymous": false,
      "inputs": [
        {
          "indexed": true,
          "internalType": "address",
          "name": "tokenAddress",
          "type": "address"
        },
        {
          "indexed": true,
          "internalType": "address",
          "name": "sender",
          "type": "address"
        },
        {
          "indexed": false,
          "internalType": "uint256",
          "name": "amount",
          "type": "uint256"
        },
        {
          "indexed": false,
          "internalType": "uint256",
          "name": "unlockTime",
          "type": "uint256"
        }
      ],
      "name": "TokensLocked",
      "type": "event"
    },
    {
      "anonymous": false,
      "inputs": [
        {
          "indexed": true,
          "internalType": "address",
          "name": "tokenAddress",
          "type": "address"
        },
        {
          "indexed": true,
          "internalType": "address",
          "name": "sender",
          "type": "address"
        },
        {
          "indexed": false,
          "internalType": "uint256",
          "name": "amount",
          "type": "uint256"
        }
      ],
      "name": "TokensWithdrew",
      "type": "event"
    },
    {
      "inputs": [],
      "name": "CONNECTED_DAO_REGISTRY",
      "outputs": [
        {
          "internalType": "string",
          "name": "",
          "type": "string"
        }
      ],
      "stateMutability": "view",
      "type": "function"
    },
    {
      "inputs": [],
      "name": "DAO_VAULT_RESOURCE",
      "outputs": [
        {
          "internalType": "string",
          "name": "",
          "type": "string"
        }
      ],
      "stateMutability": "view",
      "type": "function"
    },
    {
      "inputs": [],
      "name": "MAX_LOCKED_TIME",
      "outputs": [
        {
          "internalType": "uint256",
          "name": "",
          "type": "uint256"
        }
      ],
      "stateMutability": "view",
      "type": "function"
    },
    {
      "inputs": [
        {
          "internalType": "contract DAORegistry",
          "name": "dao_",
          "type": "address"
        }
      ],
      "name": "__DAOVault_init",
      "outputs": [],
      "stateMutability": "nonpayable",
      "type": "function"
    },
    {
      "inputs": [
        {
          "internalType": "address",
          "name": "tokenAddress_",
          "type": "address"
        }
      ],
      "name": "authorizeBySBT",
      "outputs": [],
      "stateMutability": "nonpayable",
      "type": "function"
    },
    {
      "inputs": [
        {
          "internalType": "address",
          "name": "tokenAddress_",
          "type": "address"
        },
        {
          "internalType": "uint256",
          "name": "amount_",
          "type": "uint256"
        }
      ],
      "name": "depositERC20",
      "outputs": [],
      "stateMutability": "nonpayable",
      "type": "function"
    },
    {
      "inputs": [
        {
          "internalType": "address",
          "name": "tokenAddress_",
          "type": "address"
        },
        {
          "internalType": "uint256",
          "name": "tokenId_",
          "type": "uint256"
        }
      ],
      "name": "depositNFT",
      "outputs": [],
      "stateMutability": "nonpayable",
      "type": "function"
    },
    {
      "inputs": [],
      "name": "depositNative",
      "outputs": [],
      "stateMutability": "payable",
      "type": "function"
    },
    {
      "inputs": [],
      "name": "getInjector",
      "outputs": [
        {
          "internalType": "address",
          "name": "injector_",
          "type": "address"
        }
      ],
      "stateMutability": "view",
      "type": "function"
    },
    {
      "inputs": [
        {
          "internalType": "address",
          "name": "userAddress_",
          "type": "address"
        },
        {
          "internalType": "address",
          "name": "tokenAddress_",
          "type": "address"
        }
      ],
      "name": "getTimeLockInfo",
      "outputs": [
        {
          "components": [
            {
              "internalType": "uint256",
              "name": "withdrawalAmount",
              "type": "uint256"
            },
            {
              "internalType": "uint256",
              "name": "lockedAmount",
              "type": "uint256"
            },
            {
              "internalType": "uint256",
              "name": "unlockTime",
              "type": "uint256"
            }
          ],
          "internalType": "struct IDAOVault.TomeLockInfo",
          "name": "info_",
          "type": "tuple"
        }
      ],
      "stateMutability": "view",
      "type": "function"
    },
    {
      "inputs": [
        {
          "internalType": "address",
          "name": "tokenAddress_",
          "type": "address"
        }
      ],
      "name": "getTokenSupply",
      "outputs": [
        {
          "internalType": "uint256",
          "name": "",
          "type": "uint256"
        }
      ],
      "stateMutability": "view",
      "type": "function"
    },
    {
      "inputs": [
        {
          "internalType": "address",
          "name": "userAddress_",
          "type": "address"
        }
      ],
      "name": "getUserConstitutionData",
      "outputs": [
        {
          "components": [
            {
              "internalType": "bool",
              "name": "isSigned",
              "type": "bool"
            },
            {
              "internalType": "uint128",
              "name": "signedAt",
              "type": "uint128"
            }
          ],
          "internalType": "struct IDAOVault.ConstitutionData",
          "name": "",
          "type": "tuple"
        }
      ],
      "stateMutability": "view",
      "type": "function"
    },
    {
      "inputs": [
        {
          "internalType": "address",
          "name": "userAddress_",
          "type": "address"
        },
        {
          "internalType": "address",
          "name": "tokenAddress_",
          "type": "address"
        }
      ],
      "name": "getUserNFTs",
      "outputs": [
        {
          "internalType": "uint256[]",
          "name": "",
          "type": "uint256[]"
        }
      ],
      "stateMutability": "view",
      "type": "function"
    },
    {
      "inputs": [
        {
          "internalType": "address",
          "name": "userAddress_",
          "type": "address"
        }
      ],
      "name": "getUserTokens",
      "outputs": [
        {
          "internalType": "address[]",
          "name": "",
          "type": "address[]"
        }
      ],
      "stateMutability": "view",
      "type": "function"
    },
    {
      "inputs": [
        {
          "internalType": "address",
          "name": "userAddress_",
          "type": "address"
        },
        {
          "internalType": "address",
          "name": "tokenAddress_",
          "type": "address"
        }
      ],
      "name": "getUserVotingPower",
      "outputs": [
        {
          "internalType": "uint256",
          "name": "",
          "type": "uint256"
        }
      ],
      "stateMutability": "view",
      "type": "function"
    },
    {
      "inputs": [
        {
          "internalType": "address",
          "name": "sender_",
          "type": "address"
        },
        {
          "internalType": "address",
          "name": "tokenAddress_",
          "type": "address"
        }
      ],
      "name": "isAuthorizedBySBT",
      "outputs": [
        {
          "internalType": "bool",
          "name": "",
          "type": "bool"
        }
      ],
      "stateMutability": "view",
      "type": "function"
    },
    {
      "inputs": [
        {
          "internalType": "address",
          "name": "tokenAddress_",
          "type": "address"
        }
      ],
      "name": "isSupportedNFT",
      "outputs": [
        {
          "internalType": "bool",
          "name": "",
          "type": "bool"
        }
      ],
      "stateMutability": "view",
      "type": "function"
    },
    {
      "inputs": [
        {
          "internalType": "address",
          "name": "tokenAddress_",
          "type": "address"
        }
      ],
      "name": "isSupportedSBT",
      "outputs": [
        {
          "internalType": "bool",
          "name": "",
          "type": "bool"
        }
      ],
      "stateMutability": "view",
      "type": "function"
    },
    {
      "inputs": [
        {
          "internalType": "address",
          "name": "sender_",
          "type": "address"
        },
        {
          "internalType": "address",
          "name": "tokenAddress_",
          "type": "address"
        },
        {
          "internalType": "uint256",
          "name": "amount_",
          "type": "uint256"
        },
        {
          "internalType": "uint256",
          "name": "timeToLock_",
          "type": "uint256"
        }
      ],
      "name": "lock",
      "outputs": [],
      "stateMutability": "nonpayable",
      "type": "function"
    },
    {
      "inputs": [
        {
          "internalType": "address",
          "name": "",
          "type": "address"
        },
        {
          "internalType": "address",
          "name": "",
          "type": "address"
        }
      ],
      "name": "lockedTokens",
      "outputs": [
        {
          "components": [
            {
              "internalType": "bytes32[]",
              "name": "_values",
              "type": "bytes32[]"
            },
            {
              "internalType": "uint256[]",
              "name": "_priorities",
              "type": "uint256[]"
            }
          ],
          "internalType": "struct PriorityQueue.Queue",
          "name": "_queue",
          "type": "tuple"
        }
      ],
      "stateMutability": "view",
      "type": "function"
    },
    {
      "inputs": [],
      "name": "permissionManager",
      "outputs": [
        {
          "internalType": "contract PermissionManager",
          "name": "",
          "type": "address"
        }
      ],
      "stateMutability": "view",
      "type": "function"
    },
    {
      "inputs": [
        {
          "internalType": "address",
          "name": "tokenAddress_",
          "type": "address"
        }
      ],
      "name": "revokeSBTAuthorization",
      "outputs": [],
      "stateMutability": "nonpayable",
      "type": "function"
    },
    {
      "inputs": [
        {
          "internalType": "address",
          "name": "registryAddress_",
          "type": "address"
        },
        {
          "internalType": "bytes",
          "name": "",
          "type": "bytes"
        }
      ],
      "name": "setDependencies",
      "outputs": [],
      "stateMutability": "nonpayable",
      "type": "function"
    },
    {
      "inputs": [
        {
          "internalType": "address",
          "name": "injector_",
          "type": "address"
        }
      ],
      "name": "setInjector",
      "outputs": [],
      "stateMutability": "nonpayable",
      "type": "function"
    },
    {
      "inputs": [
        {
          "internalType": "address",
          "name": "signer_",
          "type": "address"
        },
        {
          "internalType": "bytes",
          "name": "signature_",
          "type": "bytes"
        }
      ],
      "name": "signConstitution",
      "outputs": [],
      "stateMutability": "nonpayable",
      "type": "function"
    },
    {
      "inputs": [
        {
          "internalType": "address",
          "name": "",
          "type": "address"
        }
      ],
      "name": "tokenBalance",
      "outputs": [
        {
          "internalType": "uint256",
          "name": "",
          "type": "uint256"
        }
      ],
      "stateMutability": "view",
      "type": "function"
    },
    {
      "inputs": [
        {
          "internalType": "address",
          "name": "",
          "type": "address"
        },
        {
          "internalType": "address",
          "name": "",
          "type": "address"
        }
      ],
      "name": "userTokenBalance",
      "outputs": [
        {
          "internalType": "uint256",
          "name": "",
          "type": "uint256"
        }
      ],
      "stateMutability": "view",
      "type": "function"
    },
    {
      "inputs": [
        {
          "internalType": "address",
          "name": "tokenAddress_",
          "type": "address"
        },
        {
          "internalType": "uint256",
          "name": "amount_",
          "type": "uint256"
        }
      ],
      "name": "withdrawERC20",
      "outputs": [],
      "stateMutability": "nonpayable",
      "type": "function"
    },
    {
      "inputs": [
        {
          "internalType": "address",
          "name": "tokenAddress_",
          "type": "address"
        },
        {
          "internalType": "uint256",
          "name": "tokenId_",
          "type": "uint256"
        }
      ],
      "name": "withdrawNFT",
      "outputs": [],
      "stateMutability": "nonpayable",
      "type": "function"
    },
    {
      "inputs": [
        {
          "internalType": "uint256",
          "name": "amount_",
          "type": "uint256"
        }
      ],
      "name": "withdrawNative",
      "outputs": [],
      "stateMutability": "nonpayable",
      "type": "function"
    },
    {
      "stateMutability": "payable",
      "type": "receive"
    }
  ],
  "bytecode": "0x608060405234801561001057600080fd5b50614385806100206000396000f3fe6080604052600436106101d15760003560e01c806384276d81116100f7578063b47064c811610095578063db6b524611610064578063db6b524614610668578063eedc966a14610670578063f2866c781461069d578063f785a1b5146106bd57600080fd5b8063b47064c8146105d0578063c615f5ff14610608578063cc7a204914610628578063d62f0f051461064857600080fd5b80638cb941cc116100d15780638cb941cc1461055057806397feb926146105705780639b5b9b1814610590578063a1db9782146105b057600080fd5b806384276d81146104fb5780638a729d571461051b5780638c9b2f191461053b57600080fd5b80633e3b5b191161016f5780635f10bb5a1161013e5780635f10bb5a1461047b5780636088e93a1461049b57806365ed3619146104bb57806369130451146104db57600080fd5b80633e3b5b19146103d85780634b86c2251461040e578063519dc8d21461042e5780635ba6fdae1461045b57600080fd5b80631a056203116101ab5780631a056203146102a95780631b465d85146103405780631b956801146103705780633291bc001461039657600080fd5b80630774e003146101fb578063155ad9da1461023157806316b728171461025e57600080fd5b366101f6576101f473eeeeeeeeeeeeeeeeeeeeeeeeeeeeeeeeeeeeeeee346106dd565b005b600080fd5b34801561020757600080fd5b5061021b6102163660046139ed565b6108d4565b6040516102289190613a61565b60405180910390f35b34801561023d57600080fd5b5061025161024c3660046139ed565b6109a4565b6040516102289190613ac2565b34801561026a57600080fd5b5061029c6040518060400160405280601281526020017144414f5f5641554c545f5245534f5552434560701b81525081565b6040516102289190613b25565b3480156102b557600080fd5b5061031a6102c4366004613b38565b6040805180820190915260008082526020820152506001600160a01b031660009081526008602090815260409182902082518084019093525460ff81161515835261010090046001600160801b03169082015290565b604080518251151581526020928301516001600160801b03169281019290925201610228565b34801561034c57600080fd5b5061036061035b3660046139ed565b6109de565b6040519015158152602001610228565b34801561037c57600080fd5b506103886301e1338081565b604051908152602001610228565b3480156103a257600080fd5b506103b66103b13660046139ed565b610a73565b6040805182518152602080840151908201529181015190820152606001610228565b3480156103e457600080fd5b50600080516020614330833981519152545b6040516001600160a01b039091168152602001610228565b34801561041a57600080fd5b506101f4610429366004613b55565b610b07565b34801561043a57600080fd5b5061044e610449366004613b38565b610d05565b6040516102289190613b9b565b34801561046757600080fd5b506101f4610476366004613b38565b610d29565b34801561048757600080fd5b506103886104963660046139ed565b610ea7565b3480156104a757600080fd5b506101f46104b6366004613be8565b610fb2565b3480156104c757600080fd5b506101f46104d6366004613b38565b61117d565b3480156104e757600080fd5b506101f46104f6366004613cac565b6112dd565b34801561050757600080fd5b506101f4610516366004613d3f565b611382565b34801561052757600080fd5b50610360610536366004613b38565b6113a3565b34801561054757600080fd5b5061029c6113cf565b34801561055c57600080fd5b506101f461056b366004613b38565b61145d565b34801561057c57600080fd5b506101f461058b366004613be8565b61147b565b34801561059c57600080fd5b506101f46105ab366004613be8565b6114fd565b3480156105bc57600080fd5b506101f46105cb366004613be8565b6116d4565b3480156105dc57600080fd5b506103886105eb3660046139ed565b600360209081526000928352604080842090915290825290205481565b34801561061457600080fd5b506101f4610623366004613b38565b6116de565b34801561063457600080fd5b506002546103f6906001600160a01b031681565b34801561065457600080fd5b50610360610663366004613b38565b6117aa565b6101f46117e7565b34801561067c57600080fd5b5061038861068b366004613b38565b60056020526000908152604090205481565b3480156106a957600080fd5b506103886106b8366004613b38565b611807565b3480156106c957600080fd5b506101f46106d8366004613d58565b6118ac565b336106e781611aa2565b3360009081526006602052604090206107009084611b1d565b503360009081526003602090815260408083206001600160a01b038716845290915281208054849290610734908490613df3565b90915550506001600160a01b03831660009081526005602052604081208054849290610761908490613df3565b9091555050600254600180546001600160a01b039092169163fcddfd4a913391610812919061078f90613e06565b80601f01602080910402602001604051908101604052809291908181526020018280546107bb90613e06565b80156108085780601f106107dd57610100808354040283529160200191610808565b820191906000526020600020905b8154815290600101906020018083116107eb57829003601f168201915b5050505050611b32565b6040518363ffffffff1660e01b815260040161082f929190613e40565b600060405180830381600087803b15801561084957600080fd5b505af115801561085d573d6000803e3d6000fd5b50503360009081526004602090815260408083206001600160a01b0389168452909152902061088e92509050611b6a565b60405182815233906001600160a01b038516907fcbc4a4091b012bb1329c38bbbb15455f5cac5aa3673da0a7f38cd61a4f495517906020015b60405180910390a3505050565b600460209081526000928352604080842082529183529181902081518154606094810282018501845292810183815291939092849284929091849184018282801561093e57602002820191906000526020600020905b81548152602001906001019080831161092a575b505050505081526020016001820180548060200260200160405190810160405280929190818152602001828054801561099657602002820191906000526020600020905b815481526020019060010190808311610982575b505050505081525050905081565b6001600160a01b0380831660009081526007602090815260408083209385168352929052206060906109d590611b9e565b90505b92915050565b60006109e9826113a3565b8015610a5d57506040516370a0823160e01b81526001600160a01b0384811660048301528316906370a0823190602401602060405180830381865afa158015610a36573d6000803e3d6000fd5b505050506040513d601f19601f82011682018060405250810190610a5a9190613eb2565b15155b15610a6a575060016109d8565b50600092915050565b610a9760405180606001604052806000815260200160008152602001600081525090565b6001600160a01b03808416600081815260036020908152604080832094871680845294825280832054938352600482528083209483529390529182209091908190610ae29084611bb2565b8186529092509050610af48284613ecb565b6020850152604084015250909392505050565b610b2e6040518060400160405280600681526020016555504441544560d01b815250611cab565b83610b3881611aa2565b610b46426301e13380613df3565b821115610baa5760405162461bcd60e51b815260206004820152602760248201527f5b5147444b2d3030373030325d2d546865206c6f636b2074696d65206973207460448201526637b7903134b39760c91b60648201526084015b60405180910390fd5b610bb3846113a3565b15610c0757610bc28585611dce565b846001600160a01b0316846001600160a01b03167febd9c0ebdf8165fc5da27059cc612a2a9a554570ae02eaffebd5927e0b42ba0360405160405180910390a3610cfe565b610c10846117aa565b15610c2557610c20858584611f06565b610cfe565b60008311610c9b5760405162461bcd60e51b815260206004820152603760248201527f5b5147444b2d3030373030335d2d54686520616d6f756e7420746f206c6f636b60448201527f2073686f756c64206265206d6f7265207468616e20302e0000000000000000006064820152608401610ba1565b610ca785858585612043565b846001600160a01b0316846001600160a01b03167fc8b76441f0c994977de3f73de32b3573a68b94e5d786ffd899638438754c9de98585604051610cf5929190918252602082015260400190565b60405180910390a35b5050505050565b6001600160a01b03811660009081526006602052604090206060906109d890611b9e565b600054610100900460ff1615808015610d495750600054600160ff909116105b80610d635750303b158015610d63575060005460ff166001145b610dc65760405162461bcd60e51b815260206004820152602e60248201527f496e697469616c697a61626c653a20636f6e747261637420697320616c72656160448201526d191e481a5b9a5d1a585b1a5e995960921b6064820152608401610ba1565b6000805460ff191660011790558015610de9576000805461ff0019166101001790555b816001600160a01b0316633e4beca16040518163ffffffff1660e01b8152600401600060405180830381865afa158015610e27573d6000803e3d6000fd5b505050506040513d6000823e601f3d908101601f19168201604052610e4f9190810190613f2e565b600190610e5c9082613fb1565b508015610ea3576000805461ff0019169055604051600181527f7f26b83ff96e1f2b6a682f133852f6798a09c465da95921460cefb38474024989060200160405180910390a15b5050565b6000610eb2826113a3565b15610f3c576040516370a0823160e01b81526001600160a01b0384811660048301528316906370a0823190602401602060405180830381865afa158015610efd573d6000803e3d6000fd5b505050506040513d601f19601f82011682018060405250810190610f219190613eb2565b600003610f2f576000610f32565b60015b60ff1690506109d8565b610f45826117aa565b15610f86576001600160a01b0380841660009081526007602090815260408083209386168352929052908120610f7a9061212d565b11610f2f576000610f32565b506001600160a01b03918216600090815260036020908152604080832093909416825291909152205490565b3360009081526004602090815260408083206001600160a01b03861684529091529020610fdf9082612137565b6110405760405162461bcd60e51b815260206004820152602c60248201527f5b5147444b2d3030373030345d2d547279696e6720746f20776974686472617760448201526b103637b1b5b2b21027232a1760a11b6064820152608401610ba1565b3360009081526007602090815260408083206001600160a01b0386168452909152812061106d90826121b4565b3360009081526007602090815260408083206001600160a01b0388168452909152902090915061109d90826121c0565b503360009081526007602090815260408083206001600160a01b038716845290915290206110ca9061212d565b6000036110da576110da836121cc565b6040516323b872dd60e01b8152306004820152336024820152604481018290526001600160a01b038416906323b872dd90606401600060405180830381600087803b15801561112857600080fd5b505af115801561113c573d6000803e3d6000fd5b50506040518481523392506001600160a01b03861691507fc617bea150d0faba989138893645e26986fe9575047f0976d166a8d368a68acf906020016108c7565b3361118781611aa2565b61119133836109de565b6112115760405162461bcd60e51b815260206004820152604560248201527f5b5147444b2d3030373030315d2d5468652075736572206973206e6f7420617560448201527f74686f72697a6564206f7220746f6b656e20646f6573206e6f7420737570706f606482015264393a32b21760d91b608482015260a401610ba1565b33600090815260066020526040902061122a9083611b1d565b50600254600180546001600160a01b039092169163fcddfd4a913391611254919061078f90613e06565b6040518363ffffffff1660e01b8152600401611271929190613e40565b600060405180830381600087803b15801561128b57600080fd5b505af115801561129f573d6000803e3d6000fd5b50506040513392506001600160a01b03851691507f7ab50fbe6badc8cf1b546b0ac8273949b92081d7ac314cff86422dd35676a59090600090a35050565b6112e5612279565b6000829050806001600160a01b0316639a06df506040518163ffffffff1660e01b8152600401602060405180830381865afa158015611328573d6000803e3d6000fd5b505050506040513d601f19601f8201168201806040525081019061134c9190614071565b600280546001600160a01b0319166001600160a01b03929092169190911790555033600080516020614330833981519152555050565b6113a073eeeeeeeeeeeeeeeeeeeeeeeeeeeeeeeeeeeeeeee826122fd565b50565b60006113ae826117aa565b80156109d857506109d86001600160a01b038316630489b56f60e01b612556565b600180546113dc90613e06565b80601f016020809104026020016040519081016040528092919081815260200182805461140890613e06565b80156114555780601f1061142a57610100808354040283529160200191611455565b820191906000526020600020905b81548152906001019060200180831161143857829003601f168201915b505050505081565b611465612279565b6113a08160008051602061433083398151915255565b6040516323b872dd60e01b8152336004820152306024820152604481018290526001600160a01b038316906323b872dd906064016020604051808303816000875af11580156114ce573d6000803e3d6000fd5b505050506040513d601f19601f820116820180604052508101906114f2919061408e565b50610ea382826106dd565b3361150781611aa2565b611510836117aa565b6115705760405162461bcd60e51b815260206004820152602b60248201527f5b5147444b2d3030373030305d2d54686520746f6b656e20646f6573206e6f7460448201526a1039bab83837b93a32b21760a91b6064820152608401610ba1565b6040516323b872dd60e01b8152336004820152306024820152604481018390526001600160a01b038416906323b872dd90606401600060405180830381600087803b1580156115be57600080fd5b505af11580156115d2573d6000803e3d6000fd5b50503360009081526006602052604090206115f09250905084611b1d565b503360009081526007602090815260408083206001600160a01b0387168452909152902061161e9083612572565b50600254600180546001600160a01b039092169163fcddfd4a913391611648919061078f90613e06565b6040518363ffffffff1660e01b8152600401611665929190613e40565b600060405180830381600087803b15801561167f57600080fd5b505af1158015611693573d6000803e3d6000fd5b50506040518481523392506001600160a01b03861691507f2214288c094665e4969e2968c71e56e0ab3c69646a5c773ec8c2a7ca3bf18808906020016108c7565b610ea382826122fd565b6116e833826109de565b6117685760405162461bcd60e51b815260206004820152604560248201527f5b5147444b2d3030373030355d2d5468652075736572206973206e6f7420617560448201527f74686f72697a6564206f7220746f6b656e20646f6573206e6f7420737570706f606482015264393a32b21760d91b608482015260a401610ba1565b611771816121cc565b60405133906001600160a01b038316907f6a6868ce3517ae462252ae560c23849f8e855d8d526b13f928c896f534b6afb490600090a350565b60006117c66001600160a01b0383166380ac58cd60e01b612556565b80156109d857506109d86001600160a01b03831663780e9d6360e01b612556565b61180573eeeeeeeeeeeeeeeeeeeeeeeeeeeeeeeeeeeeeeee346106dd565b565b600073eeeeeeeeeeeeeeeeeeeeeeeeeeeeeeeeeeeeeeed196001600160a01b0383160161184a57506001600160a01b031660009081526005602052604090205490565b816001600160a01b03166318160ddd6040518163ffffffff1660e01b8152600401602060405180830381865afa158015611888573d6000803e3d6000fd5b505050506040513d601f19601f820116820180604052508101906109d89190613eb2565b6000611941600180546118be90613e06565b80601f01602080910402602001604051908101604052809291908181526020018280546118ea90613e06565b80156119375780601f1061190c57610100808354040283529160200191611937565b820191906000526020600020905b81548152906001019060200180831161191a57829003601f168201915b505050505061257e565b905061194f83838387612635565b61199b5760405162461bcd60e51b815260206004820181905260248201527f5b5147444b2d3030373031325d2d496e76616c6964207369676e61747572652e6044820152606401610ba1565b6119a4846127f6565b15611a325760405162461bcd60e51b815260206004820152605260248201527f5b5147444b2d3030373031335d2d546865207573657220616c7265616479206860448201527f61732074686520726967687420746f20706172746963697061746520696e20746064820152713432902220a79033b7bb32b93730b731b29760711b608482015260a401610ba1565b6001600160a01b03841660008181526008602052604080822080546001600160801b0342166101000270ffffffffffffffffffffffffffffffffff19909116176001179055517fb90fb482735d7b26a1b044c13f1cf3ab5cb3a7a07c2b79e764c34e3f027e1e369190a250505050565b611aab816127f6565b6113a05760405162461bcd60e51b815260206004820152603760248201527f5b5147444b2d3030373031345d2d546865207573657220686173206e6f74207360448201527f69676e65642074686520636f6e737469747574696f6e2e0000000000000000006064820152608401610ba1565b60006109d5836001600160a01b038416612840565b60606109d8604051806020016040528084604051602001611b5391906140b0565b60405160208183030381529060405281525061288f565b425b6000611b778361212d565b118015611b8b575080611b89836128e3565b105b15610ea357611b99826128ee565b611b6c565b60606000611bab836128f7565b9392505050565b600080600080611bc186612953565b915091506000805b8351811015611c805742848281518110611be557611be56140e1565b602002602001015110611c6e5784848281518110611c0557611c056140e1565b60200260200101511115611c3057838181518110611c2557611c256140e1565b602002602001015194505b81838281518110611c4357611c436140e1565b60200260200101511115611c6e57828181518110611c6357611c636140e1565b602002602001015191505b80611c78816140f7565b915050611bc9565b50858110611c945760009450505050611ca4565b611c9e8187613ecb565b94505050505b9250929050565b600254604080518082018252601281527144414f5f5641554c545f5245534f5552434560701b60208201529051633ca8e36d60e11b81526001600160a01b0390921691637951c6da91611d05913391908690600401614110565b602060405180830381865afa158015611d22573d6000803e3d6000fd5b505050506040513d601f19601f82011682018060405250810190611d46919061408e565b6113a05760405162461bcd60e51b815260206004820152604d60248201527f5b5147444b2d3030373031315d2d5468652073656e646572206973206e6f742060448201527f616c6c6f77656420746f20706572666f726d2074686520616374696f6e2c206160648201526c31b1b2b9b9903232b734b2b21760991b608482015260a401610ba1565b6040516370a0823160e01b81526001600160a01b038381166004830152600091908316906370a0823190602401602060405180830381865afa158015611e18573d6000803e3d6000fd5b505050506040513d601f19601f82011682018060405250810190611e3c9190613eb2565b6001600160a01b0384166000908152600660205260408120911515925090611e649084612977565b9050818015611e705750805b15611e7b5750505050565b81611ee45760405162461bcd60e51b815260206004820152603360248201527f5b5147444b2d3030373030365d2d546865207573657220646f6573206e6f74206044820152723430bb32903a34329029a12a103a37b5b2b71760691b6064820152608401610ba1565b6001600160a01b0384166000908152600660205260409020610cfe9084611b1d565b6001600160a01b0380841660009081526007602090815260408083209386168352929052908120611f369061212d565b11611f835760405162461bcd60e51b815260206004820152601d60248201527f5b5147444b2d3030373030385d2d4e6f204e465420746f206c6f636b2e0000006044820152606401610ba1565b6001600160a01b0380841660009081526007602090815260408083209386168352929052908120611fb490826121b4565b6001600160a01b038086166000908152600460209081526040808320938816835292905220909150611fe7908284612999565b836001600160a01b0316836001600160a01b03167f20396bfcfa769a8877030da41fa31e149ebb9173688ae00a7fdb9b8c50b913b78385604051612035929190918252602082015260400190565b60405180910390a350505050565b6001600160a01b038085166000908152600360209081526040808320938716835292905220548211156120c95760405162461bcd60e51b815260206004820152602860248201527f5b5147444b2d3030373030375d2d4e6f7420656e6f75676820746f6b656e73206044820152673a37903637b1b59760c11b6064820152608401610ba1565b6001600160a01b0380851660009081526004602090815260408083209387168352929052206120f790611b6a565b6001600160a01b038085166000908152600460209081526040808320938716835292905220612127908383612a08565b50505050565b60006109d8825490565b60006121428361212d565b600003612151575060016109d8565b818360000160010160008154811061216b5761216b6140e1565b906000526020600020015414612183575060016109d8565b825442908490600090612198576121986140e1565b906000526020600020015460001c1015610a6a575060016109d8565b60006109d58383612a13565b60006109d58383612a3d565b3360009081526006602052604090206121e59082612b30565b503360009081526006602052604090206121fe9061212d565b6000036113a057600254600180546001600160a01b0390921691639a9aa8d491339161222e919061078f90613e06565b6040518363ffffffff1660e01b815260040161224b929190613e40565b600060405180830381600087803b15801561226557600080fd5b505af1158015610cfe573d6000803e3d6000fd5b60006122916000805160206143308339815191525490565b90506001600160a01b03811615806122b157506001600160a01b03811633145b6113a05760405162461bcd60e51b815260206004820152601a60248201527f446570656e64616e743a206e6f7420616e20696e6a6563746f720000000000006044820152606401610ba1565b3360008181526003602090815260408083206001600160a01b0387168085529083528184205494845260048352818420908452909152902061233f9183612b45565b6123a65760405162461bcd60e51b815260206004820152603260248201527f5b5147444b2d3030373030395d2d547279696e6720746f2077697468647261776044820152711036b7b932903a3430b7103637b1b5b2b21760711b6064820152608401610ba1565b3360009081526003602090815260408083206001600160a01b038616845290915290205481111561242e5760405162461bcd60e51b815260206004820152602c60248201527f5b5147444b2d3030373031305d2d4e6f7420656e6f75676820746f6b656e732060448201526b3a37903bb4ba34323930bb9760a11b6064820152608401610ba1565b3360009081526003602090815260408083206001600160a01b038616845290915290205461245d908290613ecb565b60000361246d5761246d826121cc565b3360009081526003602090815260408083206001600160a01b0386168452909152812080548392906124a0908490613ecb565b90915550506001600160a01b038216600090815260056020526040812080548392906124cd908490613ecb565b90915550503360009081526004602090815260408083206001600160a01b038616845290915290206124fe90611b6a565b6125126001600160a01b0383163383612bb6565b60405181815233906001600160a01b038416907ffd3c769270d445b58006501ec3c836a667c58d0b51d98cbb007d4d040a93c09e9060200160405180910390a35050565b600061256183612cb0565b80156109d557506109d58383612ce3565b60006109d58383612840565b604080516028808252606082019092526000918391839160208201818036833701905050905060005b602881101561261257826125bc82600f613df3565b815181106125cc576125cc6140e1565b602001015160f81c60f81b8282815181106125e9576125e96140e1565b60200101906001600160f81b031916908160001a9053508061260a816140f7565b9150506125a7565b5061262d61261f82612d6c565b60200151600160601b900490565b949350505050565b604080518082018252601081526f2220a7902a37b5b2b7102437b63232b960811b6020820152905163065ab60960e41b8152600091829161276a916001600160a01b038716916365ab60909161268d91600401613b25565b602060405180830381865afa1580156126aa573d6000803e3d6000fd5b505050506040513d601f19601f820116820180604052508101906126ce9190614071565b60408051808201825260118152700c6dedce6e8d2e8eae8d2dedc5cd0c2e6d607b1b60208201529051632591ac6b60e21b81526001600160a01b039290921691639646b1ac9161272091600401613b25565b600060405180830381865afa15801561273d573d6000803e3d6000fd5b505050506040513d6000823e601f3d908101601f191682016040526127659190810190614146565b612ed2565b61277390614207565b90506127ec836127b0837f19457468657265756d205369676e6564204d6573736167653a0a3332000000006000908152601c91909152603c902090565b88888080601f016020809104026020016040519081016040528093929190818152602001838380828437600092019190915250612ee792505050565b9695505050505050565b600080612809600180546118be90613e06565b6001600160a01b03841660009081526008602052604090205490915060ff1680611bab5750611bab816001600160a01b0316612f3e565b6000818152600183016020526040812054612887575081546001818101845560008481526020808220909301849055845484825282860190935260409020919091556109d8565b5060006109d8565b604080516001808252818301909252606091816020015b60608152602001906001900390816128a6575050825181519192509082906000906128d3576128d36140e1565b6020026020010181905250919050565b60006109d882612fa7565b6113a081612fda565b60608160000180548060200260200160405190810160405280929190818152602001828054801561294757602002820191906000526020600020905b815481526020019060010190808311612933575b50505050509050919050565b606080612965612962846128f7565b90565b61296e846130e0565b91509150915091565b6001600160a01b038116600090815260018301602052604081205415156109d5565b6129a28361212d565b6000036129b9576129b483828461313a565b505050565b8254819084906000906129ce576129ce6140e1565b906000526020600020015460001c10156129b4578254819084906000906129f7576129f76140e1565b600091825260209091200155505050565b6129b483828461313a565b6000826000018281548110612a2a57612a2a6140e1565b9060005260206000200154905092915050565b60008181526001830160205260408120548015612b26576000612a61600183613ecb565b8554909150600090612a7590600190613ecb565b9050818114612ada576000866000018281548110612a9557612a956140e1565b9060005260206000200154905080876000018481548110612ab857612ab86140e1565b6000918252602080832090910192909255918252600188019052604090208390555b8554869080612aeb57612aeb61422b565b6001900381819060005260206000200160009055905585600101600086815260200190815260200160002060009055600193505050506109d8565b60009150506109d8565b60006109d5836001600160a01b038416612a3d565b6000425b6000612b548661212d565b1115612bab57600080612b6687613145565b9150915082821015612b8257612b7b876128ee565b5050612b49565b85612b8d8287613df3565b1115612b9f5760009350505050611bab565b60019350505050611bab565b506001949350505050565b73eeeeeeeeeeeeeeeeeeeeeeeeeeeeeeeeeeeeeeed196001600160a01b03841601612c9c576000826001600160a01b03168260405160006040518083038185875af1925050503d8060008114612c28576040519150601f19603f3d011682016040523d82523d6000602084013e612c2d565b606091505b50509050806121275760405162461bcd60e51b815260206004820152603560248201527f5b5147444b2d3031393030305d2d5472616e7366657272696e67206f66206e616044820152743a34bb329031bab93932b731bc903330b4b632b21760591b6064820152608401610ba1565b6129b46001600160a01b038416838361315f565b6000612cc3826301ffc9a760e01b612ce3565b80156109d85750612cdc826001600160e01b0319612ce3565b1592915050565b604080516001600160e01b03198316602480830191909152825180830390910181526044909101909152602080820180516001600160e01b03166301ffc9a760e01b178152825160009392849283928392918391908a617530fa92503d91506000519050828015612d55575060208210155b8015612d615750600081115b979650505050505050565b6060600060028351612d7e9190614241565b67ffffffffffffffff811115612d9657612d96613c14565b6040519080825280601f01601f191660200182016040528015612dc0576020820181803683370190505b50905060005b8151811015612ecb57600084612ddd836002614263565b81518110612ded57612ded6140e1565b016020015160f81c9050600085612e05846002614263565b612e10906001613df3565b81518110612e2057612e206140e1565b016020015160f81c9050603960ff831611612e4557612e4060308361427a565b612e53565b612e53603760df841661427a565b915060398160ff1611612e7057612e6b60308261427a565b612e7e565b612e7e603760df831661427a565b90508060048360ff16901b1760f81b848481518110612e9f57612e9f6140e1565b60200101906001600160f81b031916908160001a90535050508080612ec3906140f7565b915050612dc6565b5092915050565b6060612edf8260046131b1565b506020015190565b6000806000612ef68585613201565b90925090506000816004811115612f0f57612f0f614293565b148015612f2d5750856001600160a01b0316826001600160a01b0316145b806127ec57506127ec868686613243565b604080518082018252601081526f2220a7902a37b5b2b7102437b63232b960811b6020820152905163065ab60960e41b81526000918291612f96916001600160a01b038616916365ab60909161268d91600401613b25565b612f9f90614207565b159392505050565b6000612fb28261332f565b81600001600081548110612fc857612fc86140e1565b90600052602060002001549050919050565b612fe38161332f565b6000612fed825490565b905081612ffb600183613ecb565b8154811061300b5761300b6140e1565b90600052602060002001548260000160008154811061302c5761302c6140e1565b6000918252602090912001556001808301906130489083613ecb565b81548110613058576130586140e1565b906000526020600020015482600101600081548110613079576130796140e1565b60009182526020909120015581548290806130965761309661422b565b60019003818190600052602060002001600090559055816001018054806130bf576130bf61422b565b60019003818190600052602060002001600090559055610ea3826000613386565b60608160010180548060200260200160405190810160405280929190818152602001828054801561294757602002820191906000526020600020908154815260200190600101908083116129335750505050509050919050565b6129b48383836133b2565b6000808080613153856133f8565b90969095509350505050565b604080516001600160a01b038416602482015260448082018490528251808303909101815260649091019091526020810180516001600160e01b031663a9059cbb60e01b1790526129b490849061342e565b8060058111156131c3576131c3614293565b826040015160058111156131d9576131d9614293565b14610ea3578151604080840151905163381af4c560e11b8152610ba1929184916004016142cb565b60008082516041036132375760208301516040840151606085015160001a61322b87828585613503565b94509450505050611ca4565b50600090506002611ca4565b6000806000856001600160a01b0316631626ba7e60e01b868660405160240161326d9291906142fa565b60408051601f198184030181529181526020820180516001600160e01b03166001600160e01b03199094169390931790925290516132ab9190614313565b600060405180830381855afa9150503d80600081146132e6576040519150601f19603f3d011682016040523d82523d6000602084013e6132eb565b606091505b50915091508180156132ff57506020815110155b80156127ec57508051630b135d3f60e11b906133249083016020908101908401613eb2565b149695505050505050565b6000613339825490565b116113a05760405162461bcd60e51b815260206004820152601a60248201527f5072696f7269747951756575653a20656d7074792071756575650000000000006044820152606401610ba1565b600061339283836135c7565b90508082036133a057505050565b6133ab838284613691565b9050613386565b825460018181018555600085815260208082209093018590558186018054808401825590825292902090910182905583546129b49185916133f39190613ecb565b6137a1565b60008061340483612fa7565b8360010160008154811061341a5761341a6140e1565b906000526020600020015491509150915091565b6000613483826040518060400160405280602081526020017f5361666545524332303a206c6f772d6c6576656c2063616c6c206661696c6564815250856001600160a01b03166138179092919063ffffffff16565b90508051600014806134a45750808060200190518101906134a4919061408e565b6129b45760405162461bcd60e51b815260206004820152602a60248201527f5361666545524332303a204552433230206f7065726174696f6e20646964206e6044820152691bdd081cdd58d8d9595960b21b6064820152608401610ba1565b6000807f7fffffffffffffffffffffffffffffff5d576e7357a4501ddfe92f46681b20a083111561353a57506000905060036135be565b6040805160008082526020820180845289905260ff881692820192909252606081018690526080810185905260019060a0016020604051602081039080840390855afa15801561358e573d6000803e3d6000fd5b5050604051601f1901519150506001600160a01b0381166135b7576000600192509250506135be565b9150600090505b94509492505050565b6001820180546000919083836135dc82613826565b9050828110801561362457508382815481106135fa576135fa6140e1565b9060005260206000200154848281548110613617576136176140e1565b9060005260206000200154115b1561362d578091505b6136368661383e565b9050828110801561367e5750838281548110613654576136546140e1565b9060005260206000200154848281548110613671576136716140e1565b9060005260206000200154115b15613687578091505b5095945050505050565b8254839060018201908290849081106136ac576136ac6140e1565b90600052602060002001548285815481106136c9576136c96140e1565b90600052602060002001548386815481106136e6576136e66140e1565b906000526020600020016000858781548110613704576137046140e1565b90600052602060002001600084919050558391905055505080838154811061372e5761372e6140e1565b906000526020600020015481858154811061374b5761374b6140e1565b9060005260206000200154828681548110613768576137686140e1565b906000526020600020016000848781548110613786576137866140e1565b60009182526020909120019290925591909155505050505050565b60008260010182815481106137b8576137b86140e1565b906000526020600020015490505b81156129b45760006137d783613856565b9050818460010182815481106137ef576137ef6140e1565b9060005260206000200154106138055750505050565b613810848285613691565b91506137c6565b606061262d848460008561386f565b6000613833826002614263565b6109d8906001613df3565b600061384b826002614263565b6109d8906002613df3565b60006002613865600184613ecb565b6109d89190614241565b6060824710156138d05760405162461bcd60e51b815260206004820152602660248201527f416464726573733a20696e73756666696369656e742062616c616e636520666f6044820152651c8818d85b1b60d21b6064820152608401610ba1565b600080866001600160a01b031685876040516138ec9190614313565b60006040518083038185875af1925050503d8060008114613929576040519150601f19603f3d011682016040523d82523d6000602084013e61392e565b606091505b5091509150612d6187838387606083156139a95782516000036139a2576001600160a01b0385163b6139a25760405162461bcd60e51b815260206004820152601d60248201527f416464726573733a2063616c6c20746f206e6f6e2d636f6e74726163740000006044820152606401610ba1565b508161262d565b61262d83838151156139be5781518083602001fd5b8060405162461bcd60e51b8152600401610ba19190613b25565b6001600160a01b03811681146113a057600080fd5b60008060408385031215613a0057600080fd5b8235613a0b816139d8565b91506020830135613a1b816139d8565b809150509250929050565b600081518084526020808501945080840160005b83811015613a5657815187529582019590820190600101613a3a565b509495945050505050565b6020808252825160408383015280516060840181905260009291820190839060808601905b80831015613aa65783518252928401926001929092019190840190613a86565b5092860151858403601f1901604087015292612d618185613a26565b6020815260006109d56020830184613a26565b60005b83811015613af0578181015183820152602001613ad8565b50506000910152565b60008151808452613b11816020860160208601613ad5565b601f01601f19169290920160200192915050565b6020815260006109d56020830184613af9565b600060208284031215613b4a57600080fd5b8135611bab816139d8565b60008060008060808587031215613b6b57600080fd5b8435613b76816139d8565b93506020850135613b86816139d8565b93969395505050506040820135916060013590565b6020808252825182820181905260009190848201906040850190845b81811015613bdc5783516001600160a01b031683529284019291840191600101613bb7565b50909695505050505050565b60008060408385031215613bfb57600080fd5b8235613c06816139d8565b946020939093013593505050565b634e487b7160e01b600052604160045260246000fd5b6040516060810167ffffffffffffffff81118282101715613c4d57613c4d613c14565b60405290565b604051601f8201601f1916810167ffffffffffffffff81118282101715613c7c57613c7c613c14565b604052919050565b600067ffffffffffffffff821115613c9e57613c9e613c14565b50601f01601f191660200190565b60008060408385031215613cbf57600080fd5b8235613cca816139d8565b9150602083013567ffffffffffffffff811115613ce657600080fd5b8301601f81018513613cf757600080fd5b8035613d0a613d0582613c84565b613c53565b818152866020838501011115613d1f57600080fd5b816020840160208301376000602083830101528093505050509250929050565b600060208284031215613d5157600080fd5b5035919050565b600080600060408486031215613d6d57600080fd5b8335613d78816139d8565b9250602084013567ffffffffffffffff80821115613d9557600080fd5b818601915086601f830112613da957600080fd5b813581811115613db857600080fd5b876020828501011115613dca57600080fd5b6020830194508093505050509250925092565b634e487b7160e01b600052601160045260246000fd5b808201808211156109d8576109d8613ddd565b600181811c90821680613e1a57607f821691505b602082108103613e3a57634e487b7160e01b600052602260045260246000fd5b50919050565b60006040820160018060a01b0385168352602060408185015281855180845260608601915060608160051b870101935082870160005b82811015613ea457605f19888703018452613e92868351613af9565b95509284019290840190600101613e76565b509398975050505050505050565b600060208284031215613ec457600080fd5b5051919050565b818103818111156109d8576109d8613ddd565b6000613eec613d0584613c84565b9050828152838383011115613f0057600080fd5b611bab836020830184613ad5565b600082601f830112613f1f57600080fd5b6109d583835160208501613ede565b600060208284031215613f4057600080fd5b815167ffffffffffffffff811115613f5757600080fd5b61262d84828501613f0e565b601f8211156129b457600081815260208120601f850160051c81016020861015613f8a5750805b601f850160051c820191505b81811015613fa957828155600101613f96565b505050505050565b815167ffffffffffffffff811115613fcb57613fcb613c14565b613fdf81613fd98454613e06565b84613f63565b602080601f8311600181146140145760008415613ffc5750858301515b600019600386901b1c1916600185901b178555613fa9565b600085815260208120601f198616915b8281101561404357888601518255948401946001909101908401614024565b50858210156140615787850151600019600388901b60f8161c191681555b5050505050600190811b01905550565b60006020828403121561408357600080fd5b8151611bab816139d8565b6000602082840312156140a057600080fd5b81518015158114611bab57600080fd5b682220a7a3b937bab81d60b91b8152600082516140d4816009850160208701613ad5565b9190910160090192915050565b634e487b7160e01b600052603260045260246000fd5b60006001820161410957614109613ddd565b5060010190565b6001600160a01b038416815260606020820181905260009061413490830185613af9565b82810360408401526127ec8185613af9565b60006020828403121561415857600080fd5b815167ffffffffffffffff8082111561417057600080fd5b908301906060828603121561418457600080fd5b61418c613c2a565b82518281111561419b57600080fd5b6141a787828601613f0e565b8252506020830151828111156141bc57600080fd5b83019150601f820186136141cf57600080fd5b6141de86835160208501613ede565b602082015260408301519250600683106141f757600080fd5b6040810192909252509392505050565b80516020808301519190811015613e3a5760001960209190910360031b1b16919050565b634e487b7160e01b600052603160045260246000fd5b60008261425e57634e487b7160e01b600052601260045260246000fd5b500490565b80820281158282048414176109d8576109d8613ddd565b60ff82811682821603908111156109d8576109d8613ddd565b634e487b7160e01b600052602160045260246000fd5b600681106142c757634e487b7160e01b600052602160045260246000fd5b9052565b6060815260006142de6060830186613af9565b90506142ed60208301856142a9565b61262d60408301846142a9565b82815260406020820152600061262d6040830184613af9565b60008251614325818460208701613ad5565b919091019291505056fe3d1f25f1ac447e55e7fec744471c4dab1c6a2b6ffb897825f9ea3d2e8c9be583a2646970667358221220ef84091ba60d5a08a168b7494b4635d1f7a0e61901adc4afb971792c58e9e46564736f6c63430008130033",
  "linkReferences": {},
  "deployedLinkReferences": {}
}